:100000000C9438010C9469010C9469010C946901F9
:100010000C9469010C9469010C9469010C946901B8
:100020000C9469010C9469010C9469010C946901A8
:100030000C9469010C9469010C9469010C94690198
:100040000C9469010C9469010C9469010C94690188
:100050000C9469010C9469010C9469010C942005BD
:100060000C9469010C9469010C9469010C94690168
:100070000C9469010C9469010C9469010C94690158
:100080000C9469010C9469010C9469010C94690148
:100090000C9469010C9469010C9469010C94690138
:1000A0000C9469010C9469010C9469010C94690128
:1000B0000C9469010C9469010C9469010C94690118
:1000C0000C9469010C9469010C9469010C94690108
:1000D0000C9469010C9469010C9469010C946901F8
:1000E0000C9469010C9453020C9480020C945B02F2
:1000F0000C948A020C944F020C94EC020C9449026A
:100100000C9489020C946E020C9464020C945702B5
:100110000C942C030C941A050C947C020C94880308
:100120000C9492080C9472020C9476020C948E0239
:100130000C94BB020C9487030C9484020C94680208
:100140000C94FE010C945E020C94EC07000021005C
:10015000240027002A002D00300033000101000098
:10016000040107010A0100002200250028002B00DD
:100170002E003100340002010000050108010B01CE
:10018000000020002300260029002C002F00320050
:100190000001000003010601090105050505070529
:1001A00008080808020202020A0A080804040404F3
:1001B000010101010101010103030303030303031F
:1001C000040707070C0C0C0C0C0C0C0C02020202AE
:1001D00006060606060606060B0B0B0B0B0B0B0B97
:1001E0000102102020080810204010204080020149
:1001F000020108040201010204081020408080402E
:10020000201008040201800402018040201008042C
:1002100002010804020101020408102040800102CA
:1002200004081020408000000A0B02090C0D0E0883
:1002300007030401000000000000000000000000AF
:1002400000000000000000000000000000000000AE
:10025000000012111000000000000000000000006B
:10026000000000000000000000000000EC07920801
:1002700011241FBECFEFD1E2DEBFCDBF00E00CBF27
:1002800023E0A2E7B2E001C01D92AC30B207E1F773
:1002900012E0A0E0B2E0E6E9F5E100E00BBF02C049
:1002A00007900D92A237B107D9F711E0C7E3D1E06B
:1002B00000E006C021970109802FFE010E949B08E3
:1002C000C633D10780E00807A9F70E946A050C949D
:1002D000B90A0C94000096E0899FD0011124A5581A
:1002E000BD4F90967C936E935F9791E091969C930F
:1002F0009197E091E802F091E9029091E702992349
:1003000039F0309751F0811108C08091970219940B
:10031000309719F05C968C91FACF0895CF92DF92C6
:10032000EF92FF920F931F9396E0899FF0011124A3
:10033000E558FD4F11A2278D30A12130310551F133
:1003400078F02230310509F451C02330310509F429
:1003500052C01F910F91FF90EF90DF90CF900895C2
:100360006623B9F361E070E00E946B012FB7F89447
:100370008091770290917802A0917902B0917A02EF
:100380002FBF8093D3029093D402A093D502B09351
:10039000D602DFCF9FB7F894C0907702D090780252
:1003A000E0907902F0907A029FBF0091D302109101
:1003B000D4022091D5023091D602C01AD10AE20AA5
:1003C000F30A0091E5021091E60230E020E00C15FE
:1003D0001D052E053F0550F462E070E01F910F915E
:1003E000FF90EF90DF90CF900C946B016111B1CF33
:1003F00063E070E0F3CF70E060E0F0CFAF92BF92C7
:10040000CF92DF92EF92FF920F931F93CF93DF93E0
:100410006C017B018B01040F151FEB015E01AE180F
:10042000BF08C017D10759F06991D601ED91FC9131
:100430000190F081E02DC6011995892B79F7C5014E
:10044000DF91CF911F910F91FF90EF90DF90CF90B0
:10045000BF90AF9008958150823108F05AC0E82FC4
:10046000F0E08827E95CFD4F8F4F0C949B08570202
:100470005B0249024F02530289025E026402680273
:100480006E02720276027C028002890284028A0273
:100490008E02809180008F778093800008958091F4
:1004A00080008F7DF9CF80918000877FF5CF84B564
:1004B0008F7784BD089584B58F7DFBCF8091B00088
:1004C0008F778093B00008958091B0008F7DF9CF31
:1004D000809190008F778093900008958091900094
:1004E0008F7DF9CF80919000877FF5CF8091A0001C
:1004F0008F778093A00008958091A0008F7DF9CF21
:100500008091A000877FF5CF809120018F77809325
:1005100020010895809120018F7DF9CF80912001E5
:10052000877FF5CFCF93DF93282F30E0F901EA5D85
:10053000FD4F8491F901E052FE4FD491F901E65646
:10054000FE4FC491CC23A1F081110E942B02EC2F0D
:10055000F0E0EE0FFF1FE058FE4FA591B491EC9133
:10056000ED2381E090E009F480E0DF91CF910895E0
:1005700080E090E0FACF862F0C9492021F93CF93E5
:10058000DF93282F30E0F901EA5DFD4F8491F901F6
:10059000E052FE4FD491F901E656FE4FC491CC23B0
:1005A000A9F0162F81110E942B02EC2FF0E0EE0F24
:1005B000FF1FEA59FE4FA591B4918FB7F894EC91C3
:1005C000111108C0D095DE23DC938FBFDF91CF914E
:1005D0001F910895DE2BF8CF862F642F0C94BE0256
:1005E000CF93DF9390E0FC01E052FE4F24918656BA
:1005F0009E4FFC0184918823C9F090E0880F991FD9
:10060000FC01E45BFE4FA591B491FC01EA59FE4F59
:10061000C591D49161110DC09FB7F8948C9120952C
:1006200082238C938881282328839FBFDF91CF91D9
:100630000895623051F49FB7F8943C91822F8095D1
:1006400083238C93E8812E2BEFCF8FB7F894EC9116
:100650002E2B2C938FBFEACF862F642F0C94F002A1
:100660003FB7F8948091730290917402A091750243
:10067000B091760226B5A89B05C02F3F19F00196D0
:10068000A11DB11D3FBFBA2FA92F982F8827BC01EC
:10069000CD01620F711D811D911D42E0660F771F14
:1006A000881F991F4A95D1F708958F929F92AF9214
:1006B000BF92CF92DF92EF92FF924B015C010E94BA
:1006C00030036B017C010E9430036C197D098E0997
:1006D0009F09683E734081059105A8F321E0821AC5
:1006E0009108A108B10888EEC80E83E0D81EE11C6D
:1006F000F11C81149104A104B10429F7FF90EF903B
:10070000DF90CF90BF90AF909F908F900895089505
:1007100090E080E00895CF93DF93EC018091020395
:1007200090910303009759F0209104033091050341
:100730002C173D0720F081E0DF91CF910895BE0195
:100740006F5F7F4F0E94C809009789F09093030361
:1007500080930203D0930503C09304032091060302
:1007600030910703232B39F7FC011082E4CF80E09E
:10077000E3CFFC0101900020E9F73197AF01481B5E
:10078000590BBC018AEE92E00C94FE01CF93DF93EB
:10079000EC0160E08E810E94BE0261E08E810E94C9
:1007A000BE0260E08E810E94BE028BE891E001975C
:1007B000F1F7DF91CF910895CF92DF92EF92FF9200
:1007C0000F931F93CF93DF936C017C0187E0E80EBA
:1007D000F11CD0E0C0E0062F10E0B8010C2E02C0E2
:1007E000759567950A94E2F76170F70181917F0131
:1007F0000E94BE022196C430D10579F7C601DF916F
:10080000CF911F910F91FF90EF90DF90CF900C94BC
:10081000C603CF92DF92EF92FF920F931F93CF9375
:10082000DF93EC01F62E642F8C810E94BE028D8135
:100830008F3F19F060E00E94BE020F2D10E08F85FF
:1008400084FF25C06E0187E0C80ED11CF12CE12C7D
:10085000B8010E2C02C0759567950A94E2F7617095
:10086000F60181916F010E94BE02FFEFEF1AFF0AAD
:1008700088E0E816F10461F7CE01DF91CF911F9176
:100880000F91FF90EF90DF90CF900C94C603B801CA
:1008900084E0759567958A95E1F7CE010E94DC03A7
:1008A0006F2DCE01DF91CF911F910F91FF90EF90AF
:1008B000DF90CF900C94DC0340E0682F8AEE92E04A
:1008C0000C94090481E00E945C048BE39FE1019792
:1008D000F1F70895CF93DF93823029F49091F902D4
:1008E00098609093F9028093FD021092FE0280E4DA
:1008F0008093FF0280E18093000380E580930103F1
:1009000061E08091EE020E94F0028091EF028F3F41
:1009100019F061E00E94F00261E08091F0020E9413
:10092000F002CAEED2E09E012A5E32408091F902C6
:1009300084FD0BC084E090E021962817390744F429
:1009400061E08E810E94F002EECF88E090E0F4CF6B
:100950008BE39DE00197F1F760E08091EE020E9449
:10096000BE0260E08091F0020E94BE028091EF0220
:100970008F3F19F060E00E94BE028091F90284FD71
:1009800034C063E08AEE92E00E94DC03CBE4D6E45C
:10099000CE010197F1F763E08AEE92E00E94DC035A
:1009A0002197F1F763E08AEE92E00E94DC0383E591
:1009B00092E00197F1F762E08AEE92E00E94DC0398
:1009C0008091F90280620E945C0484E08093FA02C4
:1009D0008CE00E945C040E94620482E08093FB022F
:1009E00086E0DF91CF910C945C0480620E945C04ED
:1009F0008BE496E40197F1F78091F90280620E94FE
:100A00005C0483E592E00197F1F78091F90280623E
:100A10000E945C04D5CF9091FD02691710F06FEF32
:100A2000690FE62FF0E0E651FD4F9489890F806849
:100A30000C945C0441E00E94090481E090E0089578
:100A40001F920F920FB60F9211242F933F938F9303
:100A50009F93AF93BF938091770290917802A0917A
:100A60007902B0917A023091720223E0230F2D3780
:100A700058F50196A11DB11D209372028093770253
:100A800090937802A0937902B0937A0280917302D6
:100A900090917402A0917502B09176020196A11D09
:100AA000B11D8093730290937402A0937502B0936A
:100AB0007602BF91AF919F918F913F912F910F90AF
:100AC0000FBE0F901F90189526E8230F0296A11DC8
:100AD000B11DD2CFCF93DF931F921F92CDB7DEB758
:100AE000789484B5826084BD84B5816084BD85B509
:100AF000826085BD85B5816085BD80916E00816015
:100B000080936E00109281008091810082608093BA
:100B100081008091810081608093810080918000BC
:100B20008160809380008091B10084608093B100E7
:100B30008091B00081608093B000809191008260CC
:100B400080939100809191008160809391008091C9
:100B500090008160809390008091A10082608093DA
:100B6000A1008091A10081608093A1008091A000EC
:100B700081608093A0008091210182608093210197
:100B80008091210181608093210180912001816009
:100B90008093200180917A00846080937A00809114
:100BA0007A00826080937A0080917A0081608093DD
:100BB0007A0080917A00806880937A001092C10058
:100BC00080E40E945C0400E212E058E2E52E52E06C
:100BD000F52EF80161918F018AEE92E00E941A05CC
:100BE000E016F106B1F788E40E945C0408E112E027
:100BF000F80161918F018AEE92E00E941A05F2E0FD
:100C000000321F07A9F782E00E946A0482E00E9476
:100C10005C048BE39FE10197F1F760E081E00E94C3
:100C20000B0560E08AEE92E00E941A0584E492E0EF
:100C30000E94B90360E08AEE92E00E941A0568E81B
:100C400073E180E090E00E9455030E946204412C11
:100C5000512C3201439440E0A42E40E0B42E60E0D9
:100C600080E00E940B0581E592E00E94B90380912B
:100C7000060390910703099708F075C161E080E0D1
:100C80000E940B05409106035091070360910203F7
:100C9000709103038AEE92E00E94FE0181E080934E
:100CA000E7028FB7F89440917702509178026091F3
:100CB000790270917A028FBF8091D7029091D80209
:100CC000A091D902B091DA02481B590B6A0B7B0B39
:100CD0008091E3029091E402B0E0A0E084179507D0
:100CE000A607B70708F01BC110E08091E1021817B2
:100CF00060F4E091DD02F091DE02E10FF11D62E0AF
:100D000080810E94F0021F5FF0CF312C8091E202BF
:100D1000381608F061C0E32CF12CE091DF02F0916D
:100D2000E002EE0DFF1D61E080810E94F002E09183
:100D3000DF02F091E002EE0DFF1D60E080810E9475
:100D4000BE02D301C201032C04C0880F991FAA1F41
:100D5000BB1F0A94D2F74C016C01C094D094212C93
:100D60008091E102281608F5022D10E0E091DD02E5
:100D7000F091DE02E00FF11F80810E9492020C5F71
:100D80001F4F000F111FF801E558FD4F892B41F44B
:100D90008081918188299929918380832394E0CF50
:100DA000808191818C219D21F7CFE091DF02F0912C
:100DB000E002EE0DFF1D61E080810E94BE02809185
:100DC000DF029091E002E80EF91E60E0F7018081F9
:100DD0000E94F00233949ACF0BE712E07801F701FA
:100DE000878D90A1892B31F4148E8FEF9FEF968F12
:100DF000858F11A296E0E90EF11CE7EBF2E0EE150B
:100E0000FF0569F7D12C8091E102D81608F053C094
:100E1000C12C8D2C912C880C991CC4018D579D4F91
:100E20004C012091E202C21608F043C0F401608137
:100E300071810C2C02C0769567950A94E2F7D29ED8
:100E4000900111242C0D311DEBE7F2E080E0458D7F
:100E5000568D2417350709F4BDC08F5F36968A304A
:100E6000B1F760FF24C0EBE7F2E090E080E0448D52
:100E7000411118C0E091DB02F091DC02E20FF31F98
:100E8000408156E0589FF001599FF00D1124E5581C
:100E9000FD4F448F368F258F10A2178E61E00E9480
:100EA0008E0105C0019636968A30910501F7C394EC
:100EB000B8CFD394A8CF80E0F80191A19111892FE8
:100EC0000A5F1F4F0E151F05B9F79FB7F8944091A1
:100ED0007702509178026091790270917A029FBFF7
:100EE0004093D7025093D8026093D9027093DA02EC
:100EF0008823A9F080919C02882389F080919A022E
:100F000090919B02019759F48091970281110AC038
:100F1000A114B10409F4A3CE0E940000A0CE109247
:100F2000E702F6CF89831A82009106031091070326
:100F30000F5F1F4FC8010E948B03882349F3209144
:100F40000203309103038091060390910703BE01D1
:100F50006F5F7F4F820F931F0E94B20A10930703A7
:100F600000930603D5CF0E94620460E080E00E94F7
:100F70000B0581E692E00E94B90364EC79E080E021
:100F800090E00E94550390E080E00E948B03209146
:100F9000020330910303811113C02115310519F0AB
:100FA000C9010E943F09109203031092020310929C
:100FB0000703109206031092050310920403A8CFB2
:100FC000109207031092060360E572E0C9010E94C7
:100FD000B20A9ECF617063CF1092ED021092EC02C4
:100FE0008CE392E09093EB028093EA028DE0809391
:100FF000EE028FEF8093EF028CE08093F0028BE0A3
:101000008093F1028AE08093F20281E08093F30200
:101010001092F4021092F5021092F6021092F7026A
:101020001092F8021092F9020E946A0410927D0256
:1010300010928102109280021092820282E392E06A
:1010400090937C0280937B02E7E9F2E010821482A5
:1010500013821582369682E0E33DF807B9F784E003
:1010600092E09093DE028093DD0280E092E0909324
:10107000E0028093DF0284E08093E1028093E20249
:1010800088E092E09093DC028093DB028AE090E0BB
:101090009093E4028093E30284EF91E09093E60260
:1010A0008093E5021092E9021092E8021092D702B2
:1010B0001092D8021092D9021092DA021092E7022E
:1010C000109203031092020310920503109204037E
:1010D000109207031092060390E080E00E948B03B9
:1010E0002091020330910303811113C021153105B2
:1010F00019F0C9010E943F091092030310920203E4
:101100001092070310920603109205031092040335
:101110000895109207031092060360E572E0C9017A
:101120000C94B20A8091020390910303009711F08E
:101130000C943F090895EE0FFF1F881F8BBF079087
:10114000F691E02D19940F931F93CF93DF93823084
:10115000910510F482E090E0E0910A03F0910B0316
:1011600030E020E0B0E0A0E0309799F4211531059F
:1011700009F44AC0281B390B24303105D8F58A817F
:101180009B816115710589F1FB0193838283FE01C7
:1011900011C0408151810281138148175907E0F045
:1011A0004817590799F4109761F012960C9312970B
:1011B00013961C933296CF01DF91CF911F910F911F
:1011C000089500930A0310930B03F4CF2115310502
:1011D00051F04217530738F0A901DB019A01BD0114
:1011E000DF01F801C1CFEF01F9CF90930B0380939A
:1011F0000A03CDCFFE01E20FF31F8193919322509A
:10120000310939832883D7CF20910803309109030E
:10121000232B41F420912A0230912B0230930903B1
:1012200020930803209128023091290221153105CD
:1012300041F42DB73EB740912C0250912D02241B52
:10124000350BE0910803F0910903E217F307A0F4CE
:101250002E1B3F0B2817390778F0AC014E5F5F4F0C
:101260002417350748F04E0F5F1F50930903409332
:101270000803819391939FCFF0E0E0E09CCFCF9360
:10128000DF930097E9F0FC01329713821282A0915C
:101290000A03B0910B03ED0130E020E01097A1F4B8
:1012A00020813181820F931F20910803309109031F
:1012B0002817390709F061C0F0930903E093080388
:1012C000DF91CF910895EA01CE17DF07E8F54A8153
:1012D0005B819E0141155105B1F7E901FB83EA836A
:1012E00049915991C40FD51FEC17FD0761F4808116
:1012F00091810296840F951FE901998388838281E9
:1013000093819B838A83F0E0E0E012968D919C911B
:1013100013970097B9F52D913C911197CD01029645
:10132000820F931F20910803309109032817390772
:1013300039F6309751F510920B0310920A03B093CF
:101340000903A0930803BCCFD383C283408151819A
:10135000840F951FC817D90761F44E5F5F4F8881CE
:101360009981480F591F518340838A819B819383C0
:1013700082832115310509F0B0CFF0930B03E09380
:101380000A039ECFFD01DC01C0CF13821282D7CFAA
:101390004F925F926F927F928F929F92AF92BF9285
:1013A000CF92DF92EF92FF920F931F93CF93DF9331
:1013B0008C01009799F4CB01DF91CF911F910F9190
:1013C000FF90EF90DF90CF90BF90AF909F908F9065
:1013D0007F906F905F904F900C94A308FC01E60FF4
:1013E000F71F9C0122503109E217F30708F4AEC041
:1013F000D901CD91DC911197C617D70720F1C530DF
:10140000D10578F0CE0104978617970750F0C61BD8
:10141000D70B2297C193D1936D937C93CF010E94F8
:101420003F09C801DF91CF911F910F91FF90EF907D
:10143000DF90CF90BF90AF909F908F907F906F90F4
:101440005F904F9008955B01AC1ABD0A4C018C0E61
:101450009D1EA0910A03B0910B03512C412CF12C3D
:10146000E12C109731F580910803909109038815BC
:10147000990509F05CC04616570608F058C08091DF
:10148000280290912902009741F48DB79EB74091B0
:101490002C0250912D02841B950BE817F90708F0D8
:1014A00055C0F0930903E0930803F9017183608349
:1014B000B8CF8D919C91119712966C9012971396BC
:1014C0007C901397A815B90559F56C0142E0C40E3C
:1014D000D11CCA14DB0420F1AC014A195B09DA0102
:1014E0001296159780F06282738251834083D901EE
:1014F0006D937C93E114F10471F0D7011396FC9382
:10150000EE9312978ECF22968C0F9D1FF901918337
:101510008083F301EFCFF0930B03E0930A0381CFB5
:101520004816590608F42C017D01D3019ACFCB014E
:101530000E94A3087C01009749F0AE01B8010E9407
:10154000A90AC8010E943F0987016BCF10E000E0A3
:1015500068CFFB01DC0102C001900D924150504068
:10156000D8F70895FB01DC0101900D920020E1F70E
:10157000089511E0C7E3D1E000E006C0802FFE012E
:101580000E949B082196011DC833D10780E00807FF
:06159000A9F7F894FFCF5B
:10159600060708090203040537383941343536424F
:1015A600313233432A30234400110000110E00006B
:1015B6001F11111F1F1F1F0000000C0380000000D9
:1015C60000002C03EC02BB02000000001A05FE011D
:1015D60088038703204249454E56454E49444F20CD
:1015E6000044494749544520535520434C415645EC
:1015F600004D4158203820434152414354455245FD
:0216060053008F
:00000001FF
