:100000000C945C010C948D010C948D010C948D0169
:100010000C948D010C948D010C948D010C948D0128
:100020000C948D010C948D010C948D010C948D0118
:100030000C948D010C948D010C948D010C948D0108
:100040000C948D010C948C0B0C948D010C948D01EF
:100050000C948D010C948D010C948D010C94B80AB4
:100060000C948D010C94820A0C94580A0C948D0106
:100070000C948D010C948D010C948D010C948D01C8
:100080000C945E0B0C948D010C948D010C948D01DD
:100090000C948D010C948D010C948D010C94BA0B71
:1000A0000C948D010C948D010C94300B0C948D01EB
:1000B0000C948D010C948D010C948D010C94020B09
:1000C0000C948D010C948D010C948D010C948D0178
:1000D0000C948D010C948D010C948D010C948D0168
:1000E0000C948D010C948D030C9420090C94470FF3
:1000F0000C9442060C94DE0C0C9458050C9464038A
:100100000C94BA070C945E020C9450020C948E0866
:100110000C94F1080C9493030C9497030C949203A1
:100120000C947B030C9490070C94F4080C942D020F
:100130000C9477030C9458030C947F030C94960250
:100140000C946D050C945C030C9452030C94E30224
:100150000C946F080C94A7080C946D030C946C0518
:100160000C94E7070C9460030C9491070C9489039A
:100170000C941C090C9485030C94A0070C946E0538
:100180000C9467030C9471030C9400020C943C02D1
:100190000C94B307000020002300260029002C0047
:1001A0002F003200000100000301060109010000D8
:1001B0002100240027002A002D0030003300010117
:1001C0000000040107010A010000220025002800A8
:1001D0002B002E003100340002010000050108014F
:1001E0000B010505050507050808080802020202BB
:1001F0000A0A0808040404040101010101010101C3
:100200000303030303030303040707070C0C0C0C8D
:100210000C0C0C0C02020202060606060606060676
:100220000B0B0B0B0B0B0B0B010210202008081003
:100230002040102040800201020108040201010256
:10024000040810204080804020100804020180042F
:10025000020180402010080402010804020101028A
:100260000408102040800102040810204080000093
:100270000A0B02090C0D0E08070304010000000020
:10028000000000000000000000000000000000006E
:10029000000000000000000000001211100000002B
:1002A000000000000000000000000000000000004E
:1002B00000000000DE0C470F11241FBECFEFD1E27B
:1002C000DEBFCDBF00E00CBF12E0A0E0B2E0E8EE80
:1002D000F3E200E00BBF02C007900D92A43BB10710
:1002E000D9F725E0A4EBB2E001C01D92AA34B20711
:1002F000E1F711E0CBE5D1E000E006C0219701096C
:10030000802FFE010E94BF0FCA35D10780E0080789
:10031000A9F70E940F0E0C94E2110C9400008F922A
:100320009F92AF92BF92FF920F931F93CF93DF9351
:100330008F3F980709F461C0853B910511F484EB68
:1003400090E0F090BB042FE22F1508F44CC02091F0
:10035000BD0408E512E0021B110927FD1395000FEB
:10036000111F000F111F2091BC04C8E8D0E0C21B70
:10037000D10927FDD395CC0FDD1FCC0FDD1F4E011A
:100380000D2E000CAA08BB089801012E000C440B8E
:10039000550B281939094A095B09DC010E947A0FBB
:1003A00024EB30E040E050E00E94500F820E931E9C
:1003B000A41EB51E8C169D062CF0E8018016910631
:1003C0000CF4E4012297CC0FDD1F2FB7F8948F2D8A
:1003D00090E0FC01EE0FFF1FE80FF91FEC5DFB4FF3
:1003E000D283C1832FBFDF91CF911F910F91FF90D7
:1003F000BF90AF909F908F90089590E080E0A1CF44
:10040000AF92BF92CF92DF92EF92FF920F931F9322
:10041000CF93DF936C017B018B01040F151FEB0160
:100420005E01AE18BF08C017D10759F06991D60117
:10043000ED91FC910190F081E02DC6011995892B79
:1004400079F7C501DF91CF911F910F91FF90EF9048
:10045000DF90CF90BF90AF900895FC01538D448DF5
:10046000252F30E0842F90E0821B930B541710F05F
:10047000CF96089501970895FC01918D828D98176C
:1004800061F0A28DAE0FBF2FB11D5D968C91928D44
:100490009F5F9F73928F90E008958FEF9FEF089575
:1004A000FC01918D828D981731F0828DE80FF11D3E
:1004B000858D90E008958FEF9FEF0895FC01918D59
:1004C000228D892F90E0805C9F4F821B91098F7352
:1004D000992708958BE793E00E945E0221E0892B23
:1004E00009F420E0822F0895FC01A48DA80FB92FF4
:1004F000B11DA35ABF4F2C91848D90E001968F734C
:100500009927848FA689B7892C93A089B1898C916A
:10051000837080648C93938D848D981306C00288B9
:10052000F389E02D80818F7D80830895EF92FF9283
:100530000F931F93CF93DF93EC0181E0888F9B8D06
:100540008C8D98131AC0E889F989808185FF15C0C0
:100550009FB7F894EE89FF896083E889F9898081E3
:100560008370806480839FBF81E090E0DF91CF91B2
:100570001F910F91FF90EF900895F62E0B8D10E0D4
:100580000F5F1F4F0F731127E02E8C8D8E110CC043
:100590000FB607FCFACFE889F989808185FFF5CF8E
:1005A000CE010E947402F1CFEB8DEC0FFD2FF11DF7
:1005B000E35AFF4FF0829FB7F8940B8FEA89FB89CB
:1005C00080818062CFCFCF93DF93EC01888D882329
:1005D000B9F0AA89BB89E889F9898C9185FD03C0A6
:1005E000808186FD0DC00FB607FCF7CF8C9185FF8B
:1005F000F2CF808185FFEDCFCE010E947402E9CF5A
:10060000DF91CF91089580E090E0892B29F00E943E
:100610006A0281110E94000080E090E0892B49F07D
:1006200080E090E0892B29F00E94000081110E9457
:10063000000080E090E0892B49F080E090E0892B79
:1006400029F00E94000081110E94000080E090E0EB
:10065000892B49F080E090E0892B29F00E9400006E
:1006600081110C94000008958150823108F05AC025
:10067000E82FF0E08827E05CFC4F8F4F0C94BF0F11
:1006800060036403520358035C03920367036D0322
:10069000710377037B037F038503890392038D0333
:1006A00093039703809180008F7780938000089553
:1006B000809180008F7DF9CF80918000877FF5CF7A
:1006C00084B58F7784BD089584B58F7DFBCF8091ED
:1006D000B0008F778093B00008958091B0008F7D37
:1006E000F9CF809190008F7780939000089580914A
:1006F00090008F7DF9CF80919000877FF5CF80911A
:10070000A0008F778093A00008958091A0008F7D36
:10071000F9CF8091A000877FF5CF809120018F775E
:10072000809320010895809120018F7DF9CF8091E1
:100730002001877FF5CF1F93CF93DF93282F30E0E1
:10074000F901E259FD4F8491F901E85DFD4FD49123
:10075000F901EE51FE4FC491CC23A9F0162F81115F
:100760000E943403EC2FF0E0EE0FFF1FE853FE4F22
:10077000A591B4918FB7F894EC91111108C0D09560
:10078000DE23DC938FBFDF91CF911F910895DE2B85
:10079000F8CFCF93DF9390E0FC01E85DFD4F24910B
:1007A0008E519E4FFC0184918823C9F090E0880F00
:1007B000991FFC01E255FE4FA591B491FC01E8534D
:1007C000FE4FC591D49161110DC09FB7F8948C91E3
:1007D000209582238C938881282328839FBFDF91D3
:1007E000CF910895623051F49FB7F8943C91822FD5
:1007F000809583238C93E8812E2BEFCF8FB7F894CD
:10080000EC912E2B2C938FBFEACF3FB7F8948091B9
:10081000270390912803A0912903B0912A0326B5BC
:10082000A89B05C02F3F19F00196A11DB11D3FBF28
:10083000BA2FA92F982F8827BC01CD01620F711DF7
:10084000811D911D42E0660F771F881F991F4A95F1
:10085000D1F708958F929F92AF92BF92CF92DF927D
:10086000EF92FF924B015C010E9405046B017C0139
:100870000E9405046C197D098E099F09683E73402A
:1008800081059105A8F321E0821A9108A108B10819
:1008900088EEC80E83E0D81EE11CF11C811491047F
:1008A000A104B10429F7FF90EF90DF90CF90BF90A3
:1008B000AF909F908F9008958130910581F41092B0
:1008C000800082E080938100109285001092840065
:1008D000B19A80916F00826080936F00089582309A
:1008E000910569F41092900082E08093910010923B
:1008F00095001092940088BB809371000895833016
:10090000910569F41092A00082E08093A1001092FA
:10091000A5001092A40089BB809372000895892BD2
:1009200061F41092200182E0809321011092250150
:10093000109224018ABB809373000895AF92BF92F6
:10094000CF92DF92EF92FF920F931F93CF93DF939B
:100950006B017A01EC01C25EDC4F28813CE0389FDC
:100960008001399F100D1124A090B404B12C27FFF1
:100970001FC0FB011182108288818F5F888388816C
:100980009801280F311D87FD3A95F6012A153B0580
:100990001CF488818C30C4F180819181049680346C
:1009A0009C4908F473C0F60180819181049670C05F
:1009B00088819801280F311D87FD3A952A153B053E
:1009C000DCF68881A801480F511D87FD5A95FA0170
:1009D000EE0FFF1FE40FF51FEC5DFB4F808186FFDC
:1009E000CBCF8881F801E80FF11D87FDFA95CF0183
:1009F000EE0FFF1FE80FF91FEC5DFB4F808160E0F9
:100A00008F730E949B03B8CF808191812881A801B8
:100A1000420F511D27FD5A959A01FA01EE0FFF1F53
:100A2000E20FF31FEC5DFB4F21813281820F931F98
:100A3000F7019183808388819801280F311D87FDFC
:100A40003A95F901EE0FFF1FE20FF31FEC5DFB4F2C
:100A5000808186FF22C08881080F111D87FD1A95AD
:100A6000F801EE0FFF1FE00FF11FEC5DFB4F8081DF
:100A700061E08F73DF91CF911F910F91FF90EF9005
:100A8000DF90CF90BF90AF900C949B0380E49CE9E3
:100A9000F701918380838FEF8883DF91CF911F913E
:100AA0000F91FF90EF90DF90CF90BF90AF9008959F
:100AB00021E001C0220F6A95EAF7DC011C962C9315
:100AC0001C971A965C934E931997ED91FC910484B0
:100AD000F585E02D60E0199408950895DC01ED910D
:100AE000FC910684F785E02D41E0199581E090E0C6
:100AF0000895DC01ED91FC910684F785E02D40E03E
:100B00001994EF92FF920F931F93CF93DF938B0172
:100B100098E0899FB001112460648DE295E00E9405
:100B2000790583E790E00197F1F7E801085F1F4F2F
:100B30008BE9E82EF12C69918DE295E00E946E051B
:100B4000C7010197F1F7C017D107A9F7DF91CF913E
:100B50001F910F91FF90EF90089561E00E94790539
:100B60008BE39FE10197F1F708950F931F93CF93C4
:100B7000DF93EC01423018F08C8188608C834F83C6
:100B80006887222329F0413019F48C8184608C839A
:100B900064E670E080E090E00E942A046C8164FDCD
:100BA00057C0E881F9810684F785E02D42E063E0D3
:100BB000CE0119958BE496E40197F1F7E881F9816C
:100BC0000684F785E02D42E063E0CE01199503E548
:100BD00012E0C8010197F1F7E881F9810684F785F1
:100BE000E02D42E063E0CE011995C8010197F1F7CD
:100BF000E881F9810684F785E02D42E062E0CE01CC
:100C00001995C8010197F1F76C816062CE010E94CD
:100C100079058BEE90E00197F1F784E08D836CE02D
:100C2000CE010E947905CE010E94AD0582E08E833F
:100C300066E0CE010E947905E881F9810484F5859A
:100C4000E02D6FEFCE01DF91CF911F910F9119949D
:100C50006062CE010E9479058BE496E40197F1F77A
:100C60006C816062CE010E94790503E512E0C80143
:100C70000197F1F76C816062CE010E947905C1CFC6
:100C80000895089508952091F502260F3327331F04
:100C900021323105ECF420915103FC0190E080E019
:100CA000243069F082E00895A091F5022191AC0111
:100CB0004B525D4FA40FB52FB11D2C930196861793
:100CC00098F38091F502680F6093F50280E0089533
:100CD00081E008951092510381E0809350031092B7
:100CE0002B0361E084E10E949B0361E085E10E94A7
:100CF0009B03E9EBF0E080818E7F808380818D7F94
:100D0000808388E48093B80085E48093BC000895D4
:100D1000CF93DF9391E09093D4028823B9F0C091F0
:100D2000B800D091BA008091BC008A7B8093BC004F
:100D300060E084E10E949B0360E085E10E949B03E8
:100D40000E946A06D093BA00C093B800DF91CF9199
:100D50000895CF92DF92EF92FF920F931F93CF935C
:100D6000DF93D0917A0381E0D13208F09CC0C0912A
:100D700079030E9405046B017C018091510381116C
:100D80006CC082E08093510381E0809350038FEF29
:100D900080934F0310924E03D0934D03A9E5B3E027
:100DA000EDE2F3E080E0D8138DC010922C03809127
:100DB0002C03CC0FC82BC0932C0380912B038130C4
:100DC00009F084C010922B030E9405046B017C0182
:100DD00080912C038093BB00809153039091540326
:100DE000A0915503B0915603892B8A2B8B2BA1F030
:100DF0000E94050400915303109154032091550360
:100E0000309156036C197D098E099F090617170743
:100E10002807390708F442C08091BC0083FDD8CF71
:100E200085EC8093BC000E9405046B017C018091DD
:100E30005103823009F44CC080914F038F3F09F475
:100E400069C080914F03803209F466C080914F03DE
:100E5000803309F463C084E026C0809153039091ED
:100E60005403A0915503B0915603892B8A2B8B2BE9
:100E700009F483CF0E940504009153031091540399
:100E800020915503309156036C197D098E099F09F5
:100E9000061717072807390708F06FCF809152030C
:100EA0000E94880685E01092580310927A031092EF
:100EB0005703DF91CF911F910F91FF90EF90DF903B
:100EC000CF9008959D9191938F5F6DCF85EEA9CFBF
:100ED0008091530390915403A0915503B091560310
:100EE000892B8A2B8B2B09F4A2CF0E940504009139
:100EF00053031091540320915503309156036C19FC
:100F00007D098E099F09061717072807390708F07A
:100F10008ECFC4CF80E0C7CF82E0C5CF83E0C3CF00
:100F20000895E0911D0380911C03E81730F4F0E070
:100F3000EC54FD4F808190E008958FEF9FEF08956E
:100F400090911D0380911C032FEF3FEF981748F4F9
:100F5000E92FF0E0EC54FD4F208130E09F5F90934B
:100F60001D03C901089580911C0390911D03891BE5
:100F7000990B0895CF92DF92EF92FF920F931F93F8
:100F8000CF93DF937C01CB018A0120915703222369
:100F900089F0EB016B01C40ED51ECC15DD0569F09F
:100FA0006991D701ED91FC910190F081E02DC7018D
:100FB0001995F3CF642F0E944306C801DF91CF91AA
:100FC0001F910F91FF90EF90DF90CF900895CF93F6
:100FD000DF931F92CDB7DEB7698320915703222399
:100FE000F9F020917A03203258F021E030E0FC0142
:100FF0003383228390E080E00F90DF91CF910895BA
:1010000080915803E82FF0E0E75AFC4F99819083D4
:101010008F5F8093580380937A0381E090E0ECCF58
:1010200061E0CE0101960E944306F7CFFC012381C7
:101030002223F1F0262F61816095622360838281F3
:1010400091E0909357038093790310925803109284
:101050007A0388E194E00E94E7070E94A906282FFE
:1010600030E081E090E0232B11F090E080E00895E3
:1010700030E020E0F6CFEF92FF920F931F93CF93D3
:101080008C01FC0184E0C0E0262F30E060FF02C04C
:101090009589C92BB9017595679581503196811154
:1010A000F3CF413011F4F8014489F8016585C62B6E
:1010B000C42B7801FEE0EF0EF11CF80162896C2B65
:1010C000C7010E941608F801628960956C23C70168
:1010D000CF911F910F91FF90EF900C9416080F93F2
:1010E0001F93CF93DF93062F0F70423041F440E0FF
:1010F000602FDF91CF911F910F910C943B08142F1B
:10110000EC0170E084E0759567958A95E1F7CE0172
:101110000E943B08412F602FCE01EBCFFC0184855C
:101120008823A1F0218532852115310521F4611133
:1011300007C0158606C021303105D9F76111F9CFF6
:1011400085876585CF010E960C9416080895EF9259
:10115000FF920F931F93CF93DF93EC01062FF42E92
:10116000E22E8B85888B10921D0310921C03109227
:10117000580310927A030E946A068CE695E09093D9
:101180001B0380931A038DE695E0909319038093D7
:101190001803888911E010935703809379030E9404
:1011A000A90681111CC0198B88E194E00E94A00758
:1011B0008E878989882339F01F861C8260E0CE01E2
:1011C0000E960E9416082E2D4F2D602FCE01DF9116
:1011D000CF911F910F91FF90EF900C94B505198A54
:1011E000E8CF90E080E00895CF93DF9370E0FB01BB
:1011F000E259FD4F8491FB01E85DFD4FD4916E51A2
:101200007E4FFB01C491CC23A1F081110E943403D5
:10121000EC2FF0E0EE0FFF1FEC56FE4FA591B491BE
:10122000EC91ED2381E090E009F480E0DF91CF9133
:10123000089580E090E0FACF862F642F0C949B03F2
:10124000862F642F0C94C903FB0101900020E9F75D
:101250003197AF01461B570BDC01ED91FC910280E9
:10126000F381E02D1994CF93DF93BC018BE793E0DA
:101270000E942409EC0160E872E08BE793E00E9491
:1012800024098C0F9D1FDF91CF910895CF93DF9399
:1012900083E892E00E9433098091BB04803308F018
:1012A00043C061E089E10E94C9038091BB04282FFB
:1012B00030E0F901EE0FFF1FE20FF31FEC5DFB4F73
:1012C0009081907C996190831092BC041092BD042F
:1012D0002CE0622F0E94B30F829FB001112430E0F6
:1012E00020E0AB01420F531FFA01EE0FFF1FE40F86
:1012F000F51FEC5DFB4F908196FD08C02F5F3F4FBF
:101300002C30310571F790E00E945C04E091BB0441
:101310008E2F90E0FC01EE0FFF1FE80FF91FEC5D30
:10132000FB4F808180648083D0E0C0E0CE010E94CA
:101330008F0169E170E080E090E00E942A0421962C
:10134000C53BD10599F78BE892E00E94330961E033
:1013500088E10E949B0360E777E180E090E00E94D3
:101360002A0460E088E10E949B038091BB048033E3
:1013700008F043C061E089E10E94C9038091BB0489
:10138000282F30E0F901EE0FFF1FE20FF31FEC5D95
:10139000FB4F9081907C996190831092BC041092D5
:1013A000BD042CE0622F0E94B30F829FB001112474
:1013B00030E020E0AB01420F531FFA01EE0FFF1F98
:1013C000E40FF51FEC5DFB4F908196FD08C02F5F89
:1013D0003F4F2C30310571F790E00E945C04E091A2
:1013E000BB048E2F90E0FC01EE0FFF1FE80FF91FEA
:1013F000EC5DFB4F808180648083C4EBD0E0CE0144
:101400000E948F0169E170E080E090E00E942A0470
:101410002197A8F787E992E00E94330961E087E10C
:101420000E949B0368EB7BE080E090E00E942A042E
:1014300060E087E1DF91CF910C949B030E94CD1176
:1014400085ED8093BC008091530390915403A0914B
:101450005503B09156030796A11DB11D23E0B69523
:10146000A795979587952A95D1F72091BC0024FDE3
:1014700003C01092510308954091530350915403B7
:101480006091550370915603452B462B472B69F30A
:101490000097A105B10541F025E32A95F1F7000079
:1014A0000197A109B109E1CF809152030C948806FC
:1014B0001F920F920FB60F9211240BB60F922F931B
:1014C0003F934F935F936F937F938F939F93AF93CC
:1014D000BF93EF93FF938BE793E00E947402FF9119
:1014E000EF91BF91AF919F918F917F916F915F919C
:1014F0004F913F912F910F900BBE0F900FBE0F9009
:101500001F9018951F920F920FB60F9211240BB6D1
:101510000F922F938F939F93EF93FF93E0918B0301
:10152000F0918C038081E0919103F091920382FD10
:101530001DC09081809194038F5F8F7320919503DC
:10154000821741F0E0919403F0E0E558FC4F958F4D
:1015500080939403FF91EF919F918F912F910F9022
:101560000BBE0F900FBE0F901F9018958081F2CF89
:101570001F920F920FB60F9211242F933F938F93C8
:101580009F93AF93BF938091230390912403A091E5
:101590002503B09126033091220323E0230F2D373A
:1015A00058F50196A11DB11D2093220380932303BA
:1015B00090932403A0932503B093260380912703DF
:1015C00090912803A0912903B0912A030196A11DAF
:1015D000B11D8093270390932803A0932903B09310
:1015E0002A03BF91AF919F918F913F912F910F90BF
:1015F0000FBE0F901F90189526E8230F0296A11D8D
:10160000B11DD2CF1F920F920FB60F9211240BB6BD
:101610000F922F933F934F935F936F937F938F938B
:101620009F93AF93BF93EF93FF9348E251E064E23F
:1016300071E090E080E00E949E04FF91EF91BF91E5
:10164000AF919F918F917F916F915F914F913F915A
:101650002F910F900BBE0F900FBE0F901F901895FB
:101660001F920F920FB60F9211240BB60F922F9369
:101670003F934F935F936F937F938F939F93AF931A
:10168000BF93EF93FF9348EA50E064EA70E083E091
:1016900090E00E949E04FF91EF91BF91AF919F91C6
:1016A0008F917F916F915F914F913F912F910F900B
:1016B0000BBE0F900FBE0F901F9018951F920F92A8
:1016C0000FB60F9211240BB60F922F933F934F93A7
:1016D0005F936F937F938F939F93AF93BF93EF939A
:1016E000FF9348E950E064E970E082E090E00E94F6
:1016F0009E04FF91EF91BF91AF919F918F917F9148
:101700006F915F914F913F912F910F900BBE0F9072
:101710000FBE0F901F9018951F920F920FB60F9249
:1017200011240BB60F922F933F934F935F936F93B8
:101730007F938F939F93AF93BF93EF93FF9348E86B
:1017400050E064E870E081E090E00E949E04FF9128
:10175000EF91BF91AF919F918F917F916F915F9129
:101760004F913F912F910F900BBE0F900FBE0F9096
:101770001F9018951F920F920FB60F9211240BB65F
:101780000F922F933F934F935F936F937F938F931A
:101790009F93AF93BF93EF93FF938091B900887F9E
:1017A000803609F44DC008F040C0883209F4A9C061
:1017B00028F5803109F49DC0C8F4882309F4FBC0E2
:1017C000883009F496C0FF91EF91BF91AF919F913E
:1017D0008F917F916F915F914F913F912F910F90DA
:1017E0000BBE0F900FBE0F901F901895883109F413
:1017F00088C0803241F780934F0314C0803409F4CD
:101800009DC040F48033B9F38833E9F680934F03E9
:1018100085ECB0C0803509F485C0883509F496C0E0
:10182000883489F60E94200ACECF883909F48CC00A
:1018300038F5883729F050F4883611F0803719F6DA
:1018400083E0809351031092170357C0883809F43E
:101850007BC0803919F0803809F0B5CF809117032B
:10186000803208F071C0E091170381E08E0F809301
:1018700017038091BB00F0E0E950FD4F80833DC02D
:10188000803B39F0E0F4803A09F479C0883A09F0F5
:101890009ACF84E0809351031092F6021092F502E1
:1018A000E0911A03F0911B0319958091F5028111C3
:1018B0000FC081E08093F5021092D50209C0803CF0
:1018C00009F4A6CF883C09F4A3CF883B09F07BCF6D
:1018D000E091F60281E08E0F8093F602F0E0EB5289
:1018E000FD4F80818093BB009091F6028091F502BC
:1018F00029C080912C038093BB0085EC8093BC00B1
:1019000062CF90914E0380914D03981758F5E09166
:101910004E0381E08E0F80934E03F0E0E35DFC4FB9
:101920008081E9CFE0914E0381E08E0F80934E03DA
:101930008091BB00F0E0E35DFC4F808390914E030B
:1019400080914D039817C8F285E8D8CFE0914E03F7
:1019500081E08E0F80934E038091BB00F0E0E35D49
:10196000FC4F80838091500381115CCF81E0809394
:101970002B0384EA8093BC001092510324CF85ECA2
:101980008093BC001092510380911703803230F491
:10199000E0911703F0E0E950FD4F108260911703CA
:1019A00070E0E0911803F091190387EF92E0199528
:1019B0001092170308CF10924F0334CF10927E037A
:1019C00010927D0388EE93E0A0E0B0E080937F0367
:1019D00090938003A0938103B093820322E432E0CA
:1019E00030937C0320937B0325EC30E03093880315
:1019F0002093870324EC30E030938A0320938903FB
:101A000020EC30E030938C0320938B0321EC30E00A
:101A100030938E0320938D0322EC30E030939003BB
:101A200020938F0326EC30E03093920320939103B0
:101A300010929403109295031092960310929703BC
:101A400010921B0410921A0480931C0490931D049E
:101A5000A0931E04B0931F0484E592E090931904B0
:101A6000809318041092300510922F0580E792E0C1
:101A700090932E0580932D0510923D058FEF809356
:101A80003C0510923B0510923E0587E28093380595
:101A90001092390510923A051092370510923605CA
:101AA00084E080933F0582E08093400581E080934D
:101AB000410580E18093420580E28093430580E404
:101AC0008093440580E8809345051092C0041092ED
:101AD000C4041092C3041092C50486E692E0909369
:101AE000BF048093BE04EAEDF4E0108214821382F6
:101AF0001582369685E0E631F807B9F78CE192E079
:101B0000909321058093200588E192E0909323052E
:101B10008093220584E0809324058093250580E24C
:101B200092E090931F0580931E058AE090E09093C9
:101B300027058093260584EF91E0909329058093F3
:101B4000280510922C0510922B0510921A05109260
:101B50001B0510921C0510921D0510922A058091FC
:101B6000B404803308F042C091E0980F9093B4041D
:101B70008093BB0490E0FC01EE0FFF1FE80FF91FFC
:101B8000EC5DFB4F88EB9BE0928381831092B6045F
:101B90001092B5041092B8041092B7041092BA04CF
:101BA0001092B90461E070E090E080E00E94EC10D7
:101BB000009701F19093B6048093B5041092B80495
:101BC0001092B7042091B9043091BA04232B11F478
:101BD000FC0110821092BA041092B90462E872E01B
:101BE0008091B5049091B6040C94DB118FEF809333
:101BF000BB04CCCF8091B5049091B604009711F04E
:101C00000E9463101092B6041092B5041092BA04A8
:101C10001092B9041092B8041092B7040895CF93AB
:101C2000DF9300D000D01F921F92CDB7DEB778941B
:101C300084B5826084BD84B5816084BD85B58260D1
:101C400085BD85B5816085BD80916E008160809382
:101C50006E001092810080918100826080938100EB
:101C600080918100816080938100809180008160FB
:101C7000809380008091B10084608093B100809156
:101C8000B00081608093B000809191008260809369
:101C900091008091910081608093910080919000EB
:101CA0008160809390008091A10082608093A10068
:101CB0008091A10081608093A1008091A00081604B
:101CC0008093A00080912101826080932101809106
:101CD00021018160809321018091200181608093A6
:101CE000200180917A00846080937A0080917A004C
:101CF000826080937A0080917A00816080937A007C
:101D000080917A00806880937A001092C100E091FF
:101D10008B03F0918C0382E08083E0918703F09144
:101D200088031082E0918903F0918A038FEC80830D
:101D300010929303E0918F03F091900386E08083EB
:101D4000E0918D03F0918E03808180618083E0912A
:101D50008D03F0918E03808188608083E0918D03F4
:101D6000F0918E03808180688083E0918D03F091F3
:101D70008E0380818F7D808350E040E063E08DE2C0
:101D800095E00E94580561E08DE295E00E948E0882
:101D900020E042E060E18DE295E00E94A7088DE23C
:101DA00095E00E94AD0560E172E080E00E9481054F
:101DB00068E072E081E00E94810560E072E082E00C
:101DC0000E94810561E089E10E94C90361E088E128
:101DD0000E94C90361E087E10E94C90362E08DE2CD
:101DE00095E00E9479058BE39FE10197F1F78091DF
:101DF000360290913702A0913802B09139028D835A
:101E00009E83AF83B88780913A0290913B02A09164
:101E10003C02B0913D0289839A83AB83BC832091BD
:101E2000340581E0211180E0819590E03091350505
:101E30008C0F9D1FFC01303141F5243031F561815B
:101E40006F5F60688DE295E00E94790560E08DE249
:101E500095E00E946E0567EA72E08DE295E00E94CF
:101E6000240960E08DE295E00E946E0568E873E168
:101E700080E090E00E942A048DE295E00E94AD058A
:101E80000E9446090E940303FBCF6581D9CF809150
:101E9000B5049091B604009711F00C946310089566
:101EA000052E97FB1EF400940E94670F57FD07D084
:101EB0000E94820F07FC03D04EF40C94670F5095DC
:101EC0004095309521953F4F4F4F5F4F0895909526
:101ED0008095709561957F4F8F4F9F4F08950E9419
:101EE000A40FA59F900DB49F900DA49F800D911DF0
:101EF00011240895B7FF0C946F0F0E946F0F821B7F
:101F0000930B0895A1E21A2EAA1BBB1BFD010DC065
:101F1000AA1FBB1FEE1FFF1FA217B307E407F50799
:101F200020F0A21BB30BE40BF50B661F771F881F75
:101F3000991F1A9469F760957095809590959B010B
:101F4000AC01BD01CF010895A29FB001B39FC001B4
:101F5000A39F700D811D1124911DB29F700D811DD5
:101F60001124911D0895991B79E004C0991F9617BB
:101F700008F0961B881F7A95C9F780950895EE0F93
:101F8000FF1F881F8BBF0790F691E02D19940F93C8
:101F90001F93CF93DF938230910510F482E090E09D
:101FA000E0914805F091490530E020E0B0E0A0E084
:101FB000309799F42115310509F44AC0281B390BD3
:101FC00024303105D8F58A819B816115710589F12D
:101FD000FB0193838283FE0111C040815181028104
:101FE000138148175907E0F04817590799F41097DB
:101FF00061F012960C93129713961C933296CF01B0
:10200000DF91CF911F910F91089500934805109390
:102010004905F4CF2115310551F04217530738F027
:10202000A901DB019A01BD01DF01F801C1CFEF0178
:10203000F9CF9093490580934805CDCFFE01E20F7B
:10204000F31F819391932250310939832883D7CF8D
:102050002091460530914705232B41F4209132020F
:10206000309133023093470520934605209130028A
:10207000309131022115310541F42DB73EB7409121
:10208000340250913502241B350BE0914605F09146
:102090004705E217F307A0F42E1B3F0B281739075B
:1020A00078F0AC014E5F5F4F2417350748F04E0FB4
:1020B0005F1F5093470540934605819391939FCFAF
:1020C000F0E0E0E09CCFCF93DF930097E9F0FC01D4
:1020D000329713821282A0914805B0914905ED0113
:1020E00030E020E01097A1F420813181820F931F0E
:1020F00020914605309147052817390709F061C03E
:10210000F0934705E0934605DF91CF910895EA01EA
:10211000CE17DF07E8F54A815B819E014115510525
:10212000B1F7E901FB83EA8349915991C40FD51FA7
:10213000EC17FD0761F4808191810296840F951F51
:10214000E90199838883828193819B838A83F0E06C
:10215000E0E012968D919C9113970097B9F52D911F
:102160003C911197CD010296820F931F2091460555
:10217000309147052817390739F6309751F51092F5
:10218000490510924805B0934705A0934605BCCF7A
:10219000D383C28340815181840F951FC817D9070B
:1021A00061F44E5F5F4F88819981480F591F5183B9
:1021B00040838A819B81938382832115310509F0B5
:1021C000B0CFF0934905E09348059ECFFD01DC01B7
:1021D000C0CF13821282D7CF4F925F926F927F92BD
:1021E0008F929F92AF92BF92CF92DF92EF92FF9227
:1021F0000F931F93CF93DF938C01009799F4CB013A
:10220000DF91CF911F910F91FF90EF90DF90CF90D2
:10221000BF90AF909F908F907F906F905F904F9006
:102220000C94C70FFC01E60FF71F9C0122503109E7
:10223000E217F30708F4AEC0D901CD91DC911197F4
:10224000C617D70720F1C530D10578F0CE01049725
:102250008617970750F0C61BD70B2297C193D193CF
:102260006D937C93CF010E946310C801DF91CF91E1
:102270001F910F91FF90EF90DF90CF90BF90AF90A4
:102280009F908F907F906F905F904F9008955B012B
:10229000AC1ABD0A4C018C0E9D1EA0914805B09150
:1022A0004905512C412CF12CE12C109731F58091EE
:1022B0004605909147058815990509F05CC04616BA
:1022C000570608F058C08091300290913102009773
:1022D00041F48DB79EB74091340250913502841B72
:1022E000950BE817F90708F055C0F0934705E09300
:1022F0004605F90171836083B8CF8D919C91119748
:1023000012966C90129713967C901397A815B905A6
:1023100059F56C0142E0C40ED11CCA14DB0420F153
:10232000AC014A195B09DA011296159780F06282B6
:10233000738251834083D9016D937C93E114F1043E
:1023400071F0D7011396FC93EE9312978ECF2296DD
:102350008C0F9D1FF90191838083F301EFCFF093E0
:102360004905E093480581CF4816590608F42C0129
:102370007D01D3019ACFCB010E94C70F7C0100974A
:1023800049F0AE01B8010E94D211C8010E94631049
:1023900087016BCF10E000E068CF81E090E0F89417
:1023A0000C94E211FB01DC0102C001900D9241503E
:1023B0005040D8F70895FB01DC0101900D920020F8
:1023C000E1F7089511E0CBE5D1E000E006C0802FF1
:1023D000FE010E94BF0F2196011DCC35D10780E080
:0823E0000807A9F7F894FFCFEC
:1023E8001F15151F0E111F1F00110000110E0000F0
:1023F8001F11111F1F1F1F000607080902030405EC
:102408003738394134353642313233432A30234460
:1024180000004A058000004014540040105000009D
:102428000000960200022D02E3025E023C02500206
:1024380000000000E707BA07F1089007B307A007F4
:1024480091070000000020091C09F40800000000A2
:102458006E050002F1084206A70858058E086F08A5
:102468000D0A003E3E2048494748003E3E204C4564
:102478004420524F4A41003E3E204C454420414DA5
:102488004152494C4C4100204249454E56454E491F
:04249800444F20008D
:00000001FF
