:020000040000FA
:100000000C9462000C948A000C948A000C948A0070
:100010000C948A000C948A000C948A000C948A0038
:100020000C948A000C948A000C948A000C94E303CC
:100030000C948A000C948A000C948A000C948A0018
:100040000C9499030C948A000C9467030C9441035C
:100050000C948A000C948A000C948A000C948A00F8
:100060000C948A000C948A000000000024002700F1
:100070002A0000000000250028002B0000000000DE
:1000800023002600290004040404040404040202DA
:100090000202020203030303030301020408102007
:1000A0004080010204081020010204081020000012
:1000B0000008000201000003040700000000000027
:1000C00000009F0411241FBECFEFD8E0DEBFCDBFDC
:1000D00011E0A0E0B1E0E4EFFDE002C005900D9278
:1000E000AA33B107D9F722E0AAE3B1E001C01D921B
:1000F000A930B207E1F710E0C2E6D0E004C02197D2
:10010000FE010E94F206C136D107C9F70E94FC0425
:100110000C94F8060C9400008F929F92AF92BF92BD
:10012000FF920F931F93CF93DF938F3F980709F4AC
:1001300061C0853B910511F484EB90E0F0900602DC
:100140002BE02F1508F44CC02091080208E512E0BE
:10015000021B110927FD1395000F111F000F111F1E
:1001600020910702C8E8D0E0C21BD10927FDD39532
:10017000CC0FDD1FCC0FDD1F4E010D2E000CAA0889
:10018000BB089801012E000C440B550B28193909A6
:100190004A095B09DC010E94AD0624EB30E040E037
:1001A00050E00E948306820E931EA41EB51E8C167C
:1001B0009D062CF0E801801691060CF4E4012297CC
:1001C000CC0FDD1F2FB7F8948F2D90E0FC01EE0FC0
:1001D000FF1FE80FF91FEF51FE4FD283C1832FBFDE
:1001E000DF91CF911F910F91FF90BF90AF909F90A3
:1001F0008F90089590E080E0A1CFAF92BF92CF9210
:10020000DF92EF92FF920F931F93CF93DF936C01D6
:100210007B018B01040F151FEB015E01AE18BF08B7
:10022000C017D10759F06991D601ED91FC91019069
:10023000F081E02DC6010995892B79F7C501DF9181
:10024000CF911F910F91FF90EF90DF90CF90BF90D3
:10025000AF900895FC01538D448D252F30E0842FFD
:1002600090E0821B930B541710F0CF9608950197DE
:100270000895FC01918D828D981761F0A28DAE0FCB
:10028000BF2FB11D5D968C91928D9F5F9F73928F52
:1002900090E008958FEF9FEF0895FC01918D828D7E
:1002A000981731F0828DE80FF11D858D90E008954B
:1002B0008FEF9FEF0895FC01918D228D892F90E0A3
:1002C000805C9F4F821B91098F739927089584E466
:1002D00091E00E945B0121E0892B09F420E0822F4C
:1002E000089580E090E0892B29F00E946701811138
:1002F0000C9400000895FC01A48DA80FB92FB11D26
:10030000A35ABF4F2C91848D90E001968F7399274B
:10031000848FA689B7892C93A089B1898C91837029
:1003200080648C93938D848D981306C00288F38922
:10033000E02D80818F7D80830895EF92FF920F934F
:100340001F93CF93DF93EC0181E0888F9B8D8C8D81
:1003500098131AC0E889F989808185FF15C09FB775
:10036000F894EE89FF896083E889F9898081837038
:10037000806480839FBF81E090E0DF91CF911F91E7
:100380000F91FF90EF900895F62E0B8D10E00F5F08
:100390001F4F0F731127E02E8C8D8E110CC00FB6DE
:1003A00007FCFACFE889F989808185FFF5CFCE0176
:1003B0000E947B01F1CFEB8DEC0FFD2FF11DE35A75
:1003C000FF4FF0829FB7F8940B8FEA89FB898081F9
:1003D0008062CFCFCF93DF93EC01888D8823B9F073
:1003E000AA89BB89E889F9898C9185FD03C0808140
:1003F00086FD0DC00FB607FCF7CF8C9185FFF2CFBD
:10040000808185FFEDCFCE010E947B01E9CFDF9196
:10041000CF910895833081F028F4813099F08230B3
:10042000A9F008958730A9F08830C9F08430B1F47C
:10043000809180008F7D03C0809180008F778093B2
:100440008000089584B58F7784BD089584B58F7D2D
:10045000FBCF8091B0008F778093B000089580919A
:10046000B0008F7DF9CFCF93DF93282F30E0F901D3
:10047000E255FF4F8491F901E656FF4FD491F901FF
:10048000EA57FF4FC491CC23A1F081110E940A02C8
:10049000EC2FF0E0EE0FFF1FE458FF4FA591B49151
:1004A000EC91ED2381E090E009F480E0DF91CF91C1
:1004B000089580E090E0FACF1F93CF93DF93282F29
:1004C00030E0F901E255FF4F8491F901E656FF4F04
:1004D000D491F901EA57FF4FC491CC23A9F0162F0C
:1004E00081110E940A02EC2FF0E0EE0FFF1FEE5880
:1004F000FF4FA591B4918FB7F894EC91111108C0FA
:10050000D095DE23DC938FBFDF91CF911F910895AB
:10051000DE2BF8CFCF93DF9390E0FC01E656FF4F40
:1005200024918A579F4FFC0184918823D1F090E059
:10053000880F991FFC01E859FF4FA591B491FC0168
:10054000EE58FF4FC591D49161110EC09FB7F8943A
:100550008C91E22FE0958E238C932881E223E8830F
:100560009FBFDF91CF9108958FB7F894EC91E22B64
:10057000EC938FBFF6CF3FB7F894809140019091F4
:100580004101A0914201B091430126B5A89B05C04D
:100590002F3F19F00196A11DB11D3FBFBA2FA92F02
:1005A000982F8827BC01CD01620F711D811D911DFF
:1005B00042E0660F771F881F991F4A95D1F708956B
:1005C0008F929F92AF92BF92CF92DF92EF92FF9263
:1005D0004B015C010E94BB026B017C010E94BB02CB
:1005E0006C197D098E099F09683E7340810591054C
:1005F000A8F321E0821A9108A108B10888EEC80E7C
:1006000083E0D81EE11CF11C81149104A104B10403
:1006100029F7FF90EF90DF90CF90BF90AF909F9021
:100620008F900895892B79F41092800082E0809356
:1006300081001092850010928400B19A80916F0021
:10064000826080936F000895CF93DF93FC01019047
:100650000020E9F73197AF01481B590BBC0184E436
:1006600091E00E94FD00EC0142E050E062E171E0A7
:1006700084E491E00E94FD008C0F9D1FDF91CF91DB
:1006800008951F920F920FB60F9211242F933F934C
:100690004F935F936F937F938F939F93AF93BF938A
:1006A000EF93FF9384E491E00E947B01FF91EF912F
:1006B000BF91AF919F918F917F916F915F914F917A
:1006C0003F912F910F900FBE0F901F9018951F9282
:1006D0000F920FB60F9211242F938F939F93EF9346
:1006E000FF93E0915401F09155018081E0915A010E
:1006F000F0915B0182FD1BC0908180915D018F5F55
:100700008F7320915E01821741F0E0915D01F0E06E
:10071000EC5BFE4F958F80935D01FF91EF919F9170
:100720008F912F910F900FBE0F901F901895808181
:10073000F4CF1F920F920FB60F9211242F933F9375
:100740008F939F93AF93BF9380913C0190913D0114
:10075000A0913E01B0913F0130913B0123E0230F76
:100760002D3758F50196A11DB11D20933B018093B3
:100770003C0190933D01A0933E01B0933F018091D5
:10078000400190914101A0914201B0914301019635
:10079000A11DB11D8093400190934101A09342019E
:1007A000B0934301BF91AF919F918F913F912F9152
:1007B0000F900FBE0F901F90189526E8230F0296FA
:1007C000A11DB11DD2CF1F920F920FB60F9211240F
:1007D0002F933F934F935F936F937F938F939F9349
:1007E000AF93BF93CF93DF93EF93FF9380913A0141
:1007F000C0910502D0E087FF24C0109285001092BE
:10080000840080913A018F5F80933A0180913A0190
:10081000082E000C990B8C179D0724F480913A0147
:100820008C30C4F1809184009091850004968034CE
:100830009C4908F47AC080918400909185000496C8
:1008400076C080913A01082E000C990B8C179D07F9
:10085000C4F6E0913A018E2FEE0F990BFC01EE0FDA
:10086000FF1FE80FF91FEF51FE4F808186FFC9CFB0
:10087000E0913A018E2FEE0F990BFC01EE0FFF1F56
:10088000E80FF91FEF51FE4F808160E08F730E94E7
:100890005C02B7CF2091840030918500E0913A014D
:1008A0008E2FEE0F990BFC01EE0FFF1FE80FF91FC3
:1008B000EF51FE4F81819281820F931F90938900A7
:1008C00080938800E0913A018E2FEE0F990BFC0186
:1008D000EE0FFF1FE80FF91FEF51FE4F808186FFDB
:1008E00011C0E0913A018E2FEE0F990BFC01EE0F33
:1008F000FF1FE80FF91FEF51FE4F808161E08F73FA
:100900000E945C02FF91EF91DF91CF91BF91AF9177
:100910009F918F917F916F915F914F913F912F9117
:100920000F900FBE0F901F90189580E49CE9909354
:100930008900809388008FEF80933A01E3CF109273
:1009400047011092460188EE93E0A0E0B0E080936A
:10095000480190934901A0934A01B0934B0184E070
:1009600091E0909345018093440185EC90E0909351
:1009700051018093500184EC90E090935301809357
:10098000520180EC90E0909355018093540181ECEA
:1009900090E0909357018093560182EC90E0909301
:1009A00059018093580186EC90E090935B0180930D
:1009B0005A0110925D0110925E0110925F01109237
:1009C0006001809105028C3098F491E0980F90932B
:1009D00005028093060290E0FC01EE0FFF1FE80F76
:1009E000F91FEF51FE4F88EB9BE0928381830895BE
:1009F0008FEF809306020895789484B5826084BD59
:100A000084B5816084BD85B5826085BD85B5816012
:100A100085BD80916E00816080936E001092810090
:100A2000809181008260809381008091810081604B
:100A3000809381008091800081608093800080910C
:100A4000B10084608093B1008091B0008160809398
:100A5000B00080917A00846080937A0080917A005F
:100A6000826080937A0080917A00816080937A001E
:100A700080917A00806880937A001092C100E091A2
:100A80005401F091550182E08083E0915001F09192
:100A900051011082E0915201F09153018FEC80835B
:100AA00010925C01E0915801F091590186E0808339
:100AB000E0915601F0915701808180618083E0913F
:100AC0005601F0915701808188608083E091560142
:100AD000F0915701808180688083E0915601F09108
:100AE000570180818F7D808361E082E00E948A02CD
:100AF00061E084E00E948A0261E087E00E948A024D
:100B000060E08CE00E948A0261E088E00E948A0234
:100B1000C0E0D0E08CE00E943302019709F0E8C009
:100B200085E191E00E942403809106028C3008F058
:100B300043C061E082E00E948A0280910602282F71
:100B400030E0F901EE0FFF1FE20FF31FEF51FE4FF0
:100B50009081907C9260908310920702109208021C
:100B60002CE0622F0E94E606829FB001112430E043
:100B700020E0AB01420F531FFA01EE0FFF1FE40FFD
:100B8000F51FEF51FE4F908196FD08C02F5F3F4F3C
:100B90002C30310571F790E00E941203E0910602BB
:100BA0008E2F90E0FC01EE0FFF1FE80FF91FEF51B1
:100BB000FE4F80818064808310E000E0C8010E94C5
:100BC0008C0069E170E080E090E00E94E0020F5F3D
:100BD0001F4F053B110591F78DE191E00E94240321
:100BE00061E084E00E945C0201E717E18CE00E9472
:100BF0003302019749F461E070E080E090E00E94E8
:100C0000E0020150110991F760E084E00E945C026B
:100C1000809106028C3008F043C061E082E00E94BF
:100C20008A0280910602282F30E0F901EE0FFF1FA3
:100C3000E20FF31FEF51FE4F9081907C9260908302
:100C400010920702109208022CE0622F0E94E60622
:100C5000829FB001112430E020E0AB01420F531F0E
:100C6000FA01EE0FFF1FE40FF51FEF51FE4F9081C9
:100C700096FD08C02F5F3F4F2C30310571F790E093
:100C80000E941203E09106028E2F90E0FC01EE0F0D
:100C9000FF1FE80FF91FEF51FE4F808180648083B2
:100CA00004EB10E0C8010E948C0069E170E080E074
:100CB00090E00E94E00201501109A0F789E291E062
:100CC0000E94240361E088E00E945C0261E087E00A
:100CD0000E945C0268EB7BE080E090E00E94E00212
:100CE00060E088E00E945C0260E087E00E945C02B5
:100CF000209709F40FCF0E946701882309F40ACFD7
:100D00000E94000007CF052E97FB1EF400940E945E
:100D10009A0657FD07D00E94B50607FC03D04EF493
:100D20000C949A0650954095309521953F4F4F4F22
:100D30005F4F089590958095709561957F4F8F4F87
:100D40009F4F08950E94D706A59F900DB49F900DC8
:100D5000A49F800D911D11240895B7FF0C94A20645
:100D60000E94A206821B930B0895A1E21A2EAA1BD1
:100D7000BB1BFD010DC0AA1FBB1FEE1FFF1FA2174B
:100D8000B307E407F50720F0A21BB30BE40BF50B48
:100D9000661F771F881F991F1A9469F760957095D1
:100DA000809590959B01AC01BD01CF010895A29F54
:100DB000B001B39FC001A39F700D811D1124911D2F
:100DC000B29F700D811D1124911D0895991B79E02A
:100DD00004C0991F961708F0961B881F7A95C9F7CB
:100DE00080950895EE0FFF1F0590F491E02D099472
:100DF000F894FFCF000000009D01FD002A01EA01E8
:100E00005B0139014D010D0A003E3E20484947482B
:100E1000003E3E204C454420524F4A41003E3E2079
:0E0E20004C454420414D4152494C4C4100008C
:107E0000112484B714BE81FFF0D085E080938100F7
:107E100082E08093C00088E18093C10086E0809377
:107E2000C20080E18093C4008EE0C9D0259A86E02C
:107E300020E33CEF91E0309385002093840096BBD3
:107E4000B09BFECF1D9AA8958150A9F7CC24DD24C4
:107E500088248394B5E0AB2EA1E19A2EF3E0BF2EE7
:107E6000A2D0813461F49FD0082FAFD0023811F036
:107E7000013811F484E001C083E08DD089C08234E0
:107E800011F484E103C0853419F485E0A6D080C0E4
:107E9000853579F488D0E82EFF2485D0082F10E0AE
:107EA000102F00270E291F29000F111F8ED06801E7
:107EB0006FC0863521F484E090D080E0DECF843638
:107EC00009F040C070D06FD0082F6DD080E0C81688
:107ED00080E7D80618F4F601B7BEE895C0E0D1E017
:107EE00062D089930C17E1F7F0E0CF16F0E7DF06D8
:107EF00018F0F601B7BEE89568D007B600FCFDCFD4
:107F0000A601A0E0B1E02C9130E011968C91119780
:107F100090E0982F8827822B932B1296FA010C0160
:107F200087BEE89511244E5F5F4FF1E0A038BF0790
:107F300051F7F601A7BEE89507B600FCFDCF97BE46
:107F4000E89526C08437B1F42ED02DD0F82E2BD052
:107F50003CD0F601EF2C8F010F5F1F4F84911BD097
:107F6000EA94F801C1F70894C11CD11CFA94CF0C13
:107F7000D11C0EC0853739F428D08EE10CD085E9AC
:107F80000AD08FE07ACF813511F488E018D01DD067
:107F900080E101D065CF982F8091C00085FFFCCF94
:107FA0009093C60008958091C00087FFFCCF809118
:107FB000C00084FD01C0A8958091C6000895E0E648
:107FC000F0E098E1908380830895EDDF803219F02E
:107FD00088E0F5DFFFCF84E1DECF1F93182FE3DFCA
:107FE0001150E9F7F2DF1F91089580E0E8DFEE27F6
:047FF000FF270994CA
:027FFE00040479
:00000001FF
