:100000000C945E000C9486000C9486000C94860080
:100010000C9486000C9486000C9486000C94630269
:100020000C9486000C9486000C9486000C9461035A
:100030000C9486000C9486000C9486000C94860028
:100040000C9417030C9486000C94E5020C94BF02E8
:100050000C9486000C9486000C9486000C94860008
:100060000C9486000C9486000000000024002700F9
:100070002A0000000008000201000003040700003D
:10008000000000000000010204081020408001026E
:1000900004081020010204081020000000002500C0
:1000A00028002B00040404040404040402020202D5
:1000B000020203030303030302001D0411241FBEF5
:1000C000CFEFD8E0DEBFCDBF11E0A0E0B1E0E6EBBE
:1000D000F2E102C005900D92AC34B107D9F722E0ED
:1000E000ACE4B1E001C01D92AC32B207E1F710E020
:1000F000CEE5D0E004C02197FE010E945309CD3522
:10010000D107C9F70E947A040C9459090C94000095
:10011000AF92BF92CF92DF92EF92FF920F931F9315
:10012000CF93DF936C017B018B01040F151FEB0153
:100130005E01AE18BF08C017D10759F06991D6010A
:10014000ED91FC910190F081E02DC6010995892B7C
:1001500079F7C501DF91CF911F910F91FF90EF903B
:10016000DF90CF90BF90AF900895FC01538D448DE8
:10017000252F30E0842F90E0821B930B541710F052
:10018000CF96089501970895FC01918D828D98175F
:1001900061F0A28DAE0FBF2FB11D5D968C91928D37
:1001A0009F5F9F73928F90E008958FEF9FEF089568
:1001B000FC01918D828D981731F0828DE80FF11D31
:1001C000858D90E008958FEF9FEF0895FC01918D4C
:1001D000228D892F90E0805C9F4F821B91098F7345
:1001E0009927089587E691E00E94E60021E0892B97
:1001F00009F420E0822F089580E090E0892B29F017
:100200000E94F20081110C9400000895FC01A48D5D
:10021000A80FB92FB11DA35ABF4F2C91848D90E028
:1002200001968F739927848FA689B7892C93A0890B
:10023000B1898C91837080648C93938D848D981395
:1002400006C00288F389E02D80818F7D8083089528
:10025000EF92FF920F931F93CF93DF93EC0181E016
:10026000888F9B8D8C8D98131AC0E889F9898081BD
:1002700085FF15C09FB7F894EE89FF896083E889F0
:10028000F98980818370806480839FBF81E090E0E2
:10029000DF91CF911F910F91FF90EF900895F62E6F
:1002A0000B8D10E00F5F1F4F0F731127E02E8C8D09
:1002B0008E110CC00FB607FCFACFE889F98980814E
:1002C00085FFF5CFCE010E940601F1CFEB8DEC0F3B
:1002D000FD2FF11DE35AFF4FF0829FB7F8940B8F6B
:1002E000EA89FB8980818062CFCFCF93DF93EC01D5
:1002F000888D8823B9F0AA89BB89E889F9898C910E
:1003000085FD03C0808186FD0DC00FB607FCF7CFC9
:100310008C9185FFF2CF808185FFEDCFCE010E94C9
:100320000601E9CFDF91CF91089590E0FC01EE58EE
:10033000FF4F2491FC01EA57FF4F3491FC01EC552B
:10034000FF4FE491EE23C9F0222339F0233001F16D
:10035000A8F4213019F1223029F1F0E0EE0FFF1F4F
:10036000E656FF4FA591B4918FB7F894EC916111C7
:1003700026C030953E233C938FBF08952730A9F0C7
:100380002830C9F0243049F7809180008F7D03C068
:10039000809180008F7780938000DFCF84B58F7746
:1003A00084BDDBCF84B58F7DFBCF8091B0008F778C
:1003B0008093B000D2CF8091B0008F7DF9CF3E2BDB
:1003C000DACF9091000189130BC0E8EBF0E0E491E3
:1003D0009FEF90930001E13049F028F0E23061F0A6
:1003E00060E00C94950110926E00FACF90916F002E
:1003F0009D7F90936F00F4CF909170009D7F9093BC
:10040000700091E09093B0009091B100987F94605B
:100410009093B1001092B300E3CFCF93DF9390E0BD
:10042000FC01EA57FF4F24918C559F4FFC018491AA
:100430008823D1F090E0880F991FFC01E859FF4F05
:10044000A591B491FC01E656FF4FC591D49161117D
:100450000EC09FB7F8948C91E22FE0958E238C9379
:100460002881E223E8839FBFDF91CF9108958FB762
:10047000F894EC91E22BEC938FBFF6CF3FB7F89452
:100480008091520190915301A0915401B091550176
:1004900026B5A89B05C02F3F19F00196A11DB11DDF
:1004A0003FBFBA2FA92F982F8827BC01CD01620F1B
:1004B000711D811D911D42E0660F771F881F991FD6
:1004C0004A95D1F708951F920F920FB60F921124FB
:1004D0002F933F934F935F936F937F938F939F934C
:1004E000AF93BF93EF93FF9380915B0190915C0179
:1004F000A0915D01B0915E01892B8A2B8B2BD1F1EC
:1005000090915601E0915701F0915801808189271F
:10051000808380915B0190915C01A0915D01B0911D
:100520005E01181619061A061B069CF480915B01E1
:1005300090915C01A0915D01B0915E010197A109CC
:10054000B10980935B0190935C01A0935D01B0932E
:100550005E01FF91EF91BF91AF919F918F917F913C
:100560006F915F914F913F912F910F900FBE0F9020
:100570001F901895809100010E94E101EACF1F921F
:100580000F920FB60F9211242F933F934F935F93C7
:100590006F937F938F939F93AF93BF93EF93FF934B
:1005A00087E691E00E940601FF91EF91BF91AF9124
:1005B0009F918F917F916F915F914F913F912F917B
:1005C0000F900FBE0F901F9018951F920F920FB6AD
:1005D0000F9211242F938F939F93EF93FF93E091AA
:1005E0007701F09178018081E0917D01F0917E01A9
:1005F00082FD1BC09081809180018F5F8F7320915D
:100600008101821741F0E0918001F0E0E959FE4F4D
:10061000958F80938001FF91EF919F918F912F9102
:100620000F900FBE0F901F9018958081F4CF1F92EE
:100630000F920FB60F9211242F933F938F939F9396
:10064000AF93BF9380914E0190914F01A0915001C3
:10065000B091510130914D0123E0230F2D3758F512
:100660000196A11DB11D20934D0180934E019093E1
:100670004F01A0935001B09351018091520190918C
:100680005301A0915401B09155010196A11DB11DD6
:100690008093520190935301A0935401B09355015C
:1006A000BF91AF919F918F913F912F910F900FBE6E
:1006B0000F901F90189526E8230F0296A11DB11DDB
:1006C000D2CF1F920F920FB60F9211242F933F9308
:1006D0004F935F936F937F938F939F93AF93BF934A
:1006E000CF93DF93EF93FF9380914C01C091280249
:1006F000D0E087FF24C01092850010928400809182
:100700004C018F5F80934C0180914C01082E000CAE
:10071000990B8C179D0724F480914C018C30C4F107
:100720008091840090918500049680349C4908F45F
:100730007AC08091840090918500049676C0809163
:100740004C01082E000C990B8C179D07C4F6E09104
:100750004C018E2FEE0F990BFC01EE0FFF1FE80FDF
:10076000F91FEC5FFD4F808186FFC9CFE0914C01FE
:100770008E2FEE0F990BFC01EE0FFF1FE80FF91FF4
:10078000EC5FFD4F808160E08F730E949501B7CFD1
:100790002091840030918500E0914C018E2FEE0F66
:1007A000990BFC01EE0FFF1FE80FF91FEC5FFD4FE7
:1007B00081819281820F931F90938900809388009A
:1007C000E0914C018E2FEE0F990BFC01EE0FFF1FF5
:1007D000E80FF91FEC5FFD4F808186FF11C0E091AB
:1007E0004C018E2FEE0F990BFC01EE0FFF1FE80F4F
:1007F000F91FEC5FFD4F808161E08F730E949501CE
:10080000FF91EF91DF91CF91BF91AF919F918F9128
:100810007F916F915F914F913F912F910F900FBEFC
:100820000F901F90189580E49CE990938900809325
:1008300088008FEF80934C01E3CF10926A011092F1
:10084000690188EE93E0A0E0B0E080936B019093A3
:100850006C01A0936D01B0936E018DE391E09093D4
:1008600068018093670185EC90E090937401809318
:10087000730184EC90E0909376018093750180EC95
:1008800090E0909378018093770181EC90E09093D1
:100890007A018093790182EC90E090937C018093BF
:1008A0007B0186EC90E090937E0180937D01109215
:1008B0008001109281011092820110928301809137
:1008C00028028C3098F491E0980F9093280280933E
:1008D000290290E0FC01EE0FFF1FE80FF91FEC5F0B
:1008E000FD4F88EB9BE09283818308958FEF809387
:1008F00029020895CF93DF93CDB7DEB729970FB6BE
:10090000F894DEBF0FBECDBF789484B5826084BDFD
:1009100084B5816084BD85B5826085BD85B5816003
:1009200085BD80916E00816080936E001092810081
:10093000809181008260809381008091810081603C
:1009400080938100809180008160809380008091FD
:10095000B10084608093B1008091B0008160809389
:10096000B00080917A00846080937A0080917A0050
:10097000826080937A0080917A00816080937A000F
:1009800080917A00806880937A001092C100E09193
:100990007701F091780182E08083E0917301F0911A
:1009A00074011082E0917501F09176018FEC8083E3
:1009B00010927F01E0917B01F0917C0186E08083C1
:1009C000E0917901F0917A01808180618083E091EA
:1009D0007901F0917A01808188608083E0917901CA
:1009E000F0917A01808180688083E0917901F091B3
:1009F0007A0180818F7D808361E082E00E940D0218
:100A000061E084E00E940D0261E087E00E940D0237
:100A100060E08CE00E940D0261E088E00E940D021F
:100A20008DE191E09A838983E1E0F1E0F887EF833B
:100A3000E981FA8161917191FA83E98388EE93E00B
:100A40000E9424098B012B01770F66087708EF813C
:100A5000F88521903190F887EF83809100018830EC
:100A600009F07CC0E8EBF0E0F491F987F7FD61C193
:100A700061E088E00E940D02F985FF2321F02985BD
:100A8000223009F089C14101B12CA12C60E072E152
:100A90008AE790E0A50191010E94A3072B833C8384
:100AA0004D835E8369017A0181E0C81AD108E108AB
:100AB000F1089FEFC916D104E104F10409F00CF428
:100AC00010C160E472E48FE090E0A50191010E9402
:100AD000A30769017A01E1E0CE1AD108E108F10823
:100AE000F985F23009F0B1C082E02FEFC216D104CF
:100AF000E104F10409F00CF4DFC160E970ED83E07A
:100B000090E0A50191010E94A30769017A0181E0AB
:100B1000C81AD108E108F10883E09FEFC916D10493
:100B2000E104F10409F00CF4C7C168E478EE81E057
:100B300090E0A50191010E94A30769017A01F1E00B
:100B4000CF1AD108E108F1082FEFC216D104E10451
:100B5000F10411F00CF09DC084E0AEC18F3F09F0AC
:100B6000E8C088E080930001E8EBF0E0F491F987B9
:100B7000FF3F09F4DEC0F13031F158F0F23009F4F2
:100B800041C0F985F7FDD5C061E088E00E940D0203
:100B900076CF14BC15BC84B5826084BD85B58160F8
:100BA00085BDECEAF0E08491E82FF0E0EE0FFF1F46
:100BB000E656FF4F85919491EEE8F0E084918093A2
:100BC0005A01198655CF10928000109281008091B1
:100BD0008100886080938100809181008160809392
:100BE0008100ECEAF0E08491E82FF0E0EE0FFF1FC7
:100BF000E656FF4F85919491EEE8F0E08491809362
:100C0000590136CF1092B0001092B1008091B0001F
:100C100082608093B0008091B10081608093B100C8
:100C2000ECEAF0E08491E82FF0E0EE0FFF1FE656CB
:100C3000FF4F859194919093580180935701EEE86E
:100C4000F0E084918093560113CFEFEFCE16D104DC
:100C5000E104F10409F00CF49DC068E478EE81E051
:100C600090E0A50191010E94A30769017A01F1E0DA
:100C7000CF1AD108E108F1082985222309F43EC1E1
:100C8000EFEFCE16D104E104F10411F00CF03FC1F6
:100C900063CF64E274EF80E090E0A50194010E94CC
:100CA000A30769017A0181E0C81AD108E108F108B7
:100CB00085E09FEFC916D104E104F10409F008F4BE
:100CC000FBC062E17AE780E090E0A50194010E9418
:100CD000A30769017A0181E0C81AD108E108F10887
:100CE00028C181E029852111E7C095B5987F892B1E
:100CF00085BD2FEF3FEFA901411451046104710438
:100D000009F074C08985813009F48EC0823009F4FD
:100D10009DC081110EC0C7BC209363013093640154
:100D2000409365015093660180916E0082608093CC
:100D30006E00C301B2010E942B0823E333E343EBAF
:100D40005FE30E948F080E94F3076B01770FEE08A4
:100D5000FF080E943E024B015C01C114D104E10472
:100D6000F10409F483C00E943E02681979098A09D6
:100D70009B09683E73408105910578F391E0C91A9B
:100D8000D108E108F108E8EE8E0EE3E09E1EA11CFA
:100D9000B11CE3CF82E0A6CFB12CA12C60E072E1C0
:100DA0008AE790E0A50191010E94A30769017A01F9
:100DB00081E0C81AD108E108F108C114D10491E01A
:100DC000E906F10404F591E0F985F13009F091CFDD
:100DD00080918100887F892B809381002FEF3FEFE6
:100DE000A9014114510461047104F1F09101220F31
:100DF000331FD8010E94380928EE33E040E050E06C
:100E00000E94C2077FCF68E478EE81E090E0A50100
:100E100091010E94A30769017A01E1E0CE1AD1088D
:100E2000E108F10893E0D0CFD0928900C092880009
:100E300020935F0130936001409361015093620100
:100E400080916F00826080936F0073CFC092B30077
:100E500020935B0130935C0140935D0150935E01F0
:100E60008091700082608093700063CF88E00E9460
:100E7000E10189819A818953914009F0D9CD00E03F
:100E800010E001151105E9F30E94F2008823C9F36F
:100E90000E940000F6CFCB80DC80ED80FE809AE0DF
:100EA000F594E794D794C7949A95D1F721E0C21AA4
:100EB000D108E108F10887E09091B100987F892B73
:100EC0008093B10016CF84E0EFEFCE16D104E10499
:100ED000F10409F008F409CFCB80DC80ED80FE80BE
:100EE0008AE0F594E794D794C7948A95D1F791E076
:100EF000C91AD108E108F10885E0F7CE83E09FEF39
:100F0000C916D104E104F10409F00CF4EECE62E15B
:100F10007AE780E090E0A50194010E94A3076901AF
:100F20007A01E1E0CE1AD108E108F108F985FF2342
:100F300051F28FEFC816D104E104F10411F008F06A
:100F4000AACF86E0B9CF052E97FB1EF400940E942D
:100F5000BA0757FD07D00E94C20707FC03D04EF422
:100F60000C94BA0750954095309521953F4F4F4FBF
:100F70005F4F089590958095709561957F4F8F4F45
:100F80009F4F0895A1E21A2EAA1BBB1BFD010DC0A5
:100F9000AA1FBB1FEE1FFF1FA217B307E407F50729
:100FA00020F0A21BB30BE40BF50B661F771F881F05
:100FB000991F1A9469F760957095809590959B019B
:100FC000AC01BD01CF010895A29FB001B39FC00144
:100FD000A39F700D811D1124911DB29F700D811D65
:100FE0001124911D08950E94FA076894B1110C9480
:100FF000890808950E946E0888F09F5798F0B92FCD
:101000009927B751B0F0E1F0660F771F881F991F3D
:101010001AF0BA95C9F714C0B13091F00E9488084F
:10102000B1E008950C948808672F782F8827B85F5F
:1010300039F0B93FCCF3869577956795B395D9F795
:101040003EF490958095709561957F4F8F4F9F4F9F
:101050000895E89409C097FB3EF4909580957095AB
:1010600061957F4F8F4F9F4F9923A9F0F92F96E9F4
:10107000BB279395F695879577956795B795F11169
:10108000F8CFFAF4BB0F11F460FF1BC06F5F7F4F06
:101090008F4F9F4F16C0882311F096E911C0772318
:1010A00021F09EE8872F762F05C0662371F096E821
:1010B000862F70E060E02AF09A95660F771F881FF0
:1010C000DAF7880F9695879597F9089557FD905808
:1010D000440F551F59F05F3F71F04795880F97FBFC
:1010E000991F61F09F3F79F08795089512161306B6
:1010F0001406551FF2CF4695F1DF08C016161706E5
:101100001806991FF1CF8695710561050894089519
:10111000E894BB2766277727CB0197F908950E94AB
:10112000A2080C9413090E94050938F00E940C09CA
:1011300020F0952311F00C94FC080C940209112462
:101140000C9489080E94660870F3959FC1F3950F6F
:1011500050E0551F629FF001729FBB27F00DB11D3B
:10116000639FAA27F00DB11DAA1F649F6627B00DCB
:10117000A11D661F829F2227B00DA11D621F739FB4
:10118000B00DA11D621F839FA00D611D221F749FC2
:101190003327A00D611D231F849F600D211D822F09
:1011A000762F6A2F11249F5750409AF0F1F0882330
:1011B0004AF0EE0FFF1FBB1F661F771F881F91505D
:1011C0005040A9F79E3F510580F00C94FC080C9408
:1011D00089085F3FE4F3983ED4F386957795679549
:1011E000B795F795E7959F5FC1F7FE2B880F911D87
:1011F0009695879597F9089597F99F6780E870E02D
:1012000060E008959FEF80EC089500240A9416167C
:10121000170618060906089500240A9412161306E4
:10122000140605060895092E0394000C11F4882372
:1012300052F0BB0F40F4BF2B11F460FF04C06F5F8E
:101240007F4F8F4F9F4F089597FB072E16F4009402
:1012500007D077FD09D00E943F0907FC05D03EF476
:10126000909581959F4F0895709561957F4F089552
:101270000E94E407B7FF0895821B930B0895AA1BF1
:10128000BB1B51E107C0AA1FBB1FA617B70710F071
:10129000A61BB70B881F991F5A95A9F780959095A3
:1012A000BC01CD010895EE0FFF1F0590F491E02DD4
:0612B0000994F894FFCF41
:1012B600FF0601060188018801B801B80188015DB1
:1012C600015D014A014A01260126010601020002CA
:1012D60000020002000200020004000200020002F6
:1012E600000200020002000400000000002801883D
:0C12F60000B5007501E600C400D800003F
:00000001FF
