:020000040000FA
:100000000C945C010C948D010C948D010C948D0169
:100010000C948D010C948D010C948D010C948D0128
:100020000C948D010C948D010C948D010C948D0118
:100030000C948D010C948D010C948D010C948D0108
:100040000C948D010C94E20B0C948D010C948D0199
:100050000C948D010C948D010C948D010C940E0B5D
:100060000C948D010C94D80A0C94AE0A0C948D015A
:100070000C948D010C948D010C948D010C948D01C8
:100080000C94B40B0C948D010C948D010C948D0187
:100090000C948D010C948D010C948D010C94100C1A
:1000A0000C948D010C948D010C94860B0C948D0195
:1000B0000C948D010C948D010C948D010C94580BB3
:1000C0000C948D010C948D010C948D010C948D0178
:1000D0000C948D010C948D010C948D010C948D0168
:1000E0000C948D010C94B2060C9498050C94230882
:1000F0000C9489030C9458030C9467030C948D039F
:100100000C947B030C9493030C94FE080C949605BA
:100110000C9492030C9457080C946B090C9496025F
:100120000C942D020C94E3020C9485030C94970517
:100130000C947F030C9464090C9400080C94DF0861
:100140000C9497030C945E020C946D030C940002C3
:100150000C9452030C944E0F0C9461090C94340DC2
:100160000C9482050C9460030C9477030C94710337
:100170000C9401080C942A080C9464030C945C03FE
:100180000C943C020C9450020C9467090C941008D7
:100190000C94170900002100240027002A002D00DC
:1001A0003000330001010000040107010A010000D2
:1001B0002200250028002B002E003100340002010F
:1001C0000000050108010B010000200023002600AB
:1001D00029002C002F00320000010000030106015D
:1001E00009010505050507050808080802020202BD
:1001F0000A0A0808040404040101010101010101C3
:100200000303030303030303040707070C0C0C0C8D
:100210000C0C0C0C02020202060606060606060676
:100220000B0B0B0B0B0B0B0B010210202008081003
:100230002040102040800201020108040201010256
:10024000040810204080804020100804020180042F
:10025000020180402010080402010804020101028A
:100260000408102040800102040810204080000093
:100270000A0B02090C0D0E08070304010000000020
:10028000000000000000000000000000000000006E
:10029000000000000000000000001211100000002B
:1002A000000000000000000000000000000000004E
:1002B00000000000340D4E0F11241FBECFEFD1E21D
:1002C000DEBFCDBF00E00CBF12E0A0E0B2E0E4ED85
:1002D000F3E200E00BBF02C007900D92AC39B1070A
:1002E000D9F725E0ACE9B2E001C01D92A433B20712
:1002F000E1F711E0CBE5D1E000E006C0219701096C
:10030000802FFE010E94B50FCA35D10780E0080793
:10031000A9F70E94250E0C94D8110C9400008F921E
:100320009F92AF92BF92FF920F931F93CF93DF9351
:100330008F3F980709F461C0853B910511F484EB68
:1003400090E0F090A5042FE22F1508F44CC0209106
:10035000A70408E512E0021B110927FD1395000F01
:10036000111F000F111F2091A604C8E8D0E0C21B86
:10037000D10927FDD395CC0FDD1FCC0FDD1F4E011A
:100380000D2E000CAA08BB089801012E000C440B8E
:10039000550B281939094A095B09DC010E947C0FB9
:1003A00024EB30E040E050E00E94520F820E931E9A
:1003B000A41EB51E8C169D062CF0E8018016910631
:1003C0000CF4E4012297CC0FDD1F2FB7F8948F2D8A
:1003D00090E0FC01EE0FFF1FE80FF91FE25FFB4FFB
:1003E000D283C1832FBFDF91CF911F910F91FF90D7
:1003F000BF90AF909F908F90089590E080E0A1CF44
:10040000AF92BF92CF92DF92EF92FF920F931F9322
:10041000CF93DF936C017B018B01040F151FEB0160
:100420005E01AE18BF08C017D10759F06991D60117
:10043000ED91FC910190F081E02DC6011995892B79
:1004400079F7C501DF91CF911F910F91FF90EF9048
:10045000DF90CF90BF90AF900895FC01538D448DF5
:10046000252F30E0842F90E0821B930B541710F05F
:10047000CF96089501970895FC01918D828D98176C
:1004800061F0A28DAE0FBF2FB11D5D968C91928D44
:100490009F5F9F73928F90E008958FEF9FEF089575
:1004A000FC01918D828D981731F0828DE80FF11D3E
:1004B000858D90E008958FEF9FEF0895FC01918D59
:1004C000228D892F90E0805C9F4F821B91098F7352
:1004D0009927089585E693E00E945E0221E0892B2A
:1004E00009F420E0822F0895FC01A48DA80FB92FF4
:1004F000B11DA35ABF4F2C91848D90E001968F734C
:100500009927848FA689B7892C93A089B1898C916A
:10051000837080648C93938D848D981306C00288B9
:10052000F389E02D80818F7D80830895EF92FF9283
:100530000F931F93CF93DF93EC0181E0888F9B8D06
:100540008C8D98131AC0E889F989808185FF15C0C0
:100550009FB7F894EE89FF896083E889F9898081E3
:100560008370806480839FBF81E090E0DF91CF91B2
:100570001F910F91FF90EF900895F62E0B8D10E0D4
:100580000F5F1F4F0F731127E02E8C8D8E110CC043
:100590000FB607FCFACFE889F989808185FFF5CF8E
:1005A000CE010E947402F1CFEB8DEC0FFD2FF11DF7
:1005B000E35AFF4FF0829FB7F8940B8FEA89FB89CB
:1005C00080818062CFCFCF93DF93EC01888D882329
:1005D000B9F0AA89BB89E889F9898C9185FD03C0A6
:1005E000808186FD0DC00FB607FCF7CF8C9185FF8B
:1005F000F2CF808185FFEDCFCE010E947402E9CF5A
:10060000DF91CF91089580E090E0892B29F00E943E
:100610006A0281110E94000080E090E0892B49F07D
:1006200080E090E0892B29F00E94000081110E9457
:10063000000080E090E0892B49F080E090E0892B79
:1006400029F00E94000081110E94000080E090E0EB
:10065000892B49F080E090E0892B29F00E9400006E
:1006600081110C94000008958150823108F05AC025
:10067000E82FF0E08827E05CFC4F8F4F0C94B50F1B
:1006800060036403520358035C03920367036D0322
:10069000710377037B037F038503890392038D0333
:1006A00093039703809180008F7780938000089553
:1006B000809180008F7DF9CF80918000877FF5CF7A
:1006C00084B58F7784BD089584B58F7DFBCF8091ED
:1006D000B0008F778093B00008958091B0008F7D37
:1006E000F9CF809190008F7780939000089580914A
:1006F00090008F7DF9CF80919000877FF5CF80911A
:10070000A0008F778093A00008958091A0008F7D36
:10071000F9CF8091A000877FF5CF809120018F775E
:10072000809320010895809120018F7DF9CF8091E1
:100730002001877FF5CFCF93DF93282F30E0F90199
:10074000E259FD4F8491F901E85DFD4FD491F90123
:10075000EE51FE4FC491CC23A1F081110E943403CD
:10076000EC2FF0E0EE0FFF1FE853FE4FA591B49180
:10077000EC91ED2381E090E009F480E0DF91CF91EE
:10078000089580E090E0FACF1F93CF93DF93282F56
:1007900030E0F901E259FD4F8491F901E85DFD4F28
:1007A000D491F901EE51FE4FC491CC23A9F0162F3C
:1007B00081110E943403EC2FF0E0EE0FFF1FE25591
:1007C000FE4FA591B4918FB7F894EC91111108C028
:1007D000D095DE23DC938FBFDF91CF911F910895D9
:1007E000DE2BF8CFCF93DF9390E0FC01E85DFD4F67
:1007F00024918E519E4FFC0184918823C9F090E092
:10080000880F991FFC01EC56FE4FA591B491FC0195
:10081000E255FE4FC591D49161110DC09FB7F89478
:100820008C91209582238C938881282328839FBFD5
:10083000DF91CF910895623051F49FB7F8943C91C5
:10084000822F809583238C93E8812E2BEFCF8FB757
:10085000F894EC912E2B2C938FBFEACF3FB7F894EE
:1008600080910F0390911003A0911103B091120396
:1008700026B5A89B05C02F3F19F00196A11DB11DFB
:100880003FBFBA2FA92F982F8827BC01CD01620F37
:10089000711D811D911D42E0660F771F881F991FF2
:1008A0004A95D1F708958F929F92AF92BF92CF92BF
:1008B000DF92EF92FF926B017C010E942E044B01AC
:1008C0005C01C114D104E104F104B9F00E942E04CA
:1008D000681979098A099B09683E73408105910569
:1008E00080F321E0C21AD108E108F10888EE880EF1
:1008F00083E0981EA11CB11CE4CFFF90EF90DF9025
:10090000CF90BF90AF909F908F90089581309105C8
:1009100081F41092800082E0809381001092850023
:1009200010928400B19A80916F00826080936F0072
:1009300008958230910569F41092900082E08093CE
:100940009100109295001092940088BB80937100E2
:1009500008958330910569F41092A00082E080939D
:10096000A1001092A5001092A40089BB8093720090
:100970000895892B61F41092200182E08093210177
:1009800010922501109224018ABB80937300089570
:10099000AF92BF92CF92DF92EF92FF920F931F938D
:1009A000CF93DF936B017A01EC01CA5FDC4F2881A2
:1009B0003CE0389F8001399F100D1124A0909E04C7
:1009C000B12C27FF1FC0FB011182108288818F5F2D
:1009D000888388819801280F311D87FD3A95F6019B
:1009E0002A153B051CF488818C30C4F180819181EB
:1009F000049680349C4908F473C0F601808191818B
:100A0000049670C088819801280F311D87FD3A95A2
:100A10002A153B05DCF68881A801480F511D87FD8A
:100A20005A95FA01EE0FFF1FE40FF51FE25FFB4F2F
:100A3000808186FFCBCF8881F801E80FF11D87FD0B
:100A4000FA95CF01EE0FFF1FE80FF91FE25FFB4F92
:100A5000808160E08F730E94C403B8CF8081918150
:100A60002881A801420F511D27FD5A959A01FA01CC
:100A7000EE0FFF1FE20FF31FE25FFB4F2181328178
:100A8000820F931FF7019183808388819801280F3B
:100A9000311D87FD3A95F901EE0FFF1FE20FF31F9D
:100AA000E25FFB4F808186FF22C08881080F111D05
:100AB00087FD1A95F801EE0FFF1FE00FF11FE25FAF
:100AC000FB4F808161E08F73DF91CF911F910F9178
:100AD000FF90EF90DF90CF90BF90AF900C94C40345
:100AE00080E49CE9F701918380838FEF8883DF9115
:100AF000CF911F910F91FF90EF90DF90CF90BF901B
:100B0000AF90089521E001C0220F6A95EAF7DC0159
:100B10001C962C931C971A965C934E931997ED9103
:100B2000FC910484F585E02D60E019940895089502
:100B3000DC01ED91FC910684F785E02D41E01995EB
:100B400081E090E00895DC01ED91FC910684F78549
:100B5000E02D40E019940F931F93CF93DF9300D0C3
:100B600000D01F921F92CDB7DEB700913A021091CC
:100B70003B0220913C0230913D020D831E832F8366
:100B8000388700913E0210913F022091400230913F
:100B9000410209831A832B833C8390911E056917B8
:100BA00010F06FEF690F262F30E040911F052C0FDA
:100BB0003D1FF901403199F4943089F46181680F47
:100BC000606887E195E028960FB6F894DEBF0FBE07
:100BD000CDBFDF91CF911F910F910C94A30565813B
:100BE000EECFEF92FF920F931F93CF93DF938B0182
:100BF00098E0899FB0011124606487E195E00E942C
:100C0000A30583E790E00197F1F7E801085F1F4F24
:100C10008BE9E82EF12C699187E195E00E94980517
:100C2000C7010197F1F7C017D107A9F7DF91CF915D
:100C30001F910F91FF90EF90089561E00E94A3052E
:100C40008BE39FE10197F1F708950F931F93CF93E3
:100C5000DF93EC01423018F08C8188608C834F83E5
:100C60006887222329F0413019F48C8184608C83B9
:100C700064E670E080E090E00E9453046C8164FDC3
:100C800057C0E881F9810684F785E02D42E063E0F2
:100C9000CE0119958BE496E40197F1F7E881F9818B
:100CA0000684F785E02D42E063E0CE01199503E567
:100CB00012E0C8010197F1F7E881F9810684F78510
:100CC000E02D42E063E0CE011995C8010197F1F7EC
:100CD000E881F9810684F785E02D42E062E0CE01EB
:100CE0001995C8010197F1F76C816062CE010E94ED
:100CF000A3058BEE90E00197F1F784E08D836CE023
:100D0000CE010E94A305CE010E941D0682E08E83C3
:100D100066E0CE010E94A305E881F9810484F5858F
:100D2000E02D6FEFCE01DF91CF911F910F911994BC
:100D30006062CE010E94A3058BE496E40197F1F76F
:100D40006C816062CE010E94A30503E512E0C80138
:100D50000197F1F76C816062CE010E94A305C1CFBB
:100D60000895089508952091DD02260F3327331F3B
:100D700021323105ECF420913B03FC0190E080E04E
:100D8000243069F082E00895A091DD022191AC0148
:100D900043545D4FA40FB52FB11D2C9301968617B8
:100DA00098F38091DD02680F6093DD0280E0089582
:100DB00081E0089510923B0381E080933A03109202
:100DC000150361E084E10E94C40361E085E10E94B3
:100DD000C403E9EBF0E080818E7F808380818D7F8A
:100DE000808388E48093B80085E48093BC000895F4
:100DF000CF93DF9391E09093BC028823B9F0C09128
:100E0000B800D091BA008091BC008A7B8093BC006E
:100E100060E084E10E94C40360E085E10E94C403B5
:100E20000E94DA06D093BA00C093B800DF91CF9148
:100E30000895CF92DF92EF92FF920F931F93CF937B
:100E4000DF93D091640381E0D13208F09CC0C0915F
:100E500063030E942E046B017C0180913B0381118E
:100E60006CC082E080933B0381E080933A038FEF74
:100E70008093390310923803D0933703A3E4B3E08F
:100E8000E7E1F3E080E0D8138DC010921603809163
:100E90001603CC0FC82BC093160380911503813025
:100EA00009F084C0109215030E942E046B017C018E
:100EB000809116038093BB0080913D0390913E0387
:100EC000A0913F03B0914003892B8A2B8B2BA1F07B
:100ED0000E942E0400913D0310913E0320913F0398
:100EE000309140036C197D098E099F090617170779
:100EF0002807390708F442C08091BC0083FDD8CF91
:100F000085EC8093BC000E942E046B017C018091D3
:100F10003B03823009F44CC0809139038F3F09F4C0
:100F200069C080913903803209F466C08091390329
:100F3000803309F463C084E026C080913D03909122
:100F40003E03A0913F03B0914003892B8A2B8B2B4A
:100F500009F483CF0E942E0400913D0310913E03BB
:100F600020913F03309140036C197D098E099F0940
:100F7000061717072807390708F06FCF80913C0341
:100F80000E94F80685E010924203109264031092CA
:100F90004103DF91CF911F910F91FF90EF90DF9070
:100FA000CF9008959D9191938F5F6DCF85EEA9CFDE
:100FB00080913D0390913E03A0913F03B091400387
:100FC000892B8A2B8B2B09F4A2CF0E942E0400912F
:100FD0003D0310913E0320913F03309140036C1973
:100FE0007D098E099F09061717072807390708F09A
:100FF0008ECFC4CF80E0C7CF82E0C5CF83E0C3CF20
:101000000895E091050380910403E81730F4F0E0BF
:10101000E456FD4F808190E008958FEF9FEF089593
:1010200090910503809104032FEF3FEF981748F448
:10103000E92FF0E0E456FD4F208130E09F5F909370
:101040000503C90108958091040390910503891B4C
:10105000990B0895CF92DF92EF92FF920F931F9317
:10106000CF93DF937C01CB018A012091410322239E
:1010700089F0EB016B01C40ED51ECC15DD0569F0BE
:101080006991D701ED91FC910190F081E02DC701AC
:101090001995F3CF642F0E94B306C801DF91CF9159
:1010A0001F910F91FF90EF90DF90CF900895CF9315
:1010B000DF931F92CDB7DEB76983209141032223CE
:1010C000F9F020916403203258F021E030E0FC0177
:1010D0003383228390E080E00F90DF91CF910895D9
:1010E00080914203E82FF0E0ED5BFC4F9981908303
:1010F0008F5F809342038093640381E090E0ECCFA4
:1011000061E0CE0101960E94B306F7CFFC01238176
:101110002223F1F0262F6181609562236083828112
:1011200091E09093410380936303109242031092E5
:10113000640382E094E00E9457080E941907282F58
:1011400030E081E090E0232B11F090E080E0089502
:1011500030E020E0F6CFEF92FF920F931F93CF93F2
:101160008C01FC0184E0C0E0262F30E060FF02C06B
:101170009589C92BB9017595679581503196811173
:10118000F3CF413011F4F8014489F8016585C62B8D
:10119000C42B7801FEE0EF0EF11CF80162896C2B84
:1011A000C7010E948608F801628960956C23C70117
:1011B000CF911F910F91FF90EF900C9486080F93A1
:1011C0001F93CF93DF93062F0F70423041F440E01E
:1011D000602FDF91CF911F910F910C94AB08142FCA
:1011E000EC0170E084E0759567958A95E1F7CE0192
:1011F0000E94AB08412F602FCE01EBCFFC0184850C
:101200008823A1F0218532852115310521F4611152
:1012100007C0158606C021303105D9F76111F9CF15
:1012200085876585CF010E960C9486080895EF9208
:10123000FF920F931F93CF93DF93EC01062FF42EB1
:10124000E22E8B85888B1092050310920403109276
:101250004203109264030E94DA0686E995E09093B7
:1012600003038093020387E995E090930103809341
:101270000003888911E010934103809363030E9467
:10128000190781111CC0198B82E094E00E9410089C
:101290008E878989882339F01F861C8260E0CE0101
:1012A0000E960E9486082E2D4F2D602FCE01DF91C5
:1012B000CF911F910F91FF90EF900C942506198A02
:1012C000E8CF90E080E00895862F0C949B03862F52
:1012D000642F0C94C403862F642F0C94F2030F9395
:1012E0001F93CF93DF938C01EB0162E087E195E0E0
:1012F0000E94A3058BE39FE10197F1F760E080E096
:101300000E94AB05F801448155816081718187E1BC
:1013100095E00E94000261E080E00E94AB054C81F4
:101320005D816881798187E195E00E9400026CED22
:1013300075E080E090E00E94530487E195E0DF9142
:10134000CF911F910F910C941D060F931F93CF9374
:10135000DF93809113039091140320911A0230912E
:101360001B0221303105E1F501969093140380931F
:10137000130320911802309119028217930724F069
:101380001092140310921303E0911303F0911403CD
:10139000EE0FFF1FEE5BFD4F00811181CAE0D0E030
:1013A000CE010A97B80102C0759567958A95E2F754
:1013B00061708C2F0E94C4032196CE30D10581F735
:1013C00084E090E0909319028093180268EE73E035
:1013D00080E090E0DF91CF911F910F910C94530426
:1013E0000197909314038093130397FFCDCF8091BF
:1013F000180290911902019790931403809313039C
:10140000C3CF0E94C311FC0180819181009711F02C
:101410000C9459100895FB0101900020E9F73197D1
:10142000AF01461B570BDC01ED91FC910280F3816B
:10143000E02D1994CF93DF93BC0185E693E00E94E1
:101440000B0AEC016CE872E085E693E00E940B0A5F
:101450008C0F9D1FDF91CF910895EF92FF920F9314
:101460001F93CF93DF93EC017B01198218821B82BB
:101470001A821D821C82FB0101900020E9F731973E
:101480008F01061B170BB8016F5F7F4F90E080E064
:101490000E94E2100097B9F0998388831B830A8326
:1014A0002C813D81232B11F4FC0110821D830C83C0
:1014B000B70188819981DF91CF911F910F91FF90A2
:1014C000EF900C94D11188819981009711F00E94BE
:1014D0005910198218821D821C821B821A82DF9188
:1014E000CF911F910F91FF90EF90089585ED80931C
:1014F000BC0080913D0390913E03A0913F03B091C9
:1015000040030796A11DB11D23E0B695A7959795B9
:1015100087952A95D1F72091BC0024FD03C0109235
:101520003B03089540913D0350913E0360913F037A
:1015300070914003452B462B472B69F30097A1057B
:10154000B10541F025E32A95F1F700000197A109C3
:10155000B109E1CF80913C030C94F8061F920F92E1
:101560000FB60F9211240BB60F922F933F934F9308
:101570005F936F937F938F939F93AF93BF93EF93FB
:10158000FF9385E693E00E947402FF91EF91BF9173
:10159000AF919F918F917F916F915F914F913F910B
:1015A0002F910F900BBE0F900FBE0F901F901895AC
:1015B0001F920F920FB60F9211240BB60F922F931A
:1015C0008F939F93EF93FF93E0917503F0917603D0
:1015D0008081E0917B03F0917C0382FD1DC09081AE
:1015E00080917E038F5F8F7320917F03821741F07C
:1015F000E0917E03F0E0EB59FC4F958F80937E03E2
:10160000FF91EF919F918F912F910F900BBE0F90B3
:101610000FBE0F901F9018958081F2CF1F920F92EE
:101620000FB60F9211242F933F938F939F93AF93F5
:10163000BF9380910B0390910C03A0910D03B09187
:101640000E0330910A0323E0230F2D3758F501963E
:10165000A11DB11D20930A0380930B0390930C03EB
:10166000A0930D03B0930E0380910F03909110038C
:10167000A0911103B09112030196A11DB11D809399
:101680000F0390931003A0931103B0931203BF9123
:10169000AF919F918F913F912F910F900FBE0F901F
:1016A0001F90189526E8230F0296A11DB11DD2CFD9
:1016B0001F920F920FB60F9211240BB60F922F9319
:1016C0003F934F935F936F937F938F939F93AF93CA
:1016D000BF93EF93FF9348E251E064E271E090E042
:1016E00080E00E94C804FF91EF91BF91AF919F915C
:1016F0008F917F916F915F914F913F912F910F90BB
:101700000BBE0F900FBE0F901F9018951F920F9257
:101710000FB60F9211240BB60F922F933F934F9356
:101720005F936F937F938F939F93AF93BF93EF9349
:10173000FF9348EA50E064EA70E083E090E00E94A2
:10174000C804FF91EF91BF91AF919F918F917F91CD
:101750006F915F914F913F912F910F900BBE0F9022
:101760000FBE0F901F9018951F920F920FB60F92F9
:1017700011240BB60F922F933F934F935F936F9368
:101780007F938F939F93AF93BF93EF93FF9348E91A
:1017900050E064E970E082E090E00E94C804FF91AC
:1017A000EF91BF91AF919F918F917F916F915F91D9
:1017B0004F913F912F910F900BBE0F900FBE0F9046
:1017C0001F9018951F920F920FB60F9211240BB60F
:1017D0000F922F933F934F935F936F937F938F93CA
:1017E0009F93AF93BF93EF93FF9348E850E064E873
:1017F00070E081E090E00E94C804FF91EF91BF91FA
:10180000AF919F918F917F916F915F914F913F9198
:101810002F910F900BBE0F900FBE0F901F90189539
:101820001F920F920FB60F9211240BB60F922F93A7
:101830003F934F935F936F937F938F939F93AF9358
:10184000BF93EF93FF938091B900887F803609F4AE
:101850004DC008F040C0883209F4A9C028F5803195
:1018600009F49DC0C8F4882309F4FBC0883009F44A
:1018700096C0FF91EF91BF91AF919F918F917F9112
:101880006F915F914F913F912F910F900BBE0F90F1
:101890000FBE0F901F901895883109F488C08032D0
:1018A00041F78093390314C0803409F49DC040F49B
:1018B0008033B9F38833E9F68093390385ECB0C0FF
:1018C000803509F485C0883509F496C0883489F6D6
:1018D0000E94760ACECF883909F48CC038F5883753
:1018E00029F050F4883611F0803719F683E08093A0
:1018F0003B031092FF0257C0883809F47BC080393F
:1019000019F0803809F0B5CF8091FF02803208F0DD
:1019100071C0E091FF0281E08E0F8093FF02809101
:10192000BB00F0E0E152FD4F80833DC0803B39F0C9
:10193000E0F4803A09F479C0883A09F09ACF84E05B
:1019400080933B031092DE021092DD02E0910203CD
:10195000F091030319958091DD0281110FC081E0A0
:101960008093DD021092BD0209C0803C09F4A6CF2D
:10197000883C09F4A3CF883B09F07BCFE091DE02DD
:1019800081E08E0F8093DE02F0E0E354FD4F808112
:101990008093BB009091DE028091DD0229C080918E
:1019A00016038093BB0085EC8093BC0062CF9091BE
:1019B000380380913703981758F5E091380381E098
:1019C0008E0F80933803F0E0E95EFC4F8081E9CF11
:1019D000E091380381E08E0F809338038091BB0043
:1019E000F0E0E95EFC4F80839091380380913703EB
:1019F0009817C8F285E8D8CFE091380381E08E0FC0
:101A0000809338038091BB00F0E0E95EFC4F808357
:101A100080913A0381115CCF81E08093150384EAC1
:101A20008093BC0010923B0324CF85EC8093BC00D4
:101A300010923B038091FF02803230F4E091FF026C
:101A4000F0E0E152FD4F10826091FF0270E0E09102
:101A50000003F09101038FED92E019951092FF02BF
:101A600008CF1092390334CF1092680310926703A5
:101A700088EE93E0A0E0B0E08093690390936A035E
:101A8000A0936B03B0936C032EE432E030936603B3
:101A90002093650325EC30E03093720320937103AB
:101AA00024EC30E0309374032093730320EC30E097
:101AB000309376032093750321EC30E03093780364
:101AC0002093770322EC30E030937A03209379035C
:101AD00026EC30E030937C0320937B0310927E034E
:101AE00010927F03109280031092810310920504DC
:101AF000109204048093060490930704A0930804B2
:101B0000B093090480E692E090930304809302046A
:101B100010921A05109219058CE792E0909318051F
:101B200080931705109227058FEF8093260510925A
:101B300025051092280587E280932205109223053F
:101B400010922405109221051092200584E08093C4
:101B5000290582E080932A0581E080932B0580E1AE
:101B600080932C0580E280932D0580E480932E05E0
:101B700080E880932F051092AA041092AE04109270
:101B8000AD041092AF0482E792E09093A904809391
:101B9000A804E4ECF4E010821482138215823696D5
:101BA00085E0E030F807B9F780E292E090930B050A
:101BB00080930A058CE192E090930D0580930C05CB
:101BC00084E080930E0580930F0584E292E0909369
:101BD0000905809308058AE090E0909311058093B1
:101BE000100584EF91E090931305809312051092F5
:101BF0001605109215051092040510920505109215
:101C00000605109207051092140580919E048033FA
:101C1000C0F491E0980F90939E048093A50490E007
:101C2000FC01EE0FFF1FE80FF91FE25FFB4F88EB8F
:101C30009BE0928381836EE872E08FE994E00C94DC
:101C40002D0A8FEF8093A504F6CF789484B5826037
:101C500084BD84B5816084BD85B5826085BD85B550
:101C6000816085BD80916E00816080936E001092CE
:101C70008100809181008260809381008091810049
:101C800081608093810080918000816080938000DA
:101C90008091B10084608093B1008091B000816038
:101CA0008093B00080919100826080939100809138
:101CB0009100816080939100809190008160809379
:101CC00090008091A10082608093A1008091A1008A
:101CD00081608093A1008091A00081608093A0002A
:101CE0008091210182608093210180912101816096
:101CF0008093210180912001816080932001809157
:101D00007A00846080937A0080917A008260809368
:101D10007A0080917A00816080937A0080917A00C5
:101D2000806880937A001092C100E0917503F09171
:101D3000760382E08083E0917103F0917203108258
:101D4000E0917303F09174038FEC808310927D0314
:101D5000E0917903F0917A0386E08083E091770344
:101D6000F0917803808180618083E0917703F09126
:101D70007803808188608083E0917703F091780315
:101D8000808180688083E0917703F091780380817F
:101D90008F7D808350E040E063E087E195E00E9422
:101DA000820561E087E195E00E94FE0820E042E0C4
:101DB00060E187E195E00E94170987E195E00E94C4
:101DC0001D0660E172E080E00E94F10568E072E0CB
:101DD00081E00E94F10560E072E082E00E94F1057E
:101DE00061E089E10E94F20361E088E10E94F20370
:101DF00061E087E10E94F20361E086E10E94F20364
:101E000060E085E30E94F20360E08BE20E94F2034F
:101E100060E08CE20E94F20360E089E20E94F2033B
:101E200060E08AE20E94F20361E08AE00E94F2032D
:101E300061E08BE00E94F20361E08CE00E94F2031B
:101E400061E08DE00E94F20362E087E195E00E948C
:101E5000A3058BE39FE10197F1F760E081E00E9429
:101E6000AB0560E087E195E00E9498056FE872E0BD
:101E700087E195E00E940B0A60E087E195E00E940F
:101E8000980568E873E180E090E00E94530487E1E0
:101E900095E00E941D060E940303FDCF8FE994E0A8
:101EA0000C94030A052E97FB1EF400940E94690F00
:101EB00057FD07D00E94840F07FC03D04EF40C940A
:101EC000690F50954095309521953F4F4F4F5F4F8B
:101ED000089590958095709561957F4F8F4F9F4F96
:101EE00008950E94A60FA59F900DB49F900DA49FEA
:101EF000800D911D11240895B7FF0C94710F0E945D
:101F0000710F821B930B0895A1E21A2EAA1BBB1B13
:101F1000FD010DC0AA1FBB1FEE1FFF1FA217B307B5
:101F2000E407F50720F0A21BB30BE40BF50B661FCB
:101F3000771F881F991F1A9469F76095709580958F
:101F400090959B01AC01BD01CF010895A29FB00106
:101F5000B39FC001A39F700D811D1124911DB29FDD
:101F6000700D811D1124911D0895EE0FFF1F881F14
:101F70008BBF0790F691E02D19940F931F93CF9389
:101F8000DF938230910510F482E090E0E091320519
:101F9000F091330530E020E0B0E0A0E0309799F414
:101FA0002115310509F44AC0281B390B24303105AD
:101FB000D8F58A819B816115710589F1FB019383B5
:101FC0008283FE0111C04081518102811381481733
:101FD0005907E0F04817590799F4109761F01296E5
:101FE0000C93129713961C933296CF01DF91CF91E9
:101FF0001F910F9108950093320510933305F4CF8C
:102000002115310551F04217530738F0A901DB01C2
:102010009A01BD01DF01F801C1CFEF01F9CF909323
:10202000330580933205CDCFFE01E20FF31F81937C
:1020300091932250310939832883D7CF20913005DD
:1020400030913105232B41F4209136023091370233
:1020500030933105209330052091340230913502C0
:102060002115310541F42DB73EB74091380250910A
:102070003902241B350BE0913005F0913105E21750
:10208000F307A0F42E1B3F0B2817390778F0AC019B
:102090004E5F5F4F2417350748F04E0F5F1F509378
:1020A000310540933005819391939FCFF0E0E0E0BC
:1020B0009CCFCF93DF930097E9F0FC013297138216
:1020C0001282A0913205B0913305ED0130E020E09D
:1020D0001097A1F420813181820F931F2091300548
:1020E000309131052817390709F061C0F0933105A7
:1020F000E0933005DF91CF910895EA01CE17DF0715
:10210000E8F54A815B819E0141155105B1F7E9016E
:10211000FB83EA8349915991C40FD51FEC17FD0742
:1021200061F4808191810296840F951FE901998362
:102130008883828193819B838A83F0E0E0E012961A
:102140008D919C9113970097B9F52D913C91119722
:10215000CD010296820F931F2091300530913105F9
:102160002817390739F6309751F510923305109238
:102170003205B0933105A0933005BCCFD383C28321
:1021800040815181840F951FC817D90761F44E5FB4
:102190005F4F88819981480F591F518340838A81FD
:1021A0009B81938382832115310509F0B0CFF09391
:1021B0003305E09332059ECFFD01DC01C0CF1382D1
:1021C0001282D7CF4F925F926F927F928F929F929F
:1021D000AF92BF92CF92DF92EF92FF920F931F9335
:1021E000CF93DF938C01009799F4CB01DF91CF91CE
:1021F0001F910F91FF90EF90DF90CF90BF90AF9025
:102200009F908F907F906F905F904F900C94BD0F38
:10221000FC01E60FF71F9C0122503109E217F3077A
:1022200008F4AEC0D901CD91DC911197C617D7073C
:1022300020F1C530D10578F0CE01049786179707B5
:1022400050F0C61BD70B2297C193D1936D937C930B
:10225000CF010E945910C801DF91CF911F910F91BA
:10226000FF90EF90DF90CF90BF90AF909F908F90B6
:102270007F906F905F904F9008955B01AC1ABD0AFC
:102280004C018C0E9D1EA0913205B0913305512C4E
:10229000412CF12CE12C109731F580913005909173
:1022A00031058815990509F05CC04616570608F0F7
:1022B00058C08091340290913502009741F48DB757
:1022C0009EB74091380250913902841B950BE81754
:1022D000F90708F055C0F0933105E0933005F90196
:1022E00071836083B8CF8D919C91119712966C90F9
:1022F000129713967C901397A815B90559F56C01A0
:1023000042E0C40ED11CCA14DB0420F1AC014A190E
:102310005B09DA011296159780F06282738251830D
:102320004083D9016D937C93E114F10471F0D701DE
:102330001396FC93EE9312978ECF22968C0F9D1FCF
:10234000F90191838083F301EFCFF0933305E0939C
:10235000320581CF4816590608F42C017D01D301BE
:102360009ACFCB010E94BD0F7C01009749F0AE01CE
:10237000B8010E94C811C8010E94591087016BCF93
:1023800010E000E068CF81E090E0F8940C94D81160
:10239000FB01DC0102C001900D9241505040D8F782
:1023A0000895FB01DC0101900D920020E1F70895F2
:1023B00011E0CBE5D1E000E006C0802FFE010E94D5
:1023C000B50F2196011DCC35D10780E00807A9F78C
:1023D000F894FFCF1F15151F0E111F1F00110000CD
:1023E000110E00001F11111F1F1F1F00040001000C
:1023F00006070809020304053738394134353642E7
:10240000313233432A302344000034058000004039
:1024100014540040105008000400020001000000A5
:102420000000960200022D02E3025E023C0250020E
:102430000000000057082A08610900082308100856
:102440000108000000006B09670964090000000032
:10245000980500026109B20617098205FE08DF0827
:102460000D0A00204249454E56454E49444F200032
:10E000000D9489F10D94B2F10D94B2F10D94B2F129
:10E010000D94B2F10D94B2F10D94B2F10D94B2F1F0
:10E020000D94B2F10D94B2F10D94B2F10D94B2F1E0
:10E030000D94B2F10D94B2F10D94B2F10D94B2F1D0
:10E040000D94B2F10D94B2F10D94B2F10D94B2F1C0
:10E050000D94B2F10D94B2F10D94B2F10D94B2F1B0
:10E060000D94B2F10D94B2F10D94B2F10D94B2F1A0
:10E070000D94B2F10D94B2F10D94B2F10D94B2F190
:10E080000D94B2F10D94B2F10D94B2F10D94B2F180
:10E090000D94B2F10D94B2F10D94B2F10D94B2F170
:10E0A0000D94B2F10D94B2F10D94B2F10D94B2F160
:10E0B0000D94B2F10D94B2F10D94B2F10D94B2F150
:10E0C0000D94B2F10D94B2F10D94B2F10D94B2F140
:10E0D0000D94B2F10D94B2F10D94B2F10D94B2F130
:10E0E0000D94B2F141546D656761323536300041AF
:10E0F000726475696E6F206578706C6F72657220DE
:10E1000073746B3530305632206279204D4C530099
:10E11000426F6F746C6F616465723E004875683F52
:10E1200000436F6D70696C6564206F6E203D200048
:10E130004350552054797065202020203D20005FF9
:10E140005F4156525F415243485F5F3D2000415658
:10E1500052204C696243205665723D20004743437C
:10E160002056657273696F6E203D20004350552024
:10E1700049442020202020203D20004C6F7720663D
:10E18000757365202020203D20004869676820665F
:10E190007573652020203D200045787420667573D6
:10E1A00065202020203D20004C6F636B2066757336
:10E1B000652020203D20004D617220203720323024
:10E1C000313300312E362E3800342E332E350056A2
:10E1D00023202020414444522020206F7020636F70
:10E1E00064652020202020696E73747275637469E1
:10E1F0006F6E2061646472202020496E74657272B3
:10E20000757074006E6F20766563746F7200726A49
:10E210006D702020006A6D70200057686174207056
:10E220006F72743A00506F7274206E6F7420737541
:10E2300070706F72746564004D7573742062652030
:10E2400061206C6574746572002000577269747483
:10E25000696E672045450052656164696E672045B7
:10E26000450045452065727220636E743D00504F35
:10E27000525400303D5A65726F2061646472003FF1
:10E280003D43505520737461747300403D454550C3
:10E29000524F4D207465737400423D426C696E6B41
:10E2A000204C454400453D44756D70204545505215
:10E2B0004F4D00463D44756D7020464C415348001B
:10E2C000483D48656C70004C3D4C69737420492F83
:10E2D0004F20506F72747300513D51756974005234
:10E2E0003D44756D702052414D00563D73686F7707
:10E2F00020696E7465727275707420566563746FF0
:10E30000727300593D506F727420626C696E6B00BD
:10E310002A0011241FBECFEFD1E2DEBFCDBF01E046
:10E320000CBF12E0A0E0B2E0EEE1FDEF03E00BBFB6
:10E3300002C007900D92A030B107D9F712E0A0E01B
:10E34000B2E001C01D92AE30B107E1F70F9460F367
:10E350000D948DFE01E20EBF0FEF0DBF11241FBE05
:10E360000D9460F30D9400F020E030E040ED57E0B4
:10E3700005C0FA013197F1F72F5F3F4F2817390792
:10E38000C0F308959C01260F311DC901A0E0B0E043
:10E390002F5F3F4FABBFFC018791882361F08093D3
:10E3A000C6008091C00086FFFCCF8091C0008064D1
:10E3B0008093C000EACF08958DE08093C6008091DD
:10E3C000C00086FFFCCF8091C00080648093C000B5
:10E3D0008AE08093C6008091C00086FFFCCF8091C8
:10E3E000C00080648093C00008950F94C2F10F9420
:10E3F000DCF10895FC019081992359F09093C600B7
:10E400008091C00086FFFCCF8091C0008064809323
:10E41000C0003196992379F70895282F982F929567
:10E420009F70892F805D8A3308F0895F8093C600D2
:10E430008091C00086FFFCCF8091C00080648093F3
:10E44000C000822F8F70982F905D9A3308F0995FEB
:10E450009093C6008091C00086FFFCCF8091C000E1
:10E4600080648093C00008959C01FB01853691056E
:10E470001CF46330710594F0C90164E670E00F94F8
:10E480002EFE605D7F4F6093C6008091C00086FFC6
:10E49000FCCF8091C00080648093C0002B30310598
:10E4A00014F43297B4F0C90164E670E00F942EFEC4
:10E4B0006AE070E00F942EFE605D7F4F6093C600AF
:10E4C0008091C00086FFFCCF8091C0008064809363
:10E4D000C000C9016AE070E00F942EFEC0968093E0
:10E4E000C6008091C00086FFFCCF8091C000806490
:10E4F0008093C00008951F93182F8EE692EE60E07F
:10E500000F94C2F11093C6008091C00086FFFCCF2B
:10E510008091C00080648093C0000F94DCF11F9153
:10E5200008952F923F924F925F926F927F928F92B7
:10E530009F92AF92BF92CF92DF92EF92FF920F9392
:10E540001F93DF93CF93CDB7DEB762970FB6F894E2
:10E55000DEBF0FBECDBF382E622ECA01DB015C01CB
:10E560006D01772420E2222E2E010894411C511CBB
:10E570008BC081E0A81680E0B80681E0C80680E084
:10E58000D80628F0C601AA27BB270F940DF2BB2797
:10E59000AD2D9C2D8B2D0F940DF28A2D0F940DF225
:10E5A0002092C6008091C00086FFFCCF8091C00001
:10E5B00080648093C0009DE29093C6008091C0006B
:10E5C00086FFFCCF8091C00080648093C0002092C1
:10E5D000C6008091C00086FFFCCF8091C00080649F
:10E5E0008093C00019828601750188249924A1E0D6
:10E5F0003A1651F03A1620F0B2E03B1661F409C029
:10E600000BBFF701779007C0C7010F9477FE782EF4
:10E6100002C0F7017080872D0F940DF22092C60082
:10E620008091C00086FFFCCF8091C0008064809301
:10E63000C000872D8052F401EF70F0708F3520F408
:10E64000E40DF51D708204C0E40DF51D8EE280839B
:10E650000894E11CF11C011D111D0894811C911CE2
:10E6600090E18916910409F0C2CF80E190E0A0E02A
:10E67000B0E0A80EB91ECA1EDB1E198AC2010F9493
:10E68000FAF10F94DCF16A94662009F072CF629679
:10E690000FB6F894DEBF0FBECDBFCF91DF911F91B3
:10E6A0000F91FF90EF90DF90CF90BF90AF909F9031
:10E6B0008F907F906F905F904F903F902F90089534
:10E6C0002F923F924F925F926F927F928F929F9282
:10E6D000AF92BF92CF92DF92EF92FF920F931F9370
:10E6E000DF93CF93CDB7DEB7CD53D1400FB6F894BB
:10E6F000DEBF0FBECDBF01E20EBF0FEF0DBF94B75F
:10E70000F894A89514BE80916000886180936000A1
:10E7100010926000789493FF05C0E0910002F091A0
:10E7200001021995279A2F9A8091C00082608093E8
:10E73000C00080E18093C40088E18093C1000000A4
:10E74000EE24FF24870144E0A42EB12CCC24DD2448
:10E7500024C0C5010197F1F70894E11CF11C011DCB
:10E76000111D21E2E2162EE4F20620E0020720E06D
:10E77000120718F031E0C32ED12CC801B70127ECE5
:10E780003BE140E050E00F9441FE611571058105C9
:10E79000910519F485B1805885B98091C00087FD35
:10E7A00003C0C114D104A9F2A6014F5F5F4FC25E3E
:10E7B000DE4F59834883CE51D140C25EDE4F8881FF
:10E7C0009981CE51D140019711F00D9410FEC05D9A
:10E7D000DE4F19821882C053D14060E0C15DDE4F28
:10E7E0001882CF52D14088249924C35DDE4F19820C
:10E7F0001882CD52D140C05EDE4F188219821A8233
:10E800001B82C052D140CE5CDE4F188219821A8220
:10E810001B82C253D140EE24FF2487010BBFF701B6
:10E8200007911691C45CDE4F19830883CC53D14005
:10E830000D940BFEC25EDE4F28813981CE51D1404E
:10E840002130310509F52091C600C25EDE4F1982E4
:10E850001882CE51D14022C02F5F3F4F4F4F5F4FA4
:10E86000213082E138078AE7480780E0580780F0C6
:10E87000C45CDE4FE881F981CC53D140EF5FFF4F9C
:10E8800019F0EE27FF27099420E030E040E050E047
:10E890008091C00087FFE0CF2091C600C35DDE4FAE
:10E8A00048815981CD52D1404F5F5F4FC35DDE4FEC
:10E8B00059834883CD52D140213209F063C64A3092
:10E8C000510508F05FC60894811C911C53E0851621
:10E8D000910409F059C600E010E018C081E280936D
:10E8E000C6008091C00086FFFCCF8091C00080648C
:10E8F0008093C0002F5F3F4F2931310579F70F9486
:10E90000DCF10F5F1F4F0530110519F020E030E0FA
:10E91000E5CF10920A0210920B0210920C02109294
:10E920000D02109206021092070210920802109235
:10E930000902109202021092030210920402109235
:10E9400005028FEE90EE60E00F94F5F180E191EE1C
:10E9500060E00F94C2F18091C00087FFFCCF9091DE
:10E96000C600903608F09F759032B8F09093C600BC
:10E970008091C00086FFFCCF8091C00080648093AE
:10E98000C000A0E2A093C6008091C00086FFFCCF2B
:10E990008091C00080648093C000983409F4D7C18E
:10E9A0009934B8F4923409F459C1933458F490333B
:10E9B00019F1903308F4E3C59F33A1F1903409F0C5
:10E9C000DEC5BDC0953409F470C1963409F0D7C5D1
:10E9D00098C1923509F42BC2933538F49C3409F46C
:10E9E000F5C1913509F0CBC518C2963509F445C279
:10E9F000993509F0C4C567C483E792EE62E00F94CD
:10EA0000F5F110920602109207021092080210927D
:10EA1000090210920A0210920B0210920C0210923C
:10EA20000D0213C18FE792EE62E00F94F5F18FEEC5
:10EA300090EE60E00F94F5F181E291EE60E00F94CA
:10EA4000C2F187EB91EE60E00F94F5F180E391EE77
:10EA500060E00F94C2F184EE90EE60E00F94F5F167
:10EA60008FE391EE60E00F94C2F186E090E061E008
:10EA700070E00F9434F20F94DCF18DE591EE60E0DC
:10EA80000F94C2F189EC91EE60E00F94F5F18EE401
:10EA900091EE60E00F94C2F183EC91EE60E00F9490
:10EAA000F5F18CE691EE60E00F94C2F18EE10F94E7
:10EAB0000DF288E90F940DF281E00F940DF20F949E
:10EAC000DCF18BE791EE60E00F94C2F119E0E0E039
:10EAD000F0E010935700E4918E2F0F940DF20F94F5
:10EAE000DCF18AE891EE60E00F94C2F1E3E0F0E03F
:10EAF00010935700E4918E2F0F940DF20F94DCF1D8
:10EB000089E991EE60E00F94C2F1E2E0F0E0109349
:10EB10005700E4918E2F0F940DF20F94DCF188EAE8
:10EB200091EE60E00F94C2F1E1E0F0E01093570045
:10EB30001491812F0F940DF20F94DCF107CF8BE825
:10EB400092EE62E00F94F5F18BE492EE60E00F94A8
:10EB5000F5F10F94DCF100E010E019C0C8016F2D51
:10EB60000F947FFEFF2031F489E492EE60E00F9471
:10EB7000C2F10BC0F092C6008091C00086FFFCCFAE
:10EB80008091C00080648093C0000F5F1F4FC80158
:10EB900081519F41A0E0B0E0ABBFFC01F790BAE229
:10EBA000FB1621F0E2E000301E07C1F60F94DCF105
:10EBB0000F94DCF187E592EE60E00F94F5F10F948D
:10EBC000DCF1CC24DD2400E010E01EC0C8010F946D
:10EBD00077FEF82E882331F489E492EE60E00F94FA
:10EBE000C2F10BC08093C6008091C00086FFFCCFAD
:10EBF0008091C00080648093C000FE1419F00894D6
:10EC0000C11CD11C0F5F1F4FC80181519F41A0E063
:10EC1000B0E0ABBFFC01E790FAE2EF1621F022E092
:10EC20000030120799F60F94DCF10F94DCF182E6C4
:10EC300092EE60E00F94C2F1C60161E070E00F94C3
:10EC400034F20F94DCF10F94DCF110920202109276
:10EC50000302109204021092050278CE89E992EE26
:10EC600062E00F94F5F1279A2F9A16C02F9880E052
:10EC700090E0E0EDF7E03197F1F7019684369105E9
:10EC8000C1F72F9A80E090E0E0EDF7E03197F1F7DF
:10EC9000019684369105C1F78091C00087FFE6CFC9
:10ECA0008091C00087FFFCCF64C485EA92EE62E0E9
:10ECB0000F94F5F140910202509103026091040219
:10ECC0007091050281E020E10F9491F2809102029F
:10ECD00090910302A0910402B091050280509F4FD1
:10ECE000AF4FBF4F8093020290930302A0930402A0
:10ECF000B093050280509041A040B04008F426CE69
:10ED0000A4CF83EB92EE62E00F94F5F140910602FE
:10ED100050910702609108027091090280E020E1A1
:10ED20000F9491F28091060290910702A09108023F
:10ED3000B091090280509F4FAF4FBF4F80930602A2
:10ED400090930702A0930802B0930902FFCD80ECD4
:10ED500092EE62E00F94F5F183E792EE60E00F949B
:10ED6000F5F18FE792EE60E00F94F5F18BE892EE0B
:10ED700060E00F94F5F189E992EE60E00F94F5F10F
:10ED800085EA92EE60E00F94F5F183EB92EE60E09D
:10ED90000F94F5F180EC92EE60E00F94F5F187ECC2
:10EDA00092EE60E00F94F5F188ED92EE60E00F9442
:10EDB000F5F18FED92EE60E00F94F5F18AEE92EEB0
:10EDC00060E00F94F5F183E093EEBDCD87EC92EE19
:10EDD00062E00F94F5F181E40F947BF282E40F94EA
:10EDE0007BF283E40F947BF284E40F947BF285E45E
:10EDF0000F947BF286E40F947BF287E40F947BF20E
:10EE000088E40F947BF28AE40F947BF28BE40F94F6
:10EE10007BF28CE40F947BF299CD88ED92EE62E068
:10EE20000F94F5F1772473948824992409C48FED05
:10EE300092EE62E00F94F5F140910A0250910B02BC
:10EE400060910C0270910D0282E020E10F9491F22A
:10EE500080910A0290910B02A0910C02B0910D02D8
:10EE600080509F4FAF4FBF4F80930A0290930B0289
:10EE7000A0930C02B0930D0269CD8AEE92EE62E08F
:10EE80000F94F5F184EE90EE60E00F94F5F18FECC5
:10EE900091EE60E00F94F5F1662477244301CC5D98
:10EEA000DE4F19821882C452D140D401C301B695F5
:10EEB000A79597958795CA5DDE4F88839983AA8326
:10EEC000BB83C652D140CC5DDE4FA881B981C4520C
:10EED000D1401196CC5DDE4FB983A883C452D14096
:10EEE000CD0162E070E00F9434F2B0E2B093C6005E
:10EEF0008091C00086FFFCCF8091C0008064809329
:10EF0000C000EDE2E093C6008091C00086FFFCCF18
:10EF10008091C00080648093C000F0E2F093C6004E
:10EF20008091C00086FFFCCF8091C00080648093F8
:10EF3000C000CA5DDE4FE880F9800A811B81C6529D
:10EF4000D140BB27A12F902F8F2D0F940DF2CA5DBA
:10EF5000DE4F8881C652D1400F940DF2B0E2FB2EF5
:10EF6000F092C6008091C00086FFFCCF8091C00067
:10EF700080648093C0000DE30093C6008091C000C0
:10EF800086FFFCCF8091C00080648093C00010E2B7
:10EF90001093C6008091C00086FFFCCF8091C00016
:10EFA00080648093C0008BBEF3012791C65DDE4F65
:10EFB0002883CA52D140A22EBB24CC24DD2408943D
:10EFC000611C711C811C911C8BBEF3018791282E42
:10EFD0003324442455240894611C711C811C911C09
:10EFE0008BBEF3013791C55DDE4F3883CB52D140E4
:10EFF0000894611C711C811C911C8BBEF30147910C
:10F00000C45DDE4F4883CC52D140ADEFEA2EAFEF66
:10F01000FA2EAFEF0A2FAFEF1A2F6E0C7F1C801E57
:10F02000911E142D032DF22CEE24EA0CFB1C0C1D5A
:10F030001D1D0F940DF220E22093C6008091C000A8
:10F0400086FFFCCF8091C00080648093C000C65DC5
:10F05000DE4F8881CA52D1400F940DF230E23093D6
:10F06000C6008091C00086FFFCCF8091C000806404
:10F070008093C000C45DDE4F8881CC52D1400F9494
:10F080000DF240E24093C6008091C00086FFFCCFA5
:10F090008091C00080648093C000C55DDE4F888190
:10F0A000CB52D1400F940DF250E25093C6008091A4
:10F0B000C00086FFFCCF8091C00080648093C000B8
:10F0C0008FEFE8168FEFF80680E0080780E018075A
:10F0D00031F484E092EE60E00F94C2F1DFC0D80119
:10F0E000C7018070907CA070B0708050904CA040A0
:10F0F000B040D1F52FEF3FE340E050E0E222F322B1
:10F1000004231523CA5DDE4FA880B980CA80DB8046
:10F11000C652D140AE0CBF1CC01ED11EAA0CBB1CD7
:10F12000CC1CDD1C8EE092EE60E00F94C2F1BB2798
:10F13000A12F902F8F2D0F940DF28E2D0F940DF285
:10F1400030E23093C6008091C00086FFFCCF8091F2
:10F15000C00080648093C0004EE34093C60080915D
:10F16000C00086FFFCCF87C08EE09EEFA0E0B0E03D
:10F17000E822F9220A231B239CE0E91694E9F90608
:10F1800090E0090790E0190709F088C0C45DDE4FE0
:10F19000A881CC52D140EA2EFF2400E010E0102FCD
:10F1A0000F2DFE2CEE24C55DDE4FB881CB52D14031
:10F1B000EB0EF11C011D111DD601C501817090706F
:10F1C000A070B070DC0199278827E80EF91E0A1F8D
:10F1D0001B1F20EF30E040E050E0A222B322C42207
:10F1E000D52241E1AA0CBB1CCC1CDD1C4A95D1F7F1
:10F1F000EA0CFB1C0C1D1D1D81E090E0A0E0B0E0BE
:10F20000282239224A225B2235E1220C331C441C7D
:10F21000551C3A95D1F7E20CF31C041D151D57013E
:10F220006801AA0CBB1CCC1CDD1C85E192EE60E0E1
:10F230000F94C2F1C801AA27BB270F940DF2BB2778
:10F24000A12F902F8F2D0F940DF28E2D0F940DF274
:10F2500090E29093C6008091C00086FFFCCF809121
:10F26000C00080648093C000AEE3A093C60080918C
:10F27000C00086FFFCCF8091C00080648093C000F6
:10F28000C601AA27BB270F940DF2BB27AD2D9C2DDD
:10F290008B2D0F940DF28A2D0F940DF20F94DCF14B
:10F2A000CC5DDE4FE881F981C452D140F99709F471
:10F2B0004DCBF4E0EF2EF12C012D112D6E0C7F1CA7
:10F2C000801E911EF2CD83E093EE62E00F94F5F183
:10F2D0008AE192EE60E00F94C2F18091C00087FF56
:10F2E000FCCF1091C6001F751093C6008091C0001E
:10F2F00086FFFCCF8091C00080648093C0000F9493
:10F30000DCF1812F81548A3108F036C1163409F4BA
:10F3100095C0173490F4133409F44EC0143430F40B
:10F320001134F1F0123409F01DC130C0143409F465
:10F3300059C0153409F016C16BC01A3409F4C4C0A1
:10F340001B3438F4173409F48FC0183409F00AC19B
:10F35000A1C01B3409F4D2C01C3409F003C1E8C0B9
:10F360008FEF81B90DC082B1809582B980E090E0C5
:10F37000E0EDF7E03197F1F70196883C9105C1F790
:10F380008091C00087FFEFCF12B8EFC08FEF84B934
:10F390000DC085B1809585B980E090E0E0EDF7E0A3
:10F3A0003197F1F70196883C9105C1F78091C00033
:10F3B00087FFEFCF15B8D9C08FEF87B90DC088B1DF
:10F3C000809588B980E090E0E0EDF7E03197F1F7C3
:10F3D0000196883C9105C1F78091C00087FFEFCF6F
:10F3E00018B8C3C08FEF8AB90DC08BB180958BB9A7
:10F3F00080E090E0E0EDF7E03197F1F70196883C8E
:10F400009105C1F78091C00087FFEFCF1BB8ADC059
:10F410008FEF8DB90DC08EB180958EB980E090E0F0
:10F42000E0EDF7E03197F1F70196883C9105C1F7DF
:10F430008091C00087FFEFCF1EB897C08FEF80BBD1
:10F440000DC081B3809581BB80E090E0E0EDF7E0F6
:10F450003197F1F70196883C9105C1F78091C00082
:10F4600087FFEFCF11BA81C08FEF83BB0DC084B38C
:10F47000809584BB80E090E0E0EDF7E03197F1F714
:10F480000196883C9105C1F78091C00087FFEFCFBE
:10F4900014BA6BC08FEF809301010FC080910201FD
:10F4A00080958093020180E090E0E0EDF7E03197F5
:10F4B000F1F70196883C9105C1F78091C00087FF64
:10F4C000EDCF1092020151C08FEF809304010FC065
:10F4D0008091050180958093050180E090E0E0ED4A
:10F4E000F7E03197F1F70196883C9105C1F78091DB
:10F4F000C00087FFEDCF1092050137C08FEF8093DA
:10F5000007010FC08091080180958093080180E079
:10F5100090E0E0EDF7E03197F1F70196883C910536
:10F52000C1F78091C00087FFEDCF109208011DC088
:10F530008FEF80930A010FC080910B01809580931B
:10F540000B0180E090E0E0EDF7E03197F1F70196F4
:10F55000883C9105C1F78091C00087FFEDCF1092E4
:10F560000B0103C085E292EEEEC98091C00087FFD7
:10F57000FCCF8091C600EAC988E392EEE4C98CE131
:10F5800091EEE1C988249924933011F1943028F444
:10F59000913089F09230B8F408C0953061F195301F
:10F5A000F0F0963009F048C043C02B3109F042C951
:10F5B00091E06BE13FC96227C15DDE4F2883CF52E6
:10F5C000D14092E037C9B22FA0E0622793E032C960
:10F5D000822F90E0A82BB92B622794E02BC92E3004
:10F5E00009F039C3622795E0C05DDE4F19821882A9
:10F5F000C053D1401FC9E1E0F0E0EC0FFD1FC05D3A
:10F60000DE4F08811981C053D140E00FF11F2083E4
:10F610000F5F1F4FC05DDE4F19830883C053D14079
:10F6200062270A171B0709F005C9D80196E002C92D
:10F63000261709F010C303C0973009F0FBC87724E0
:10F640009981933109F412C19431C8F4963009F4C8
:10F65000D8C0973050F4923009F406C1933009F4C1
:10F660006DC0913009F059C253C0913109F477C08F
:10F67000923108F0BBC0903109F04FC2F5C098310B
:10F6800009F487C0993150F4953109F4EFC09531F0
:10F6900008F4C6C1963109F040C2C2C19A3109F4DA
:10F6A0006CC09A3108F491C09B3109F45BC09D3164
:10F6B00009F033C29D81903359F48F81882311F46E
:10F6C0009EE11CC0813011F091E018C098E916C08D
:10F6D000892F807591F0903539F4E0E0F0E089E011
:10F6E0008093570094910AC0983539F4E3E0F0E034
:10F6F00089E080935700949101C090E01A821B82A8
:10F700008D818C831D829E831F8227E030E009C299
:10F710001A8288E08B8381E48C8386E58D8382E581
:10F720008E8389E48F8383E5888780E589878FE5E9
:10F730008A8782E38B872BE030E0F3C18A818139AD
:10F7400041F0823941F0803911F48FE005C080E04A
:10F7500003C082E001C08AE01A828B8344C0772410
:10F76000739482C08D81882311F48EE12CC0813086
:10F7700011F081E028C088E926C01A82E1E0F0E0BB
:10F7800089E08093570084918B831C8224E030E0D1
:10F79000C8C18B81803589F48C81883039F4E2E0EE
:10F7A000F0E089E08093570084910DC0E0E0F0E044
:10F7B00089E080935700849106C0E3E0F0E089E09F
:10F7C0008093570084911A82DFCF8D81836C99E0FA
:10F7D000E1E0F0E0082E90935700E89507B600FCB2
:10F7E000FDCF1A821B8223E030E09BC180EC8A832C
:10F7F000CE5CDE4F188219821A821B82C253D1401E
:10F800008EC18A8190E0A0E0B0E0582F44273327D2
:10F8100022278B8190E0A0E0B0E0DC0199278827C7
:10F82000282B392B4A2B5B2B8D8190E0A0E0B0E098
:10F83000282B392B4A2B5B2B8C8190E0A0E0B0E089
:10F84000BA2FA92F982F8827282B392B4A2B5B2BCF
:10F85000220F331F441F551FC05EDE4F288339839C
:10F860004A835B83C052D1401A8259C13A81C95C34
:10F87000DE4F3883C753D140CA5CDE4F1882C6536F
:10F88000D1408B81C82EDD24CA5CDE4F488159816E
:10F89000C653D140C42AD52A933109F082C0CE5C28
:10F8A000DE4F88819981AA81BB81C253D1408050AB
:10F8B000904CA340B04030F583E0CE5CDE4FE88052
:10F8C000F9800A811B81C253D140F70100935B008C
:10F8D00080935700E89507B600FCFDCFCE5CDE4F65
:10F8E000088119812A813B81C253D14000501F4FAA
:10F8F0002F4F3F4FCE5CDE4F088319832A833B8313
:10F90000C253D140C05EDE4F488159816A817B81FC
:10F91000C052D140DE011B9631E08C9111962C91A2
:10F9200011971296C75CDE4F2883C953D140C85C3B
:10F93000DE4F1882C853D14090E0C85CDE4FE881AA
:10F94000F981C853D1408E2B9F2B0C01FA01609393
:10F950005B0030935700E89511244E5F5F4F6F4F67
:10F960007F4F0EEFE02E0FEFF02ECE0CDF1CC114F8
:10F97000D10499F685E0C05EDE4F088119812A81A5
:10F980003B81C052D140F80120935B008093570027
:10F99000E89507B600FCFDCF81E180935700E8951C
:10F9A00035C0C05EDE4F88819981AA81BB81C0527B
:10F9B000D140B695A795979587957C018601ABE0D8
:10F9C000AA2EB12CAC0EBD1E0BC0D5016D915D01F0
:10F9D000C7010F947FFE0894E11CF11C01501040F8
:10F9E0000115110591F7A60160E070E0440F551F65
:10F9F000661F771FC05EDE4FE880F9800A811B8199
:10FA0000C052D1404E0D5F1D601F711F1A82C05E33
:10FA1000DE4F488359836A837B83C052D1407FC0C5
:10FA2000FA80C55CDE4FF882CB53D140C65CDE4F16
:10FA30001882CA53D1408B81C82EDD24C65CDE4FAC
:10FA400008811981CA53D140C02AD12A1A828981DA
:10FA5000BE016D5F7F4F843121F59601C05EDE4FA0
:10FA6000E880F9800A811B81C052D1400BBFF701A9
:10FA700087919691DB018C9311969C936E5F7F4FDB
:10FA8000D801C7010296A11DB11DC05EDE4F88835B
:10FA90009983AA83BB83C052D14022503040F1F6F3
:10FAA00036C0C05EDE4F288139814A815B81C052F9
:10FAB000D1400894C108D108760100E010E0089414
:10FAC000C11CD11C0894E11CF11C011D111DE20E8A
:10FAD000F31E041F151F21BDBB27A52F942F832FB5
:10FAE00082BD2F5F3F4F4F4F5F4FF89A80B5DB01CC
:10FAF0008D93BD012E153F054007510761F7C05E8C
:10FB0000DE4F288339834A835B83C052D1409601FC
:10FB10002D5F3F4FFB01108204C080EC8A8322E0FE
:10FB200030E08BE18093C6008091C00086FFFCCF5F
:10FB30008091C00080648093C000C15DDE4FF88179
:10FB4000CF52D140F093C6008091C00086FFFCCF19
:10FB50008091C00080648093C000432F3093C60022
:10FB60008091C00086FFFCCF8091C00080648093AC
:10FB7000C000922F2093C6008091C00086FFFCCF6A
:10FB80008091C00080648093C0008EE08093C600A6
:10FB90008091C00086FFFCCF8091C000806480937C
:10FBA000C00065E1C15DDE4FE880CF52D1406E25D7
:10FBB00069276427FE01319610C090819093C6009A
:10FBC0008091C00086FFFCCF31968091C000806498
:10FBD0008093C0006927215030402115310569F715
:10FBE0006093C6008091C00086FFFCCF8091C0006A
:10FBF00080648093C00085B1805885B9772081F4F6
:10FC0000C15DDE4F0881CF52D1400F5FC15DDE4F35
:10FC10000883CF52D14090E0A0E0B0E00D941AF4F8
:10FC200027982F9880E090E020ED37E0F901319798
:10FC3000F1F7019684369105C9F700008091C00064
:10FC40008D7F8093C00081E180935700E895EE2777
:10FC5000FF270994FFCF90E00D941AF497FB092E2B
:10FC600007260AD077FD04D02ED006D000201AF443
:10FC7000709561957F4F0895F6F7909581959F4F08
:10FC80000895A1E21A2EAA1BBB1BFD010DC0AA1FDD
:10FC9000BB1FEE1FFF1FA217B307E407F50720F0F5
:10FCA000A21BB30BE40BF50B661F771F881F991F70
:10FCB0001A9469F760957095809590959B01AC01B9
:10FCC000BD01CF010895AA1BBB1B51E107C0AA1FAC
:10FCD000BB1FA617B70710F0A61BB70B881F991FED
:10FCE0005A95A9F780959095BC01CD010895F99991
:10FCF000FECF92BD81BDF89A992780B50895262F31
:10FD0000F999FECF1FBA92BD81BD20BD0FB6F89400
:0EFD1000FA9AF99A0FBE01960895F894FFCF63
:00000001FF
