:020000040000FA
:100000000C945C010C948D010C948D010C948D0169
:100010000C948D010C948D010C948D010C948D0128
:100020000C948D010C948D010C948D010C948D0118
:100030000C948D010C948D010C948D010C948D0108
:100040000C948D010C94070C0C948D010C948D0173
:100050000C948D010C948D010C948D010C94330B38
:100060000C948D010C94FD0A0C94D30A0C948D0110
:100070000C948D010C948D010C948D010C948D01C8
:100080000C94D90B0C948D010C948D010C948D0162
:100090000C948D010C948D010C948D010C94350CF5
:1000A0000C948D010C948D010C94AB0B0C948D0170
:1000B0000C948D010C948D010C948D010C947D0B8E
:1000C0000C948D010C948D010C948D010C948D0178
:1000D0000C948D010C948D010C948D010C948D0168
:1000E0000C948D010C9497050C9464030C94980562
:1000F0000C945E020C941B090C9493030C946703FC
:100100000C94B8080C9499080C94CA070C949703A3
:100110000C946D030C946C060C94E3020C94BB07D6
:100120000C945C030C94590D0C9411080C94EA0F78
:100130000C9471030C947B030C94E4070C949602CA
:100140000C9450020C948D030C9489030C943C0283
:100150000C9496050C9458030C94D1080C946003ED
:100160000C9425090C94BA070C941E090C94920364
:100170000C9400020C94DD070C9485030C94770317
:100180000C9482050C942D020C947F030C9421098D
:100190000C94520300002100240027002A002D00A7
:1001A0003000330001010000040107010A010000D2
:1001B0002200250028002B002E003100340002010F
:1001C0000000050108010B010000200023002600AB
:1001D00029002C002F00320000010000030106015D
:1001E00009010505050507050808080802020202BD
:1001F0000A0A0808040404040101010101010101C3
:100200000303030303030303040707070C0C0C0C8D
:100210000C0C0C0C02020202060606060606060676
:100220000B0B0B0B0B0B0B0B010210202008081003
:100230002040102040800201020108040201010256
:10024000040810204080804020100804020180042F
:10025000020180402010080402010804020101028A
:100260000408102040800102040810204080000093
:100270000A0B02090C0D0E08070304010000000020
:10028000000000000000000000000000000000006E
:10029000000000000000000000001211100000002B
:1002A000000000000000000000000000000000004E
:1002B00000000000590DEA0F11241FBECFEFD1E25C
:1002C000DEBFCDBF00E00CBF12E0A0E0B2E0EEE286
:1002D000F5E200E00BBF02C007900D92A03CB10711
:1002E000D9F725E0A0ECB2E001C01D92A835B20715
:1002F000E1F711E0CBE5D1E000E006C0219701096C
:10030000802FFE010E946210CA35D10780E00807E5
:10031000A9F70E948A0E0C9485120C9400008F920B
:100320009F92AF92BF92FF920F931F93CF93DF9351
:100330008F3F980709F461C0853B910511F484EB68
:1003400090E0F090C9042FE22F1508F44CC02091E2
:10035000CB0408E512E0021B110927FD1395000FDD
:10036000111F000F111F2091CA04C8E8D0E0C21B62
:10037000D10927FDD395CC0FDD1FCC0FDD1F4E011A
:100380000D2E000CAA08BB089801012E000C440B8E
:10039000550B281939094A095B09DC010E941D1017
:1003A00024EB30E040E050E00E94F30F820E931EF9
:1003B000A41EB51E8C169D062CF0E8018016910631
:1003C0000CF4E4012297CC0FDD1F2FB7F8948F2D8A
:1003D00090E0FC01EE0FFF1FE80FF91FEE5CFB4FF2
:1003E000D283C1832FBFDF91CF911F910F91FF90D7
:1003F000BF90AF909F908F90089590E080E0A1CF44
:10040000AF92BF92CF92DF92EF92FF920F931F9322
:10041000CF93DF936C017B018B01040F151FEB0160
:100420005E01AE18BF08C017D10759F06991D60117
:10043000ED91FC910190F081E02DC6011995892B79
:1004400079F7C501DF91CF911F910F91FF90EF9048
:10045000DF90CF90BF90AF900895FC01538D448DF5
:10046000252F30E0842F90E0821B930B541710F05F
:10047000CF96089501970895FC01918D828D98176C
:1004800061F0A28DAE0FBF2FB11D5D968C91928D44
:100490009F5F9F73928F90E008958FEF9FEF089575
:1004A000FC01918D828D981731F0828DE80FF11D3E
:1004B000858D90E008958FEF9FEF0895FC01918D59
:1004C000228D892F90E0805C9F4F821B91098F7352
:1004D0009927089589E893E00E945E0221E0892B24
:1004E00009F420E0822F0895FC01A48DA80FB92FF4
:1004F000B11DA35ABF4F2C91848D90E001968F734C
:100500009927848FA689B7892C93A089B1898C916A
:10051000837080648C93938D848D981306C00288B9
:10052000F389E02D80818F7D80830895EF92FF9283
:100530000F931F93CF93DF93EC0181E0888F9B8D06
:100540008C8D98131AC0E889F989808185FF15C0C0
:100550009FB7F894EE89FF896083E889F9898081E3
:100560008370806480839FBF81E090E0DF91CF91B2
:100570001F910F91FF90EF900895F62E0B8D10E0D4
:100580000F5F1F4F0F731127E02E8C8D8E110CC043
:100590000FB607FCFACFE889F989808185FFF5CF8E
:1005A000CE010E947402F1CFEB8DEC0FFD2FF11DF7
:1005B000E35AFF4FF0829FB7F8940B8FEA89FB89CB
:1005C00080818062CFCFCF93DF93EC01888D882329
:1005D000B9F0AA89BB89E889F9898C9185FD03C0A6
:1005E000808186FD0DC00FB607FCF7CF8C9185FF8B
:1005F000F2CF808185FFEDCFCE010E947402E9CF5A
:10060000DF91CF91089580E090E0892B29F00E943E
:100610006A0281110E94000080E090E0892B49F07D
:1006200080E090E0892B29F00E94000081110E9457
:10063000000080E090E0892B49F080E090E0892B79
:1006400029F00E94000081110E94000080E090E0EB
:10065000892B49F080E090E0892B29F00E9400006E
:1006600081110C94000008958150823108F05AC025
:10067000E82FF0E08827E05CFC4F8F4F0C9462106D
:1006800060036403520358035C03920367036D0322
:10069000710377037B037F038503890392038D0333
:1006A00093039703809180008F7780938000089553
:1006B000809180008F7DF9CF80918000877FF5CF7A
:1006C00084B58F7784BD089584B58F7DFBCF8091ED
:1006D000B0008F778093B00008958091B0008F7D37
:1006E000F9CF809190008F7780939000089580914A
:1006F00090008F7DF9CF80919000877FF5CF80911A
:10070000A0008F778093A00008958091A0008F7D36
:10071000F9CF8091A000877FF5CF809120018F775E
:10072000809320010895809120018F7DF9CF8091E1
:100730002001877FF5CFCF93DF93282F30E0F90199
:10074000E259FD4F8491F901E85DFD4FD491F90123
:10075000EE51FE4FC491CC23A1F081110E943403CD
:10076000EC2FF0E0EE0FFF1FE853FE4FA591B49180
:10077000EC91ED2381E090E009F480E0DF91CF91EE
:10078000089580E090E0FACF1F93CF93DF93282F56
:1007900030E0F901E259FD4F8491F901E85DFD4F28
:1007A000D491F901EE51FE4FC491CC23A9F0162F3C
:1007B00081110E943403EC2FF0E0EE0FFF1FE25591
:1007C000FE4FA591B4918FB7F894EC91111108C028
:1007D000D095DE23DC938FBFDF91CF911F910895D9
:1007E000DE2BF8CFCF93DF9390E0FC01E85DFD4F67
:1007F00024918E519E4FFC0184918823C9F090E092
:10080000880F991FFC01EC56FE4FA591B491FC0195
:10081000E255FE4FC591D49161110DC09FB7F89478
:100820008C91209582238C938881282328839FBFD5
:10083000DF91CF910895623051F49FB7F8943C91C5
:10084000822F809583238C93E8812E2BEFCF8FB757
:10085000F894EC912E2B2C938FBFEACF3FB7F894EE
:100860008091330390913403A0913503B091360306
:1008700026B5A89B05C02F3F19F00196A11DB11DFB
:100880003FBFBA2FA92F982F8827BC01CD01620F37
:10089000711D811D911D42E0660F771F881F991FF2
:1008A0004A95D1F708958F929F92AF92BF92CF92BF
:1008B000DF92EF92FF926B017C010E942E044B01AC
:1008C0005C01C114D104E104F104B9F00E942E04CA
:1008D000681979098A099B09683E73408105910569
:1008E00080F321E0C21AD108E108F10888EE880EF1
:1008F00083E0981EA11CB11CE4CFFF90EF90DF9025
:10090000CF90BF90AF909F908F90089581309105C8
:1009100081F41092800082E0809381001092850023
:1009200010928400B19A80916F00826080936F0072
:1009300008958230910569F41092900082E08093CE
:100940009100109295001092940088BB80937100E2
:1009500008958330910569F41092A00082E080939D
:10096000A1001092A5001092A40089BB8093720090
:100970000895892B61F41092200182E08093210177
:1009800010922501109224018ABB80937300089570
:10099000AF92BF92CF92DF92EF92FF920F931F938D
:1009A000CF93DF936B017A01EC01C65DDC4F2881A8
:1009B0003CE0389F8001399F100D1124A090C204A3
:1009C000B12C27FF1FC0FB011182108288818F5F2D
:1009D000888388819801280F311D87FD3A95F6019B
:1009E0002A153B051CF488818C30C4F180819181EB
:1009F000049680349C4908F473C0F601808191818B
:100A0000049670C088819801280F311D87FD3A95A2
:100A10002A153B05DCF68881A801480F511D87FD8A
:100A20005A95FA01EE0FFF1FE40FF51FEE5CFB4F26
:100A3000808186FFCBCF8881F801E80FF11D87FD0B
:100A4000FA95CF01EE0FFF1FE80FF91FEE5CFB4F89
:100A5000808160E08F730E94C403B8CF8081918150
:100A60002881A801420F511D27FD5A959A01FA01CC
:100A7000EE0FFF1FE20FF31FEE5CFB4F218132816F
:100A8000820F931FF7019183808388819801280F3B
:100A9000311D87FD3A95F901EE0FFF1FE20FF31F9D
:100AA000EE5CFB4F808186FF22C08881080F111DFC
:100AB00087FD1A95F801EE0FFF1FE00FF11FEE5CA6
:100AC000FB4F808161E08F73DF91CF911F910F9178
:100AD000FF90EF90DF90CF90BF90AF900C94C40345
:100AE00080E49CE9F701918380838FEF8883DF9115
:100AF000CF911F910F91FF90EF90DF90CF90BF901B
:100B0000AF90089521E001C0220F6A95EAF7DC0159
:100B10001C962C931C971A965C934E931997ED9103
:100B2000FC910484F585E02D60E019940895089502
:100B3000DC01ED91FC910684F785E02D41E01995EB
:100B400081E090E00895DC01ED91FC910684F78549
:100B5000E02D40E01994EF92FF920F931F93CF93F3
:100B6000DF938B0198E0899FB001112460648BE3CF
:100B700095E00E94A30583E790E00197F1F7E80173
:100B8000085F1F4F8BE9E82EF12C69918BE395E00C
:100B90000E949805C7010197F1F7C017D107A9F77F
:100BA000DF91CF911F910F91FF90EF90089561E039
:100BB0000E94A3058BE39FE10197F1F708950F933E
:100BC0001F93CF93DF93EC01423018F08C81886043
:100BD0008C834F836887222329F0413019F48C815C
:100BE00084608C8364E670E080E090E00E945304AF
:100BF0006C8164FD57C0E881F9810684F785E02D9A
:100C000042E063E0CE0119958BE496E40197F1F799
:100C1000E881F9810684F785E02D42E063E0CE01AA
:100C2000199503E512E0C8010197F1F7E881F98110
:100C30000684F785E02D42E063E0CE011995C801F6
:100C40000197F1F7E881F9810684F785E02D42E00C
:100C500062E0CE011995C8010197F1F76C816062DD
:100C6000CE010E94A3058BEE90E00197F1F784E09E
:100C70008D836CE0CE010E94A305CE010E94D705B2
:100C800082E08E8366E0CE010E94A305E881F981AF
:100C90000484F585E02D6FEFCE01DF91CF911F9198
:100CA0000F9119946062CE010E94A3058BE496E433
:100CB0000197F1F76C816062CE010E94A30503E504
:100CC00012E0C8010197F1F76C816062CE010E94C9
:100CD000A305C1CF08950895089520910103260F1B
:100CE0003327331F21323105ECF420915F03FC01DF
:100CF00090E080E0243069F082E00895A091010343
:100D00002191AC014F515D4FA40FB52FB11D2C9314
:100D10000196861798F380910103680F6093010391
:100D200080E0089581E0089510925F0381E0809350
:100D30005E031092390361E084E10E94C40361E024
:100D400085E10E94C403E9EBF0E080818E7F80831F
:100D500080818D7F808388E48093B80085E48093D0
:100D6000BC000895CF93DF9391E09093E002882335
:100D7000B9F0C091B800D091BA008091BC008A7BD4
:100D80008093BC0060E084E10E94C40360E085E1E0
:100D90000E94C4030E949406D093BA00C093B80086
:100DA000DF91CF910895CF92DF92EF92FF920F9350
:100DB0001F93CF93DF93D091880381E0D13208F065
:100DC0009CC0C09187030E942E046B017C0180911E
:100DD0005F0381116CC082E080935F0381E08093A8
:100DE0005E038FEF80935D0310925C03D0935B03EF
:100DF000A7E6B3E0EBE3F3E080E0D8138DC01092F8
:100E00003A0380913A03CC0FC82BC0933A038091E8
:100E10003903813009F084C0109239030E942E04F6
:100E20006B017C0180913A038093BB008091610348
:100E300090916203A0916303B0916403892B8A2B84
:100E40008B2BA1F00E942E0400916103109162038C
:100E500020916303309164036C197D098E099F0909
:100E6000061717072807390708F442C08091BC000D
:100E700083FDD8CF85EC8093BC000E942E046B01CB
:100E80007C0180915F03823009F44CC080915D0346
:100E90008F3F09F469C080915D03803209F466C018
:100EA00080915D03803309F463C084E026C08091A3
:100EB000610390916203A0916303B0916403892B55
:100EC0008A2B8B2B09F483CF0E942E04009161039F
:100ED0001091620320916303309164036C197D09C2
:100EE0008E099F09061717072807390708F06FCFE3
:100EF000809160030E94B20685E010926603109212
:100F0000880310926503DF91CF911F910F91FF909D
:100F1000EF90DF90CF9008959D9191938F5F6DCF6B
:100F200085EEA9CF8091610390916203A091630344
:100F3000B0916403892B8A2B8B2B09F4A2CF0E94DA
:100F40002E0400916103109162032091630330919C
:100F500064036C197D098E099F0906171707280776
:100F6000390708F08ECFC4CF80E0C7CF82E0C5CF6D
:100F700083E0C3CF0895E091290380912803E81707
:100F800030F4F0E0E054FD4F808190E008958FEF61
:100F90009FEF089590912903809128032FEF3FEF51
:100FA000981748F4E92FF0E0E054FD4F208130E03D
:100FB0009F5F90932903C901089580912803909120
:100FC0002903891B990B0895CF92DF92EF92FF922C
:100FD0000F931F93CF93DF937C01CB018A01209164
:100FE0006503222389F0EB016B01C40ED51ECC15DD
:100FF000DD0569F06991D701ED91FC910190F081D7
:10100000E02DC7011995F3CF642F0E946D06C8012A
:10101000DF91CF911F910F91FF90EF90DF90CF90D4
:101020000895CF93DF931F92CDB7DEB769832091E8
:1010300065032223F9F020918803203258F021E043
:1010400030E0FC013383228390E080E00F90DF9159
:10105000CF91089580916603E82FF0E0E959FC4FA5
:10106000998190838F5F809366038093880381E0EA
:1010700090E0ECCF61E0CE0101960E946D06F7CFC3
:10108000FC0123812223F1F0262F618160956223E8
:101090006083828191E0909365038093870310922F
:1010A00066031092880386E294E00E9411080E9471
:1010B000D306282F30E081E090E0232B11F090E060
:1010C00080E0089530E020E0F6CFEF92FF920F939A
:1010D0001F93CF938C01FC0184E0C0E0262F30E009
:1010E00060FF02C09589C92BB9017595679581503C
:1010F00031968111F3CF413011F4F8014489F801A0
:101100006585C62BC42B7801FEE0EF0EF11CF801BB
:1011100062896C2BC7010E944008F80162896095C2
:101120006C23C701CF911F910F91FF90EF900C940A
:1011300040080F931F93CF93DF93062F0F70423019
:1011400041F440E0602FDF91CF911F910F910C94FB
:101150006508142FEC0170E084E0759567958A9519
:10116000E1F7CE010E946508412F602FCE01EBCF41
:10117000FC0184858823A1F0218532852115310564
:1011800021F4611107C0158606C021303105D9F759
:101190006111F9CF85876585CF010E960C944008C3
:1011A0000895EF92FF920F931F93CF93DF93EC017B
:1011B000062FF42EE22E8B85888B10922903109235
:1011C000280310926603109288030E94940686E911
:1011D00095E0909327038093260387E995E0909309
:1011E000250380932403888911E01093650380937D
:1011F00087030E94D30681111CC0198B86E294E0FC
:101200000E94CA078E878989882339F01F861C822D
:1012100060E0CE010E960E9440082E2D4F2D602FCB
:10122000CE01DF91CF911F910F91FF90EF900C9421
:10123000DF05198AE8CF90E080E00895862F0C94AE
:101240009B03862F642F0C94C403862F642F0C9469
:10125000F2030F931F93CF93DF9380913703909105
:10126000380320911A0230911B0221303105E1F53B
:1012700001969093380380933703209118023091A0
:1012800019028217930724F0109238031092370343
:10129000E0913703F0913803EE0FFF1FEE5BFD4F37
:1012A00000811181CAE0D0E0CE010A97B80102C0E6
:1012B000759567958A95E2F761708C2F0E94C4033B
:1012C0002196CE30D10581F784E090E09093190209
:1012D0008093180268EE73E080E090E0DF91CF9198
:1012E0001F910F910C9453040197909338038093AE
:1012F000370397FFCDCF8091180290911902019783
:101300009093380380933703C3CFFB0101900020F3
:10131000E9F73197AF01461B570BDC01ED91FC91CA
:101320000280F381E02D1994CF93DF93BC0189E80B
:1013300093E00E948509EC016CE872E089E893E093
:101340000E9485098C0F9D1FDF91CF910895CF9347
:10135000DF9385E30E949B03019709F0E7C08FE8C4
:1013600092E00E9494098091C904803308F043C040
:1013700061E089E10E94F2038091C904282F30E0E6
:10138000F901EE0FFF1FE20FF31FEE5CFB4F9081A0
:10139000907C996190831092CA041092CB042CE047
:1013A000622F0E945610829FB001112430E020E08D
:1013B000AB01420F531FFA01EE0FFF1FE40FF51FA1
:1013C000EE5CFB4F908196FD08C02F5F3F4F2C30A5
:1013D000310571F790E00E948604E091C9048E2FD8
:1013E00090E0FC01EE0FFF1FE80FF91FEE5CFB4FD2
:1013F000808180648083D0E0C0E0CE010E948F01B4
:1014000069E170E080E090E00E9453042196C53BC2
:10141000D10599F787E992E00E94940961E088E19B
:101420000E94C403C1E7D7E185E30E949B030197B3
:1014300041F461E070E080E090E00E945304219765
:1014400099F760E088E10E94C4038091C904803369
:1014500008F043C061E089E10E94F2038091C90471
:10146000282F30E0F901EE0FFF1FE20FF31FEE5CB3
:10147000FB4F9081907C996190831092CA041092E6
:10148000CB042CE0622F0E945610829FB0011124E1
:1014900030E020E0AB01420F531FFA01EE0FFF1FB7
:1014A000E40FF51FEE5CFB4F908196FD08C02F5FA7
:1014B0003F4F2C30310571F790E00E948604E09197
:1014C000C9048E2F90E0FC01EE0FFF1FE80FF91FFB
:1014D000EE5CFB4F808180648083C4EBD0E0CE0162
:1014E0000E948F0169E170E080E090E00E94530467
:1014F0002197A8F783EA92E00E94940961E086E1CF
:101500000E94C40361E087E10E94C40368EB7BE0B2
:1015100080E090E00E94530460E086E10E94C403F2
:1015200060E087E1DF91CF910C94C403DF91CF910C
:1015300008950E94701285ED8093BC008091610334
:1015400090916203A0916303B09164030796A11D7B
:10155000B11D23E0B695A795979587952A95D1F764
:101560002091BC0024FD03C010925F0308954091B8
:101570006103509162036091630370916403452B92
:10158000462B472B69F30097A105B10541F025E3F0
:101590002A95F1F700000197A109B109E1CF8091E7
:1015A00060030C94B2061F920F920FB60F92112493
:1015B0000BB60F922F933F934F935F936F937F934D
:1015C0008F939F93AF93BF93EF93FF9389E893E03B
:1015D0000E947402FF91EF91BF91AF919F918F9103
:1015E0007F916F915F914F913F912F910F900BBE23
:1015F0000F900FBE0F901F9018951F920F920FB66D
:101600000F9211240BB60F922F938F939F93EF930A
:10161000FF93E0919903F0919A038081E0919F03F9
:10162000F091A00382FD1DC090818091A2038F5F85
:101630008F732091A303821741F0E091A203F0E0A1
:10164000E757FC4F958F8093A203FF91EF919F91F5
:101650008F912F910F900BBE0F900FBE0F901F9088
:1016600018958081F2CF1F920F920FB60F9211241E
:101670002F933F938F939F93AF93BF9380912F03AB
:1016800090913003A0913103B091320330912E0339
:1016900023E0230F2D3758F50196A11DB11D20938E
:1016A0002E0380932F0390933003A0933103B093C4
:1016B00032038091330390913403A0913503B091AC
:1016C00036030196A11DB11D80933303909334031B
:1016D000A0933503B0933603BF91AF919F918F9143
:1016E0003F912F910F900FBE0F901F90189526E8F5
:1016F000230F0296A11DB11DD2CF1F920F920FB6DC
:101700000F9211240BB60F922F933F934F935F9339
:101710006F937F938F939F93AF93BF93EF93FF93B9
:1017200048E251E064E271E090E080E00E94C80489
:10173000FF91EF91BF91AF919F918F917F916F91A9
:101740005F914F913F912F910F900BBE0F900FBE65
:101750000F901F9018951F920F920FB60F921124A1
:101760000BB60F922F933F934F935F936F937F939B
:101770008F939F93AF93BF93EF93FF9348EA50E00B
:1017800064EA70E083E090E00E94C804FF91EF916A
:10179000BF91AF919F918F917F916F915F914F9189
:1017A0003F912F910F900BBE0F900FBE0F901F9087
:1017B00018951F920F920FB60F9211240BB60F922D
:1017C0002F933F934F935F936F937F938F939F9349
:1017D000AF93BF93EF93FF9348E950E064E970E063
:1017E00082E090E00E94C804FF91EF91BF91AF9119
:1017F0009F918F917F916F915F914F913F912F9129
:101800000F900BBE0F900FBE0F901F9018951F9258
:101810000F920FB60F9211240BB60F922F933F9396
:101820004F935F936F937F938F939F93AF93BF93E8
:10183000EF93FF9348E850E064E870E081E090E0C7
:101840000E94C804FF91EF91BF91AF919F918F913A
:101850007F916F915F914F913F912F910F900BBEB0
:101860000F900FBE0F901F9018951F920F920FB6FA
:101870000F9211240BB60F922F933F934F935F93C8
:101880006F937F938F939F93AF93BF93EF93FF9348
:101890008091B900887F803609F44DC008F040C0BF
:1018A000883209F4A9C028F5803109F49DC0C8F434
:1018B000882309F4FBC0883009F496C0FF91EF91AA
:1018C000BF91AF919F918F917F916F915F914F9158
:1018D0003F912F910F900BBE0F900FBE0F901F9056
:1018E0001895883109F488C0803241F780935D03F0
:1018F00014C0803409F49DC040F48033B9F38833B8
:10190000E9F680935D0385ECB0C0803509F485C0AD
:10191000883509F496C0883489F60E949B0ACECF98
:10192000883909F48CC038F5883729F050F48836A6
:1019300011F0803719F683E080935F031092230340
:1019400057C0883809F47BC0803919F0803809F015
:10195000B5CF80912303803208F071C0E09123035A
:1019600081E08E0F809323038091BB00F0E0ED5F58
:10197000FC4F80833DC0803B39F0E0F4803A09F4AD
:1019800079C0883A09F09ACF84E080935F0310927F
:10199000020310920103E0912603F09127031995A9
:1019A0008091010381110FC081E0809301031092A7
:1019B000E10209C0803C09F4A6CF883C09F4A3CF1A
:1019C000883B09F07BCFE091020381E08E0F80938A
:1019D0000203F0E0EF51FD4F80818093BB009091B6
:1019E00002038091010329C080913A038093BB00D8
:1019F00085EC8093BC0062CF90915C0380915B0387
:101A0000981758F5E0915C0381E08E0F80935C039A
:101A1000F0E0E55CFC4F8081E9CFE0915C0381E080
:101A20008E0F80935C038091BB00F0E0E55CFC4F7F
:101A3000808390915C0380915B039817C8F285E8DE
:101A4000D8CFE0915C0381E08E0F80935C0380919E
:101A5000BB00F0E0E55CFC4F808380915E03811168
:101A60005CCF81E08093390384EA8093BC001092BC
:101A70005F0324CF85EC8093BC0010925F038091BC
:101A80002303803230F4E0912303F0E0ED5FFC4F5C
:101A900010826091230370E0E0912403F09125030C
:101AA00083E093E019951092230308CF10925D0311
:101AB00034CF10928C0310928B0388EE93E0A0E059
:101AC000B0E080938D0390938E03A0938F03B09327
:101AD00090032EE432E030938A032093890325ECAF
:101AE00030E0309396032093950324EC30E030935C
:101AF00098032093970320EC30E030939A032093CF
:101B0000990321EC30E030939C0320939B0322EC5B
:101B100030E030939E0320939D0326EC30E0309319
:101B2000A00320939F031092A2031092A30310928C
:101B3000A4031092A5031092290410922804809304
:101B40002A0490932B04A0932C04B0932D0480E6D8
:101B500092E0909327048093260410923E05109201
:101B60003D058CE792E090933C0580933B051092F5
:101B70004B058FEF80934A051092490510924C0552
:101B800087E280934605109247051092480510920F
:101B900045051092440584E080934D0582E08093D2
:101BA0004E0581E080934F0580E18093500580E2EF
:101BB0008093510580E48093520580E8809353051B
:101BC0001092CE041092D2041092D1041092D30439
:101BD00082E792E09093CD048093CC04E8EEF4E0A9
:101BE0001082148213821582369685E0E432F8075B
:101BF000B9F780E292E090932F0580932E058CE157
:101C000092E0909331058093300584E08093320513
:101C10008093330584E292E090932D0580932C0508
:101C20008AE090E0909335058093340584EF91E04D
:101C3000909337058093360510923A051092390536
:101C4000109228051092290510922A0510922B0552
:101C5000109238058091C204803308F042C091E0B0
:101C6000980F9093C2048093C90490E0FC01EE0F9A
:101C7000FF1FE80FF91FEE5CFB4F88EB9BE09283A0
:101C800081831092C4041092C3041092C60410926F
:101C9000C5041092C8041092C70461E070E090E09F
:101CA00080E00E948F11009701F19093C40480930B
:101CB000C3041092C6041092C5042091C704309149
:101CC000C804232B11F4FC0110821092C804109256
:101CD000C7046EE872E08091C3049091C4040C9430
:101CE0007E128FEF8093C904CCCF8091C304909172
:101CF000C404009711F00E9406111092C4041092BF
:101D0000C3041092C8041092C7041092C604109223
:101D1000C5040895CF93DF9300D000D01F921F9287
:101D2000CDB7DEB7789484B5826084BD84B5816018
:101D300084BD85B5826085BD85B5816085BD809196
:101D40006E00816080936E0010928100809181000E
:101D50008260809381008091810081608093810006
:101D6000809180008160809380008091B1008460C8
:101D70008093B1008091B00081608093B000809129
:101D800091008260809391008091910081608093A6
:101D90009100809190008160809390008091A100DB
:101DA00082608093A1008091A10081608093A10056
:101DB0008091A00081608093A000809121018260C9
:101DC0008093210180912101816080932101809184
:101DD000200181608093200180917A00846080934B
:101DE0007A0080917A00826080937A0080917A00F4
:101DF000816080937A0080917A00806880937A0075
:101E00001092C100E0919903F0919A0382E08083DF
:101E1000E0919503F09196031082E0919703F09181
:101E200098038FEC80831092A103E0919D03F091C1
:101E30009E0386E08083E0919B03F0919C03808168
:101E400080618083E0919B03F0919C038081886096
:101E50008083E0919B03F0919C0380818068808364
:101E6000E0919B03F0919C0380818F7D808350E003
:101E700040E063E08BE395E00E94820561E08BE344
:101E800095E00E94B80820E042E060E18BE395E035
:101E90000E94D1088BE395E00E94D70560E172E0D3
:101EA00080E00E94AB0568E072E081E00E94AB0533
:101EB00060E072E082E00E94AB0561E089E10E948F
:101EC000F20361E088E10E94F20361E087E10E9491
:101ED000F20361E086E10E94F20360E085E30E9484
:101EE000F20360E08BE20E94F20360E08CE20E9469
:101EF000F20360E089E20E94F20360E08AE20E945D
:101F0000F20361E08AE00E94F20361E08BE00E944C
:101F1000F20361E08CE00E94F20361E08DE00E9438
:101F2000F20362E08BE395E00E94A3058BE39FE15F
:101F30000197F1F780913A0290913B02A0913C0207
:101F4000B0913D028D839E83AF83B88780913E021E
:101F500090913F02A0914002B091410289839A83FF
:101F6000AB83BC832091420581E0211180E0819503
:101F700090E0309143058C0F9D1FFC01303141F5FD
:101F8000243031F561816F5F60688BE395E00E94DA
:101F9000A30560E08BE395E00E94980563EB72E097
:101FA0008BE395E00E94850960E08BE395E00E9459
:101FB000980568E873E180E090E00E9453048BE3A9
:101FC00095E00E94D7050E94A7090E940303FBCF5A
:101FD0006581D9CF8091C3049091C404009711F01A
:101FE0000C9406110895052E97FB1EF400940E9490
:101FF0000A1057FD07D00E94251007FC03D04EF4AD
:102000000C940A1050954095309521953F4F4F4FB5
:102010005F4F089590958095709561957F4F8F4F94
:102020009F4F08950E944710A59F900DB49F900D5B
:10203000A49F800D911D11240895B7FF0C941210D8
:102040000E941210821B930B0895A1E21A2EAA1B64
:10205000BB1BFD010DC0AA1FBB1FEE1FFF1FA21758
:10206000B307E407F50720F0A21BB30BE40BF50B55
:10207000661F771F881F991F1A9469F760957095DE
:10208000809590959B01AC01BD01CF010895A29F61
:10209000B001B39FC001A39F700D811D1124911D3C
:1020A000B29F700D811D1124911D0895991B79E037
:1020B00004C0991F961708F0961B881F7A95C9F7D8
:1020C00080950895EE0FFF1F881F8BBF0790F69134
:1020D000E02D19940F931F93CF93DF9382309105D6
:1020E00010F482E090E0E0915605F091570530E061
:1020F00020E0B0E0A0E0309799F42115310509F413
:102100004AC0281B390B24303105D8F58A819B81C0
:102110006115710589F1FB0193838283FE0111C072
:10212000408151810281138148175907E0F0481717
:10213000590799F4109761F012960C931297139621
:102140001C933296CF01DF91CF911F910F9108958B
:102150000093560510935705F4CF2115310551F022
:102160004217530738F0A901DB019A01BD01DF01D5
:10217000F801C1CFEF01F9CF909357058093560531
:10218000CDCFFE01E20FF31F8193919322503109CD
:1021900039832883D7CF2091540530915505232BBF
:1021A00041F4209136023091370230935505209347
:1021B000540520913402309135022115310541F446
:1021C0002DB73EB74091380250913902241B350B90
:1021D000E0915405F0915505E217F307A0F42E1B8A
:1021E0003F0B2817390778F0AC014E5F5F4F24177B
:1021F000350748F04E0F5F1F509355054093540527
:10220000819391939FCFF0E0E0E09CCFCF93DF9359
:102210000097E9F0FC01329713821282A0915605D3
:10222000B0915705ED0130E020E01097A1F4208136
:102230003181820F931F2091540530915505281745
:10224000390709F061C0F0935505E0935405DF911B
:10225000CF910895EA01CE17DF07E8F54A815B8147
:102260009E0141155105B1F7E901FB83EA834991CC
:102270005991C40FD51FEC17FD0761F4808191813E
:102280000296840F951FE901998388838281938147
:102290009B838A83F0E0E0E012968D919C911397E6
:1022A0000097B9F52D913C911197CD010296820FBF
:1022B000931F20915405309155052817390739F699
:1022C000309751F51092570510925605B093550569
:1022D000A0935405BCCFD383C28340815181840F26
:1022E000951FC817D90761F44E5F5F4F88819981A8
:1022F000480F591F518340838A819B819383828336
:102300002115310509F0B0CFF0935705E09356053C
:102310009ECFFD01DC01C0CF13821282D7CF4F9236
:102320005F926F927F928F929F92AF92BF92CF9265
:10233000DF92EF92FF920F931F93CF93DF938C0165
:10234000009799F4CB01DF91CF911F910F91FF90EE
:10235000EF90DF90CF90BF90AF909F908F907F9045
:102360006F905F904F900C946A10FC01E60FF71F7E
:102370009C0122503109E217F30708F4AEC0D901DD
:10238000CD91DC911197C617D70720F1C530D10543
:1023900078F0CE0104978617970750F0C61BD70B2D
:1023A0002297C193D1936D937C93CF010E94061124
:1023B000C801DF91CF911F910F91FF90EF90DF90B7
:1023C000CF90BF90AF909F908F907F906F905F90D5
:1023D0004F9008955B01AC1ABD0A4C018C0E9D1EF6
:1023E000A0915605B0915705512C412CF12CE12CB0
:1023F000109731F5809154059091550588159905F0
:1024000009F05CC04616570608F058C080913402A7
:1024100090913502009741F48DB79EB740913802F4
:1024200050913902841B950BE817F90708F055C045
:10243000F0935505E0935405F90171836083B8CF9B
:102440008D919C91119712966C90129713967C9097
:102450001397A815B90559F56C0142E0C40ED11CBB
:10246000CA14DB0420F1AC014A195B09DA011296A7
:10247000159780F06282738251834083D9016D93F6
:102480007C93E114F10471F0D7011396FC93EE9361
:1024900012978ECF22968C0F9D1FF9019183808316
:1024A000F301EFCFF0935705E093560581CF48161F
:1024B000590608F42C017D01D3019ACFCB010E946B
:1024C0006A107C01009749F0AE01B8010E947512B4
:1024D000C8010E94061187016BCF10E000E068CFB1
:1024E00081E090E0F8940C948512FB01DC0102C0BD
:1024F00001900D9241505040D8F70895FB01DC0146
:1025000001900D920020E1F7089511E0CBE5D1E0B4
:1025100000E006C0802FFE010E9462102196011D7E
:10252000CC35D10780E00807A9F7F894FFCF1F1535
:10253000151F0E111F1F00110000110E00001F11AA
:10254000111F1F1F1F0004000100060708090203D6
:1025500004053738394134353642313233432A3075
:1025600023440000580580000040145400401050DF
:1025700008000400020001000000000096020002B2
:102580002D02E3025E023C0250020000000011082E
:10259000E4071B09BA07DD07CA07BB0700000000F4
:1025A000250921091E0900000000980500021B09E9
:1025B0006C06D1088205B80899080D0A003E3E2035
:1025C00048494748003E3E204C454420524F4A412E
:1025D000003E3E204C454420414D4152494C4C4127
:0E25E00000204249454E56454E49444F2000CA
:10E000000D9489F10D94B2F10D94B2F10D94B2F129
:10E010000D94B2F10D94B2F10D94B2F10D94B2F1F0
:10E020000D94B2F10D94B2F10D94B2F10D94B2F1E0
:10E030000D94B2F10D94B2F10D94B2F10D94B2F1D0
:10E040000D94B2F10D94B2F10D94B2F10D94B2F1C0
:10E050000D94B2F10D94B2F10D94B2F10D94B2F1B0
:10E060000D94B2F10D94B2F10D94B2F10D94B2F1A0
:10E070000D94B2F10D94B2F10D94B2F10D94B2F190
:10E080000D94B2F10D94B2F10D94B2F10D94B2F180
:10E090000D94B2F10D94B2F10D94B2F10D94B2F170
:10E0A0000D94B2F10D94B2F10D94B2F10D94B2F160
:10E0B0000D94B2F10D94B2F10D94B2F10D94B2F150
:10E0C0000D94B2F10D94B2F10D94B2F10D94B2F140
:10E0D0000D94B2F10D94B2F10D94B2F10D94B2F130
:10E0E0000D94B2F141546D656761323536300041AF
:10E0F000726475696E6F206578706C6F72657220DE
:10E1000073746B3530305632206279204D4C530099
:10E11000426F6F746C6F616465723E004875683F52
:10E1200000436F6D70696C6564206F6E203D200048
:10E130004350552054797065202020203D20005FF9
:10E140005F4156525F415243485F5F3D2000415658
:10E1500052204C696243205665723D20004743437C
:10E160002056657273696F6E203D20004350552024
:10E1700049442020202020203D20004C6F7720663D
:10E18000757365202020203D20004869676820665F
:10E190007573652020203D200045787420667573D6
:10E1A00065202020203D20004C6F636B2066757336
:10E1B000652020203D20004D617220203720323024
:10E1C000313300312E362E3800342E332E350056A2
:10E1D00023202020414444522020206F7020636F70
:10E1E00064652020202020696E73747275637469E1
:10E1F0006F6E2061646472202020496E74657272B3
:10E20000757074006E6F20766563746F7200726A49
:10E210006D702020006A6D70200057686174207056
:10E220006F72743A00506F7274206E6F7420737541
:10E2300070706F72746564004D7573742062652030
:10E2400061206C6574746572002000577269747483
:10E25000696E672045450052656164696E672045B7
:10E26000450045452065727220636E743D00504F35
:10E27000525400303D5A65726F2061646472003FF1
:10E280003D43505520737461747300403D454550C3
:10E29000524F4D207465737400423D426C696E6B41
:10E2A000204C454400453D44756D70204545505215
:10E2B0004F4D00463D44756D7020464C415348001B
:10E2C000483D48656C70004C3D4C69737420492F83
:10E2D0004F20506F72747300513D51756974005234
:10E2E0003D44756D702052414D00563D73686F7707
:10E2F00020696E7465727275707420566563746FF0
:10E30000727300593D506F727420626C696E6B00BD
:10E310002A0011241FBECFEFD1E2DEBFCDBF01E046
:10E320000CBF12E0A0E0B2E0EEE1FDEF03E00BBFB6
:10E3300002C007900D92A030B107D9F712E0A0E01B
:10E34000B2E001C01D92AE30B107E1F70F9460F367
:10E350000D948DFE01E20EBF0FEF0DBF11241FBE05
:10E360000D9460F30D9400F020E030E040ED57E0B4
:10E3700005C0FA013197F1F72F5F3F4F2817390792
:10E38000C0F308959C01260F311DC901A0E0B0E043
:10E390002F5F3F4FABBFFC018791882361F08093D3
:10E3A000C6008091C00086FFFCCF8091C0008064D1
:10E3B0008093C000EACF08958DE08093C6008091DD
:10E3C000C00086FFFCCF8091C00080648093C000B5
:10E3D0008AE08093C6008091C00086FFFCCF8091C8
:10E3E000C00080648093C00008950F94C2F10F9420
:10E3F000DCF10895FC019081992359F09093C600B7
:10E400008091C00086FFFCCF8091C0008064809323
:10E41000C0003196992379F70895282F982F929567
:10E420009F70892F805D8A3308F0895F8093C600D2
:10E430008091C00086FFFCCF8091C00080648093F3
:10E44000C000822F8F70982F905D9A3308F0995FEB
:10E450009093C6008091C00086FFFCCF8091C000E1
:10E4600080648093C00008959C01FB01853691056E
:10E470001CF46330710594F0C90164E670E00F94F8
:10E480002EFE605D7F4F6093C6008091C00086FFC6
:10E49000FCCF8091C00080648093C0002B30310598
:10E4A00014F43297B4F0C90164E670E00F942EFEC4
:10E4B0006AE070E00F942EFE605D7F4F6093C600AF
:10E4C0008091C00086FFFCCF8091C0008064809363
:10E4D000C000C9016AE070E00F942EFEC0968093E0
:10E4E000C6008091C00086FFFCCF8091C000806490
:10E4F0008093C00008951F93182F8EE692EE60E07F
:10E500000F94C2F11093C6008091C00086FFFCCF2B
:10E510008091C00080648093C0000F94DCF11F9153
:10E5200008952F923F924F925F926F927F928F92B7
:10E530009F92AF92BF92CF92DF92EF92FF920F9392
:10E540001F93DF93CF93CDB7DEB762970FB6F894E2
:10E55000DEBF0FBECDBF382E622ECA01DB015C01CB
:10E560006D01772420E2222E2E010894411C511CBB
:10E570008BC081E0A81680E0B80681E0C80680E084
:10E58000D80628F0C601AA27BB270F940DF2BB2797
:10E59000AD2D9C2D8B2D0F940DF28A2D0F940DF225
:10E5A0002092C6008091C00086FFFCCF8091C00001
:10E5B00080648093C0009DE29093C6008091C0006B
:10E5C00086FFFCCF8091C00080648093C0002092C1
:10E5D000C6008091C00086FFFCCF8091C00080649F
:10E5E0008093C00019828601750188249924A1E0D6
:10E5F0003A1651F03A1620F0B2E03B1661F409C029
:10E600000BBFF701779007C0C7010F9477FE782EF4
:10E6100002C0F7017080872D0F940DF22092C60082
:10E620008091C00086FFFCCF8091C0008064809301
:10E63000C000872D8052F401EF70F0708F3520F408
:10E64000E40DF51D708204C0E40DF51D8EE280839B
:10E650000894E11CF11C011D111D0894811C911CE2
:10E6600090E18916910409F0C2CF80E190E0A0E02A
:10E67000B0E0A80EB91ECA1EDB1E198AC2010F9493
:10E68000FAF10F94DCF16A94662009F072CF629679
:10E690000FB6F894DEBF0FBECDBFCF91DF911F91B3
:10E6A0000F91FF90EF90DF90CF90BF90AF909F9031
:10E6B0008F907F906F905F904F903F902F90089534
:10E6C0002F923F924F925F926F927F928F929F9282
:10E6D000AF92BF92CF92DF92EF92FF920F931F9370
:10E6E000DF93CF93CDB7DEB7CD53D1400FB6F894BB
:10E6F000DEBF0FBECDBF01E20EBF0FEF0DBF94B75F
:10E70000F894A89514BE80916000886180936000A1
:10E7100010926000789493FF05C0E0910002F091A0
:10E7200001021995279A2F9A8091C00082608093E8
:10E73000C00080E18093C40088E18093C1000000A4
:10E74000EE24FF24870144E0A42EB12CCC24DD2448
:10E7500024C0C5010197F1F70894E11CF11C011DCB
:10E76000111D21E2E2162EE4F20620E0020720E06D
:10E77000120718F031E0C32ED12CC801B70127ECE5
:10E780003BE140E050E00F9441FE611571058105C9
:10E79000910519F485B1805885B98091C00087FD35
:10E7A00003C0C114D104A9F2A6014F5F5F4FC25E3E
:10E7B000DE4F59834883CE51D140C25EDE4F8881FF
:10E7C0009981CE51D140019711F00D9410FEC05D9A
:10E7D000DE4F19821882C053D14060E0C15DDE4F28
:10E7E0001882CF52D14088249924C35DDE4F19820C
:10E7F0001882CD52D140C05EDE4F188219821A8233
:10E800001B82C052D140CE5CDE4F188219821A8220
:10E810001B82C253D140EE24FF2487010BBFF701B6
:10E8200007911691C45CDE4F19830883CC53D14005
:10E830000D940BFEC25EDE4F28813981CE51D1404E
:10E840002130310509F52091C600C25EDE4F1982E4
:10E850001882CE51D14022C02F5F3F4F4F4F5F4FA4
:10E86000213082E138078AE7480780E0580780F0C6
:10E87000C45CDE4FE881F981CC53D140EF5FFF4F9C
:10E8800019F0EE27FF27099420E030E040E050E047
:10E890008091C00087FFE0CF2091C600C35DDE4FAE
:10E8A00048815981CD52D1404F5F5F4FC35DDE4FEC
:10E8B00059834883CD52D140213209F063C64A3092
:10E8C000510508F05FC60894811C911C53E0851621
:10E8D000910409F059C600E010E018C081E280936D
:10E8E000C6008091C00086FFFCCF8091C00080648C
:10E8F0008093C0002F5F3F4F2931310579F70F9486
:10E90000DCF10F5F1F4F0530110519F020E030E0FA
:10E91000E5CF10920A0210920B0210920C02109294
:10E920000D02109206021092070210920802109235
:10E930000902109202021092030210920402109235
:10E9400005028FEE90EE60E00F94F5F180E191EE1C
:10E9500060E00F94C2F18091C00087FFFCCF9091DE
:10E96000C600903608F09F759032B8F09093C600BC
:10E970008091C00086FFFCCF8091C00080648093AE
:10E98000C000A0E2A093C6008091C00086FFFCCF2B
:10E990008091C00080648093C000983409F4D7C18E
:10E9A0009934B8F4923409F459C1933458F490333B
:10E9B00019F1903308F4E3C59F33A1F1903409F0C5
:10E9C000DEC5BDC0953409F470C1963409F0D7C5D1
:10E9D00098C1923509F42BC2933538F49C3409F46C
:10E9E000F5C1913509F0CBC518C2963509F445C279
:10E9F000993509F0C4C567C483E792EE62E00F94CD
:10EA0000F5F110920602109207021092080210927D
:10EA1000090210920A0210920B0210920C0210923C
:10EA20000D0213C18FE792EE62E00F94F5F18FEEC5
:10EA300090EE60E00F94F5F181E291EE60E00F94CA
:10EA4000C2F187EB91EE60E00F94F5F180E391EE77
:10EA500060E00F94C2F184EE90EE60E00F94F5F167
:10EA60008FE391EE60E00F94C2F186E090E061E008
:10EA700070E00F9434F20F94DCF18DE591EE60E0DC
:10EA80000F94C2F189EC91EE60E00F94F5F18EE401
:10EA900091EE60E00F94C2F183EC91EE60E00F9490
:10EAA000F5F18CE691EE60E00F94C2F18EE10F94E7
:10EAB0000DF288E90F940DF281E00F940DF20F949E
:10EAC000DCF18BE791EE60E00F94C2F119E0E0E039
:10EAD000F0E010935700E4918E2F0F940DF20F94F5
:10EAE000DCF18AE891EE60E00F94C2F1E3E0F0E03F
:10EAF00010935700E4918E2F0F940DF20F94DCF1D8
:10EB000089E991EE60E00F94C2F1E2E0F0E0109349
:10EB10005700E4918E2F0F940DF20F94DCF188EAE8
:10EB200091EE60E00F94C2F1E1E0F0E01093570045
:10EB30001491812F0F940DF20F94DCF107CF8BE825
:10EB400092EE62E00F94F5F18BE492EE60E00F94A8
:10EB5000F5F10F94DCF100E010E019C0C8016F2D51
:10EB60000F947FFEFF2031F489E492EE60E00F9471
:10EB7000C2F10BC0F092C6008091C00086FFFCCFAE
:10EB80008091C00080648093C0000F5F1F4FC80158
:10EB900081519F41A0E0B0E0ABBFFC01F790BAE229
:10EBA000FB1621F0E2E000301E07C1F60F94DCF105
:10EBB0000F94DCF187E592EE60E00F94F5F10F948D
:10EBC000DCF1CC24DD2400E010E01EC0C8010F946D
:10EBD00077FEF82E882331F489E492EE60E00F94FA
:10EBE000C2F10BC08093C6008091C00086FFFCCFAD
:10EBF0008091C00080648093C000FE1419F00894D6
:10EC0000C11CD11C0F5F1F4FC80181519F41A0E063
:10EC1000B0E0ABBFFC01E790FAE2EF1621F022E092
:10EC20000030120799F60F94DCF10F94DCF182E6C4
:10EC300092EE60E00F94C2F1C60161E070E00F94C3
:10EC400034F20F94DCF10F94DCF110920202109276
:10EC50000302109204021092050278CE89E992EE26
:10EC600062E00F94F5F1279A2F9A16C02F9880E052
:10EC700090E0E0EDF7E03197F1F7019684369105E9
:10EC8000C1F72F9A80E090E0E0EDF7E03197F1F7DF
:10EC9000019684369105C1F78091C00087FFE6CFC9
:10ECA0008091C00087FFFCCF64C485EA92EE62E0E9
:10ECB0000F94F5F140910202509103026091040219
:10ECC0007091050281E020E10F9491F2809102029F
:10ECD00090910302A0910402B091050280509F4FD1
:10ECE000AF4FBF4F8093020290930302A0930402A0
:10ECF000B093050280509041A040B04008F426CE69
:10ED0000A4CF83EB92EE62E00F94F5F140910602FE
:10ED100050910702609108027091090280E020E1A1
:10ED20000F9491F28091060290910702A09108023F
:10ED3000B091090280509F4FAF4FBF4F80930602A2
:10ED400090930702A0930802B0930902FFCD80ECD4
:10ED500092EE62E00F94F5F183E792EE60E00F949B
:10ED6000F5F18FE792EE60E00F94F5F18BE892EE0B
:10ED700060E00F94F5F189E992EE60E00F94F5F10F
:10ED800085EA92EE60E00F94F5F183EB92EE60E09D
:10ED90000F94F5F180EC92EE60E00F94F5F187ECC2
:10EDA00092EE60E00F94F5F188ED92EE60E00F9442
:10EDB000F5F18FED92EE60E00F94F5F18AEE92EEB0
:10EDC00060E00F94F5F183E093EEBDCD87EC92EE19
:10EDD00062E00F94F5F181E40F947BF282E40F94EA
:10EDE0007BF283E40F947BF284E40F947BF285E45E
:10EDF0000F947BF286E40F947BF287E40F947BF20E
:10EE000088E40F947BF28AE40F947BF28BE40F94F6
:10EE10007BF28CE40F947BF299CD88ED92EE62E068
:10EE20000F94F5F1772473948824992409C48FED05
:10EE300092EE62E00F94F5F140910A0250910B02BC
:10EE400060910C0270910D0282E020E10F9491F22A
:10EE500080910A0290910B02A0910C02B0910D02D8
:10EE600080509F4FAF4FBF4F80930A0290930B0289
:10EE7000A0930C02B0930D0269CD8AEE92EE62E08F
:10EE80000F94F5F184EE90EE60E00F94F5F18FECC5
:10EE900091EE60E00F94F5F1662477244301CC5D98
:10EEA000DE4F19821882C452D140D401C301B695F5
:10EEB000A79597958795CA5DDE4F88839983AA8326
:10EEC000BB83C652D140CC5DDE4FA881B981C4520C
:10EED000D1401196CC5DDE4FB983A883C452D14096
:10EEE000CD0162E070E00F9434F2B0E2B093C6005E
:10EEF0008091C00086FFFCCF8091C0008064809329
:10EF0000C000EDE2E093C6008091C00086FFFCCF18
:10EF10008091C00080648093C000F0E2F093C6004E
:10EF20008091C00086FFFCCF8091C00080648093F8
:10EF3000C000CA5DDE4FE880F9800A811B81C6529D
:10EF4000D140BB27A12F902F8F2D0F940DF2CA5DBA
:10EF5000DE4F8881C652D1400F940DF2B0E2FB2EF5
:10EF6000F092C6008091C00086FFFCCF8091C00067
:10EF700080648093C0000DE30093C6008091C000C0
:10EF800086FFFCCF8091C00080648093C00010E2B7
:10EF90001093C6008091C00086FFFCCF8091C00016
:10EFA00080648093C0008BBEF3012791C65DDE4F65
:10EFB0002883CA52D140A22EBB24CC24DD2408943D
:10EFC000611C711C811C911C8BBEF3018791282E42
:10EFD0003324442455240894611C711C811C911C09
:10EFE0008BBEF3013791C55DDE4F3883CB52D140E4
:10EFF0000894611C711C811C911C8BBEF30147910C
:10F00000C45DDE4F4883CC52D140ADEFEA2EAFEF66
:10F01000FA2EAFEF0A2FAFEF1A2F6E0C7F1C801E57
:10F02000911E142D032DF22CEE24EA0CFB1C0C1D5A
:10F030001D1D0F940DF220E22093C6008091C000A8
:10F0400086FFFCCF8091C00080648093C000C65DC5
:10F05000DE4F8881CA52D1400F940DF230E23093D6
:10F06000C6008091C00086FFFCCF8091C000806404
:10F070008093C000C45DDE4F8881CC52D1400F9494
:10F080000DF240E24093C6008091C00086FFFCCFA5
:10F090008091C00080648093C000C55DDE4F888190
:10F0A000CB52D1400F940DF250E25093C6008091A4
:10F0B000C00086FFFCCF8091C00080648093C000B8
:10F0C0008FEFE8168FEFF80680E0080780E018075A
:10F0D00031F484E092EE60E00F94C2F1DFC0D80119
:10F0E000C7018070907CA070B0708050904CA040A0
:10F0F000B040D1F52FEF3FE340E050E0E222F322B1
:10F1000004231523CA5DDE4FA880B980CA80DB8046
:10F11000C652D140AE0CBF1CC01ED11EAA0CBB1CD7
:10F12000CC1CDD1C8EE092EE60E00F94C2F1BB2798
:10F13000A12F902F8F2D0F940DF28E2D0F940DF285
:10F1400030E23093C6008091C00086FFFCCF8091F2
:10F15000C00080648093C0004EE34093C60080915D
:10F16000C00086FFFCCF87C08EE09EEFA0E0B0E03D
:10F17000E822F9220A231B239CE0E91694E9F90608
:10F1800090E0090790E0190709F088C0C45DDE4FE0
:10F19000A881CC52D140EA2EFF2400E010E0102FCD
:10F1A0000F2DFE2CEE24C55DDE4FB881CB52D14031
:10F1B000EB0EF11C011D111DD601C501817090706F
:10F1C000A070B070DC0199278827E80EF91E0A1F8D
:10F1D0001B1F20EF30E040E050E0A222B322C42207
:10F1E000D52241E1AA0CBB1CCC1CDD1C4A95D1F7F1
:10F1F000EA0CFB1C0C1D1D1D81E090E0A0E0B0E0BE
:10F20000282239224A225B2235E1220C331C441C7D
:10F21000551C3A95D1F7E20CF31C041D151D57013E
:10F220006801AA0CBB1CCC1CDD1C85E192EE60E0E1
:10F230000F94C2F1C801AA27BB270F940DF2BB2778
:10F24000A12F902F8F2D0F940DF28E2D0F940DF274
:10F2500090E29093C6008091C00086FFFCCF809121
:10F26000C00080648093C000AEE3A093C60080918C
:10F27000C00086FFFCCF8091C00080648093C000F6
:10F28000C601AA27BB270F940DF2BB27AD2D9C2DDD
:10F290008B2D0F940DF28A2D0F940DF20F94DCF14B
:10F2A000CC5DDE4FE881F981C452D140F99709F471
:10F2B0004DCBF4E0EF2EF12C012D112D6E0C7F1CA7
:10F2C000801E911EF2CD83E093EE62E00F94F5F183
:10F2D0008AE192EE60E00F94C2F18091C00087FF56
:10F2E000FCCF1091C6001F751093C6008091C0001E
:10F2F00086FFFCCF8091C00080648093C0000F9493
:10F30000DCF1812F81548A3108F036C1163409F4BA
:10F3100095C0173490F4133409F44EC0143430F40B
:10F320001134F1F0123409F01DC130C0143409F465
:10F3300059C0153409F016C16BC01A3409F4C4C0A1
:10F340001B3438F4173409F48FC0183409F00AC19B
:10F35000A1C01B3409F4D2C01C3409F003C1E8C0B9
:10F360008FEF81B90DC082B1809582B980E090E0C5
:10F37000E0EDF7E03197F1F70196883C9105C1F790
:10F380008091C00087FFEFCF12B8EFC08FEF84B934
:10F390000DC085B1809585B980E090E0E0EDF7E0A3
:10F3A0003197F1F70196883C9105C1F78091C00033
:10F3B00087FFEFCF15B8D9C08FEF87B90DC088B1DF
:10F3C000809588B980E090E0E0EDF7E03197F1F7C3
:10F3D0000196883C9105C1F78091C00087FFEFCF6F
:10F3E00018B8C3C08FEF8AB90DC08BB180958BB9A7
:10F3F00080E090E0E0EDF7E03197F1F70196883C8E
:10F400009105C1F78091C00087FFEFCF1BB8ADC059
:10F410008FEF8DB90DC08EB180958EB980E090E0F0
:10F42000E0EDF7E03197F1F70196883C9105C1F7DF
:10F430008091C00087FFEFCF1EB897C08FEF80BBD1
:10F440000DC081B3809581BB80E090E0E0EDF7E0F6
:10F450003197F1F70196883C9105C1F78091C00082
:10F4600087FFEFCF11BA81C08FEF83BB0DC084B38C
:10F47000809584BB80E090E0E0EDF7E03197F1F714
:10F480000196883C9105C1F78091C00087FFEFCFBE
:10F4900014BA6BC08FEF809301010FC080910201FD
:10F4A00080958093020180E090E0E0EDF7E03197F5
:10F4B000F1F70196883C9105C1F78091C00087FF64
:10F4C000EDCF1092020151C08FEF809304010FC065
:10F4D0008091050180958093050180E090E0E0ED4A
:10F4E000F7E03197F1F70196883C9105C1F78091DB
:10F4F000C00087FFEDCF1092050137C08FEF8093DA
:10F5000007010FC08091080180958093080180E079
:10F5100090E0E0EDF7E03197F1F70196883C910536
:10F52000C1F78091C00087FFEDCF109208011DC088
:10F530008FEF80930A010FC080910B01809580931B
:10F540000B0180E090E0E0EDF7E03197F1F70196F4
:10F55000883C9105C1F78091C00087FFEDCF1092E4
:10F560000B0103C085E292EEEEC98091C00087FFD7
:10F57000FCCF8091C600EAC988E392EEE4C98CE131
:10F5800091EEE1C988249924933011F1943028F444
:10F59000913089F09230B8F408C0953061F195301F
:10F5A000F0F0963009F048C043C02B3109F042C951
:10F5B00091E06BE13FC96227C15DDE4F2883CF52E6
:10F5C000D14092E037C9B22FA0E0622793E032C960
:10F5D000822F90E0A82BB92B622794E02BC92E3004
:10F5E00009F039C3622795E0C05DDE4F19821882A9
:10F5F000C053D1401FC9E1E0F0E0EC0FFD1FC05D3A
:10F60000DE4F08811981C053D140E00FF11F2083E4
:10F610000F5F1F4FC05DDE4F19830883C053D14079
:10F6200062270A171B0709F005C9D80196E002C92D
:10F63000261709F010C303C0973009F0FBC87724E0
:10F640009981933109F412C19431C8F4963009F4C8
:10F65000D8C0973050F4923009F406C1933009F4C1
:10F660006DC0913009F059C253C0913109F477C08F
:10F67000923108F0BBC0903109F04FC2F5C098310B
:10F6800009F487C0993150F4953109F4EFC09531F0
:10F6900008F4C6C1963109F040C2C2C19A3109F4DA
:10F6A0006CC09A3108F491C09B3109F45BC09D3164
:10F6B00009F033C29D81903359F48F81882311F46E
:10F6C0009EE11CC0813011F091E018C098E916C08D
:10F6D000892F807591F0903539F4E0E0F0E089E011
:10F6E0008093570094910AC0983539F4E3E0F0E034
:10F6F00089E080935700949101C090E01A821B82A8
:10F700008D818C831D829E831F8227E030E009C299
:10F710001A8288E08B8381E48C8386E58D8382E581
:10F720008E8389E48F8383E5888780E589878FE5E9
:10F730008A8782E38B872BE030E0F3C18A818139AD
:10F7400041F0823941F0803911F48FE005C080E04A
:10F7500003C082E001C08AE01A828B8344C0772410
:10F76000739482C08D81882311F48EE12CC0813086
:10F7700011F081E028C088E926C01A82E1E0F0E0BB
:10F7800089E08093570084918B831C8224E030E0D1
:10F79000C8C18B81803589F48C81883039F4E2E0EE
:10F7A000F0E089E08093570084910DC0E0E0F0E044
:10F7B00089E080935700849106C0E3E0F0E089E09F
:10F7C0008093570084911A82DFCF8D81836C99E0FA
:10F7D000E1E0F0E0082E90935700E89507B600FCB2
:10F7E000FDCF1A821B8223E030E09BC180EC8A832C
:10F7F000CE5CDE4F188219821A821B82C253D1401E
:10F800008EC18A8190E0A0E0B0E0582F44273327D2
:10F8100022278B8190E0A0E0B0E0DC0199278827C7
:10F82000282B392B4A2B5B2B8D8190E0A0E0B0E098
:10F83000282B392B4A2B5B2B8C8190E0A0E0B0E089
:10F84000BA2FA92F982F8827282B392B4A2B5B2BCF
:10F85000220F331F441F551FC05EDE4F288339839C
:10F860004A835B83C052D1401A8259C13A81C95C34
:10F87000DE4F3883C753D140CA5CDE4F1882C6536F
:10F88000D1408B81C82EDD24CA5CDE4F488159816E
:10F89000C653D140C42AD52A933109F082C0CE5C28
:10F8A000DE4F88819981AA81BB81C253D1408050AB
:10F8B000904CA340B04030F583E0CE5CDE4FE88052
:10F8C000F9800A811B81C253D140F70100935B008C
:10F8D00080935700E89507B600FCFDCFCE5CDE4F65
:10F8E000088119812A813B81C253D14000501F4FAA
:10F8F0002F4F3F4FCE5CDE4F088319832A833B8313
:10F90000C253D140C05EDE4F488159816A817B81FC
:10F91000C052D140DE011B9631E08C9111962C91A2
:10F9200011971296C75CDE4F2883C953D140C85C3B
:10F93000DE4F1882C853D14090E0C85CDE4FE881AA
:10F94000F981C853D1408E2B9F2B0C01FA01609393
:10F950005B0030935700E89511244E5F5F4F6F4F67
:10F960007F4F0EEFE02E0FEFF02ECE0CDF1CC114F8
:10F97000D10499F685E0C05EDE4F088119812A81A5
:10F980003B81C052D140F80120935B008093570027
:10F99000E89507B600FCFDCF81E180935700E8951C
:10F9A00035C0C05EDE4F88819981AA81BB81C0527B
:10F9B000D140B695A795979587957C018601ABE0D8
:10F9C000AA2EB12CAC0EBD1E0BC0D5016D915D01F0
:10F9D000C7010F947FFE0894E11CF11C01501040F8
:10F9E0000115110591F7A60160E070E0440F551F65
:10F9F000661F771FC05EDE4FE880F9800A811B8199
:10FA0000C052D1404E0D5F1D601F711F1A82C05E33
:10FA1000DE4F488359836A837B83C052D1407FC0C5
:10FA2000FA80C55CDE4FF882CB53D140C65CDE4F16
:10FA30001882CA53D1408B81C82EDD24C65CDE4FAC
:10FA400008811981CA53D140C02AD12A1A828981DA
:10FA5000BE016D5F7F4F843121F59601C05EDE4FA0
:10FA6000E880F9800A811B81C052D1400BBFF701A9
:10FA700087919691DB018C9311969C936E5F7F4FDB
:10FA8000D801C7010296A11DB11DC05EDE4F88835B
:10FA90009983AA83BB83C052D14022503040F1F6F3
:10FAA00036C0C05EDE4F288139814A815B81C052F9
:10FAB000D1400894C108D108760100E010E0089414
:10FAC000C11CD11C0894E11CF11C011D111DE20E8A
:10FAD000F31E041F151F21BDBB27A52F942F832FB5
:10FAE00082BD2F5F3F4F4F4F5F4FF89A80B5DB01CC
:10FAF0008D93BD012E153F054007510761F7C05E8C
:10FB0000DE4F288339834A835B83C052D1409601FC
:10FB10002D5F3F4FFB01108204C080EC8A8322E0FE
:10FB200030E08BE18093C6008091C00086FFFCCF5F
:10FB30008091C00080648093C000C15DDE4FF88179
:10FB4000CF52D140F093C6008091C00086FFFCCF19
:10FB50008091C00080648093C000432F3093C60022
:10FB60008091C00086FFFCCF8091C00080648093AC
:10FB7000C000922F2093C6008091C00086FFFCCF6A
:10FB80008091C00080648093C0008EE08093C600A6
:10FB90008091C00086FFFCCF8091C000806480937C
:10FBA000C00065E1C15DDE4FE880CF52D1406E25D7
:10FBB00069276427FE01319610C090819093C6009A
:10FBC0008091C00086FFFCCF31968091C000806498
:10FBD0008093C0006927215030402115310569F715
:10FBE0006093C6008091C00086FFFCCF8091C0006A
:10FBF00080648093C00085B1805885B9772081F4F6
:10FC0000C15DDE4F0881CF52D1400F5FC15DDE4F35
:10FC10000883CF52D14090E0A0E0B0E00D941AF4F8
:10FC200027982F9880E090E020ED37E0F901319798
:10FC3000F1F7019684369105C9F700008091C00064
:10FC40008D7F8093C00081E180935700E895EE2777
:10FC5000FF270994FFCF90E00D941AF497FB092E2B
:10FC600007260AD077FD04D02ED006D000201AF443
:10FC7000709561957F4F0895F6F7909581959F4F08
:10FC80000895A1E21A2EAA1BBB1BFD010DC0AA1FDD
:10FC9000BB1FEE1FFF1FA217B307E407F50720F0F5
:10FCA000A21BB30BE40BF50B661F771F881F991F70
:10FCB0001A9469F760957095809590959B01AC01B9
:10FCC000BD01CF010895AA1BBB1B51E107C0AA1FAC
:10FCD000BB1FA617B70710F0A61BB70B881F991FED
:10FCE0005A95A9F780959095BC01CD010895F99991
:10FCF000FECF92BD81BDF89A992780B50895262F31
:10FD0000F999FECF1FBA92BD81BD20BD0FB6F89400
:0EFD1000FA9AF99A0FBE01960895F894FFCF63
:00000001FF
