:100000000C945C010C948D010C948D010C948D0169
:100010000C948D010C948D010C948D010C948D0128
:100020000C948D010C948D010C948D010C948D0118
:100030000C948D010C948D010C948D010C948D0108
:100040000C948D010C94150B0C948D010C948D0166
:100050000C948D010C948D010C948D010C94410A2B
:100060000C948D010C940B0A0C94E1090C948D01F5
:100070000C948D010C948D010C948D010C948D01C8
:100080000C94E70A0C948D010C948D010C948D0155
:100090000C948D010C948D010C948D010C94430BE8
:1000A0000C948D010C948D010C94B90A0C948D0163
:1000B0000C948D010C948D010C948D010C948B0A81
:1000C0000C948D010C948D010C948D010C948D0178
:1000D0000C948D010C948D010C948D010C948D0168
:1000E0000C948D010C946D030C9411080C94670C06
:1000F0000C9496020C94E3020C9464030C94710328
:100100000C9425090C9400020C9458030C94D1080B
:100110000C9492030C9498050C94E4070C948503BA
:100120000C9452030C946C060C94BB070C945C0367
:100130000C9482050C9460030C9497030C9499081A
:100140000C945D0F0C947F030C943C020C945002B1
:100150000C9467030C9496050C9497050C94210954
:100160000C942D020C945E020C948D030C94770376
:100170000C947B030C9489030C941B090C94CA0700
:100180000C94B8080C9493030C94BA070C941E09B1
:100190000C94DD0700002100240027002A002D0018
:1001A0003000330001010000040107010A010000D2
:1001B0002200250028002B002E003100340002010F
:1001C0000000050108010B010000200023002600AB
:1001D00029002C002F00320000010000030106015D
:1001E00009010505050507050808080802020202BD
:1001F0000A0A0808040404040101010101010101C3
:100200000303030303030303040707070C0C0C0C8D
:100210000C0C0C0C02020202060606060606060676
:100220000B0B0B0B0B0B0B0B010210202008081003
:100230002040102040800201020108040201010256
:10024000040810204080804020100804020180042F
:10025000020180402010080402010804020101028A
:100260000408102040800102040810204080000093
:100270000A0B02090C0D0E08070304010000000020
:10028000000000000000000000000000000000006E
:10029000000000000000000000001211100000002B
:1002A000000000000000000000000000000000004E
:1002B00000000000670C5D0F11241FBECFEFD1E2DC
:1002C000DEBFCDBF00E00CBF13E0A0E0B2E0ECEF7A
:1002D000F3E200E00BBF02C007900D92A634B10715
:1002E000D9F725E0A6E4B3E001C01D92A03EB20715
:1002F000E1F711E0CBE5D1E000E006C0219701096C
:10030000802FFE010E94C90FCA35D10780E008077F
:10031000A9F70E94980D0C94EC110C9400008F9298
:100320009F92AF92BF92FF920F931F93CF93DF9351
:100330008F3F980709F461C0853B910511F484EB68
:1003400090E0F09051052FE22F1508F44CC0209159
:10035000530508E512E0021B110927FD1395000F54
:10036000111F000F111F20915205C8E8D0E0C21BD9
:10037000D10927FDD395CC0FDD1FCC0FDD1F4E011A
:100380000D2E000CAA08BB089801012E000C440B8E
:10039000550B281939094A095B09DC010E94900FA5
:1003A00024EB30E040E050E00E94660F820E931E86
:1003B000A41EB51E8C169D062CF0E8018016910631
:1003C0000CF4E4012297CC0FDD1F2FB7F8948F2D8A
:1003D00090E0FC01EE0FFF1FE80FF91FE654FB4F02
:1003E000D283C1832FBFDF91CF911F910F91FF90D7
:1003F000BF90AF909F908F90089590E080E0A1CF44
:10040000AF92BF92CF92DF92EF92FF920F931F9322
:10041000CF93DF936C017B018B01040F151FEB0160
:100420005E01AE18BF08C017D10759F06991D60117
:10043000ED91FC910190F081E02DC6011995892B79
:1004400079F7C501DF91CF911F910F91FF90EF9048
:10045000DF90CF90BF90AF900895FC01538D448DF5
:10046000252F30E0842F90E0821B930B541710F05F
:10047000CF96089501970895FC01918D828D98176C
:1004800061F0A28DAE0FBF2FB11D5D968C91928D44
:100490009F5F9F73928F90E008958FEF9FEF089575
:1004A000FC01918D828D981731F0828DE80FF11D3E
:1004B000858D90E008958FEF9FEF0895FC01918D59
:1004C000228D892F90E0805C9F4F821B91098F7352
:1004D0009927089581E194E00E945E0221E0892B32
:1004E00009F420E0822F0895FC01A48DA80FB92FF4
:1004F000B11DA35ABF4F2C91848D90E001968F734C
:100500009927848FA689B7892C93A089B1898C916A
:10051000837080648C93938D848D981306C00288B9
:10052000F389E02D80818F7D80830895EF92FF9283
:100530000F931F93CF93DF93EC0181E0888F9B8D06
:100540008C8D98131AC0E889F989808185FF15C0C0
:100550009FB7F894EE89FF896083E889F9898081E3
:100560008370806480839FBF81E090E0DF91CF91B2
:100570001F910F91FF90EF900895F62E0B8D10E0D4
:100580000F5F1F4F0F731127E02E8C8D8E110CC043
:100590000FB607FCFACFE889F989808185FFF5CF8E
:1005A000CE010E947402F1CFEB8DEC0FFD2FF11DF7
:1005B000E35AFF4FF0829FB7F8940B8FEA89FB89CB
:1005C00080818062CFCFCF93DF93EC01888D882329
:1005D000B9F0AA89BB89E889F9898C9185FD03C0A6
:1005E000808186FD0DC00FB607FCF7CF8C9185FF8B
:1005F000F2CF808185FFEDCFCE010E947402E9CF5A
:10060000DF91CF91089580E090E0892B29F00E943E
:100610006A0281110E94000080E090E0892B49F07D
:1006200080E090E0892B29F00E94000081110E9457
:10063000000080E090E0892B49F080E090E0892B79
:1006400029F00E94000081110E94000080E090E0EB
:10065000892B49F080E090E0892B29F00E9400006E
:1006600081110C94000008958150823108F05AC025
:10067000E82FF0E08827E05CFC4F8F4F0C94C90F07
:1006800060036403520358035C03920367036D0322
:10069000710377037B037F038503890392038D0333
:1006A00093039703809180008F7780938000089553
:1006B000809180008F7DF9CF80918000877FF5CF7A
:1006C00084B58F7784BD089584B58F7DFBCF8091ED
:1006D000B0008F778093B00008958091B0008F7D37
:1006E000F9CF809190008F7780939000089580914A
:1006F00090008F7DF9CF80919000877FF5CF80911A
:10070000A0008F778093A00008958091A0008F7D36
:10071000F9CF8091A000877FF5CF809120018F775E
:10072000809320010895809120018F7DF9CF8091E1
:100730002001877FF5CFCF93DF93282F30E0F90199
:10074000E259FD4F8491F901E85DFD4FD491F90123
:10075000EE51FE4FC491CC23A1F081110E943403CD
:10076000EC2FF0E0EE0FFF1FE853FE4FA591B49180
:10077000EC91ED2381E090E009F480E0DF91CF91EE
:10078000089580E090E0FACF1F93CF93DF93282F56
:1007900030E0F901E259FD4F8491F901E85DFD4F28
:1007A000D491F901EE51FE4FC491CC23A9F0162F3C
:1007B00081110E943403EC2FF0E0EE0FFF1FE25591
:1007C000FE4FA591B4918FB7F894EC91111108C028
:1007D000D095DE23DC938FBFDF91CF911F910895D9
:1007E000DE2BF8CFCF93DF9390E0FC01E85DFD4F67
:1007F00024918E519E4FFC0184918823C9F090E092
:10080000880F991FFC01EC56FE4FA591B491FC0195
:10081000E255FE4FC591D49161110DC09FB7F89478
:100820008C91209582238C938881282328839FBFD5
:10083000DF91CF910895623051F49FB7F8943C91C5
:10084000822F809583238C93E8812E2BEFCF8FB757
:10085000F894EC912E2B2C938FBFEACF3FB7F894EE
:100860008091B9039091BA03A091BB03B091BC03EE
:1008700026B5A89B05C02F3F19F00196A11DB11DFB
:100880003FBFBA2FA92F982F8827BC01CD01620F37
:10089000711D811D911D42E0660F771F881F991FF2
:1008A0004A95D1F708958F929F92AF92BF92CF92BF
:1008B000DF92EF92FF926B017C010E942E044B01AC
:1008C0005C01C114D104E104F104B9F00E942E04CA
:1008D000681979098A099B09683E73408105910569
:1008E00080F321E0C21AD108E108F10888EE880EF1
:1008F00083E0981EA11CB11CE4CFFF90EF90DF9025
:10090000CF90BF90AF909F908F90089581309105C8
:1009100081F41092800082E0809381001092850023
:1009200010928400B19A80916F00826080936F0072
:1009300008958230910569F41092900082E08093CE
:100940009100109295001092940088BB80937100E2
:1009500008958330910569F41092A00082E080939D
:10096000A1001092A5001092A40089BB8093720090
:100970000895892B61F41092200182E08093210177
:1009800010922501109224018ABB80937300089570
:10099000AF92BF92CF92DF92EF92FF920F931F938D
:1009A000CF93DF936B017A01EC01C055DC4F2881B6
:1009B0003CE0389F8001399F100D1124A0904A051A
:1009C000B12C27FF1FC0FB011182108288818F5F2D
:1009D000888388819801280F311D87FD3A95F6019B
:1009E0002A153B051CF488818C30C4F180819181EB
:1009F000049680349C4908F473C0F601808191818B
:100A0000049670C088819801280F311D87FD3A95A2
:100A10002A153B05DCF68881A801480F511D87FD8A
:100A20005A95FA01EE0FFF1FE40FF51FE654FB4F36
:100A3000808186FFCBCF8881F801E80FF11D87FD0B
:100A4000FA95CF01EE0FFF1FE80FF91FE654FB4F99
:100A5000808160E08F730E94C403B8CF8081918150
:100A60002881A801420F511D27FD5A959A01FA01CC
:100A7000EE0FFF1FE20FF31FE654FB4F218132817F
:100A8000820F931FF7019183808388819801280F3B
:100A9000311D87FD3A95F901EE0FFF1FE20FF31F9D
:100AA000E654FB4F808186FF22C08881080F111D0C
:100AB00087FD1A95F801EE0FFF1FE00FF11FE654B6
:100AC000FB4F808161E08F73DF91CF911F910F9178
:100AD000FF90EF90DF90CF90BF90AF900C94C40345
:100AE00080E49CE9F701918380838FEF8883DF9115
:100AF000CF911F910F91FF90EF90DF90CF90BF901B
:100B0000AF90089521E001C0220F6A95EAF7DC0159
:100B10001C962C931C971A965C934E931997ED9103
:100B2000FC910484F585E02D60E019940895089502
:100B3000DC01ED91FC910684F785E02D41E01995EB
:100B400081E090E00895DC01ED91FC910684F78549
:100B5000E02D40E01994EF92FF920F931F93CF93F3
:100B6000DF938B0198E0899FB0011124606483ECCE
:100B700095E00E94A30583E790E00197F1F7E80173
:100B8000085F1F4F8BE9E82EF12C699183EC95E00B
:100B90000E949805C7010197F1F7C017D107A9F77F
:100BA000DF91CF911F910F91FF90EF90089561E039
:100BB0000E94A3058BE39FE10197F1F708950F933E
:100BC0001F93CF93DF93EC01423018F08C81886043
:100BD0008C834F836887222329F0413019F48C815C
:100BE00084608C8364E670E080E090E00E945304AF
:100BF0006C8164FD57C0E881F9810684F785E02D9A
:100C000042E063E0CE0119958BE496E40197F1F799
:100C1000E881F9810684F785E02D42E063E0CE01AA
:100C2000199503E512E0C8010197F1F7E881F98110
:100C30000684F785E02D42E063E0CE011995C801F6
:100C40000197F1F7E881F9810684F785E02D42E00C
:100C500062E0CE011995C8010197F1F76C816062DD
:100C6000CE010E94A3058BEE90E00197F1F784E09E
:100C70008D836CE0CE010E94A305CE010E94D705B2
:100C800082E08E8366E0CE010E94A305E881F981AF
:100C90000484F585E02D6FEFCE01DF91CF911F9198
:100CA0000F9119946062CE010E94A3058BE496E433
:100CB0000197F1F76C816062CE010E94A30503E504
:100CC00012E0C8010197F1F76C816062CE010E94C9
:100CD000A305C1CF08950895089520918703260F95
:100CE0003327331F21323105ECF42091E703FC0157
:100CF00090E080E0243069F082E00895A0918703BD
:100D00002191AC0149595C4FA40FB52FB11D2C9313
:100D10000196861798F380918703680F6093870385
:100D200080E0089581E008951092E70381E08093C8
:100D3000E6031092C10361E084E10E94C40361E014
:100D400085E10E94C403E9EBF0E080818E7F80831F
:100D500080818D7F808388E48093B80085E48093D0
:100D6000BC000895CF93DF9391E0909366038823AE
:100D7000B9F0C091B800D091BA008091BC008A7BD4
:100D80008093BC0060E084E10E94C40360E085E1E0
:100D90000E94C4030E949406D093BA00C093B80086
:100DA000DF91CF910895CF92DF92EF92FF920F9350
:100DB0001F93CF93DF93D091100481E0D13208F0DC
:100DC0009CC0C0910F040E942E046B017C01809195
:100DD000E70381116CC082E08093E70381E0809398
:100DE000E6038FEF8093E5031092E403D093E303CF
:100DF000AFEEB3E0E3ECF3E080E0D8138DC01092E7
:100E0000C2038091C203CC0FC82BC093C203809150
:100E1000C103813009F084C01092C1030E942E04E6
:100E20006B017C018091C2038093BB008091E90338
:100E30009091EA03A091EB03B091EC03892B8A2BEC
:100E40008B2BA1F00E942E040091E9031091EA037C
:100E50002091EB033091EC036C197D098E099F09F9
:100E6000061717072807390708F442C08091BC000D
:100E700083FDD8CF85EC8093BC000E942E046B01CB
:100E80007C018091E703823009F44CC08091E50336
:100E90008F3F09F469C08091E503803209F466C090
:100EA0008091E503803309F463C084E026C080911B
:100EB000E9039091EA03A091EB03B091EC03892B35
:100EC0008A2B8B2B09F483CF0E942E040091E90317
:100ED0001091EA032091EB033091EC036C197D092A
:100EE0008E099F09061717072807390708F06FCFE3
:100EF0008091E8030E94B20685E01092EE03109202
:100F000010041092ED03DF91CF911F910F91FF908C
:100F1000EF90DF90CF9008959D9191938F5F6DCF6B
:100F200085EEA9CF8091E9039091EA03A091EB03AC
:100F3000B091EC03892B8A2B8B2B09F4A2CF0E9452
:100F40002E040091E9031091EA032091EB03309104
:100F5000EC036C197D098E099F09061717072807EE
:100F6000390708F08ECFC4CF80E0C7CF82E0C5CF6D
:100F700083E0C3CF0895E091AF038091AE03E817FB
:100F800030F4F0E0EA5BFC4F808190E008958FEF51
:100F90009FEF08959091AF038091AE032FEF3FEF45
:100FA000981748F4E92FF0E0EA5BFC4F208130E02D
:100FB0009F5F9093AF03C90108958091AE03909114
:100FC000AF03891B990B0895CF92DF92EF92FF92A6
:100FD0000F931F93CF93DF937C01CB018A01209164
:100FE000ED03222389F0EB016B01C40ED51ECC1555
:100FF000DD0569F06991D701ED91FC910190F081D7
:10100000E02DC7011995F3CF642F0E946D06C8012A
:10101000DF91CF911F910F91FF90EF90DF90CF90D4
:101020000895CF93DF931F92CDB7DEB769832091E8
:10103000ED032223F9F020911004203258F021E032
:1010400030E0FC013383228390E080E00F90DF9159
:10105000CF9108958091EE03E82FF0E0E151FC4F2D
:10106000998190838F5F8093EE038093100481E0D9
:1010700090E0ECCF61E0CE0101960E946D06F7CFC3
:10108000FC0123812223F1F0262F618160956223E8
:101090006083828191E09093ED0380930F0410921E
:1010A000EE03109210048EEA94E00E9411080E9450
:1010B000D306282F30E081E090E0232B11F090E060
:1010C00080E0089530E020E0F6CFEF92FF920F939A
:1010D0001F93CF938C01FC0184E0C0E0262F30E009
:1010E00060FF02C09589C92BB9017595679581503C
:1010F00031968111F3CF413011F4F8014489F801A0
:101100006585C62BC42B7801FEE0EF0EF11CF801BB
:1011100062896C2BC7010E944008F80162896095C2
:101120006C23C701CF911F910F91FF90EF900C940A
:1011300040080F931F93CF93DF93062F0F70423019
:1011400041F440E0602FDF91CF911F910F910C94FB
:101150006508142FEC0170E084E0759567958A9519
:10116000E1F7CE010E946508412F602FCE01EBCF41
:10117000FC0184858823A1F0218532852115310564
:1011800021F4611107C0158606C021303105D9F759
:101190006111F9CF85876585CF010E960C944008C3
:1011A0000895EF92FF920F931F93CF93DF93EC017B
:1011B000062FF42EE22E8B85888B1092AF031092AF
:1011C000AE031092EE03109210040E94940686E97A
:1011D00095E09093AD038093AC0387E995E09093FD
:1011E000AB038093AA03888911E01093ED038093E9
:1011F0000F040E94D30681111CC0198B8EEA94E063
:101200000E94CA078E878989882339F01F861C822D
:1012100060E0CE010E960E9440082E2D4F2D602FCB
:10122000CE01DF91CF911F910F91FF90EF900C9421
:10123000DF05198AE8CF90E080E00895862F0C94AE
:101240009B03862F642F0C94C403862F642F0C9469
:10125000F2030F931F93CF93DF938091BD0390917F
:10126000BE0320911A0230911B0221303105E1F5B5
:1012700001969093BE038093BD0320911802309194
:1012800019028217930724F01092BE031092BD0337
:10129000E091BD03F091BE03EE0FFF1FEE5BFD4F2B
:1012A00000811181CAE0D0E0CE010A97B80102C0E6
:1012B000759567958A95E2F761708C2F0E94C4033B
:1012C0002196CE30D10581F784E090E09093190209
:1012D0008093180268EE73E080E090E0DF91CF9198
:1012E0001F910F910C94530401979093BE03809328
:1012F000BD0397FFCDCF80911802909119020197FD
:101300009093BE038093BD03C3CFFB0101900020E7
:10131000E9F73197AF01461B570BDC01ED91FC91CA
:101320000280F381E02D1994CF93DF93BC0181E11A
:1013300094E00E948509EC016CE872E081E194E0A0
:101340000E9485098C0F9D1FDF91CF9108950E9407
:10135000D71185ED8093BC008091E9039091EA0359
:10136000A091EB03B091EC030796A11DB11D23E002
:10137000B695A795979587952A95D1F72091BC00AA
:1013800024FD03C01092E70308954091E9035091B2
:10139000EA036091EB037091EC03452B462B472B3E
:1013A00069F30097A105B10541F025E32A95F1F70E
:1013B00000000197A109B109E1CF8091E8030C94E5
:1013C000B2061F920F920FB60F9211240BB60F9216
:1013D0002F933F934F935F936F937F938F939F933D
:1013E000AF93BF93EF93FF9381E194E00E94740267
:1013F000FF91EF91BF91AF919F918F917F916F91ED
:101400005F914F913F912F910F900BBE0F900FBEA8
:101410000F901F9018951F920F920FB60F921124E4
:101420000BB60F922F938F939F93EF93FF93E091BF
:101430002104F09122048081E0912704F091280496
:1014400082FD1DC0908180912A048F5F8F7320914F
:101450002B04821741F0E0912A04F0E0EF5EFB4F8D
:10146000958F80932A04FF91EF919F918F912F91F7
:101470000F900BBE0F900FBE0F901F90189580819C
:10148000F2CF1F920F920FB60F9211242F933F931A
:101490008F939F93AF93BF938091B5039091B603C1
:1014A000A091B703B091B8033091B40323E0230FA8
:1014B0002D3758F50196A11DB11D2093B4038093DB
:1014C000B5039093B603A093B703B093B80380918C
:1014D000B9039091BA03A091BB03B091BC030196EC
:1014E000A11DB11D8093B9039093BA03A093BB03D0
:1014F000B093BC03BF91AF919F918F913F912F917A
:101500000F900FBE0F901F90189526E8230F02969C
:10151000A11DB11DD2CF1F920F920FB60F921124B1
:101520000BB60F922F933F934F935F936F937F93DD
:101530008F939F93AF93BF93EF93FF9348E251E054
:1015400064E271E090E080E00E94C804FF91EF91B6
:10155000BF91AF919F918F917F916F915F914F91CB
:101560003F912F910F900BBE0F900FBE0F901F90C9
:1015700018951F920F920FB60F9211240BB60F926F
:101580002F933F934F935F936F937F938F939F938B
:10159000AF93BF93EF93FF9348EA50E064EA70E0A3
:1015A00083E090E00E94C804FF91EF91BF91AF915A
:1015B0009F918F917F916F915F914F913F912F916B
:1015C0000F900BBE0F900FBE0F901F9018951F929B
:1015D0000F920FB60F9211240BB60F922F933F93D9
:1015E0004F935F936F937F938F939F93AF93BF932B
:1015F000EF93FF9348E950E064E970E082E090E007
:101600000E94C804FF91EF91BF91AF919F918F917C
:101610007F916F915F914F913F912F910F900BBEF2
:101620000F900FBE0F901F9018951F920F920FB63C
:101630000F9211240BB60F922F933F934F935F930A
:101640006F937F938F939F93AF93BF93EF93FF938A
:1016500048E850E064E870E081E090E00E94C8044F
:10166000FF91EF91BF91AF919F918F917F916F917A
:101670005F914F913F912F910F900BBE0F900FBE36
:101680000F901F9018951F920F920FB60F92112472
:101690000BB60F922F933F934F935F936F937F936C
:1016A0008F939F93AF93BF93EF93FF938091B90074
:1016B000887F803609F44DC008F040C0883209F4B4
:1016C000A9C028F5803109F49DC0C8F4882309F425
:1016D000FBC0883009F496C0FF91EF91BF91AF91A4
:1016E0009F918F917F916F915F914F913F912F913A
:1016F0000F900BBE0F900FBE0F901F901895883162
:1017000009F488C0803241F78093E50314C0803427
:1017100009F49DC040F48033B9F38833E9F680932F
:10172000E50385ECB0C0803509F485C0883509F43F
:1017300096C0883489F60E94A909CECF883909F469
:101740008CC038F5883729F050F4883611F080378E
:1017500019F683E08093E7031092A90357C08838F5
:1017600009F47BC0803919F0803809F0B5CF809139
:10177000A903803208F071C0E091A90381E08E0FC7
:101780008093A9038091BB00F0E0E757FC4F808372
:101790003DC0803B39F0E0F4803A09F479C0883AE2
:1017A00009F09ACF84E08093E703109288031092A7
:1017B0008703E091AC03F091AD0319958091870305
:1017C00081110FC081E0809387031092670309C0E5
:1017D000803C09F4A6CF883C09F4A3CF883B09F0EC
:1017E0007BCFE091880381E08E0F80938803F0E047
:1017F000E959FC4F80818093BB00909188038091D0
:10180000870329C08091C2038093BB0085EC80933D
:10181000BC0062CF9091E4038091E303981758F5E0
:10182000E091E40381E08E0F8093E403F0E0ED5358
:10183000FC4F8081E9CFE091E40381E08E0F80933B
:10184000E4038091BB00F0E0ED53FC4F8083909166
:10185000E4038091E3039817C8F285E8D8CFE091BC
:10186000E40381E08E0F8093E4038091BB00F0E0FD
:10187000ED53FC4F80838091E60381115CCF81E0C2
:101880008093C10384EA8093BC001092E70324CFC5
:1018900085EC8093BC001092E7038091A90380320D
:1018A00030F4E091A903F0E0E757FC4F108260911B
:1018B000A90370E0E091AA03F091AB0389E893E0FB
:1018C00019951092A90308CF1092E50334CF109216
:1018D00014041092130488EE93E0A0E0B0E080932B
:1018E000150490931604A0931704B09318042EE4E3
:1018F00032E0309312042093110425EC30E0309351
:101900001E0420931D0424EC30E030932004209327
:101910001F0420EC30E0309322042093210421ECBA
:1019200030E0309324042093230422EC30E0309301
:1019300026042093250426EC30E0309328042093DD
:10194000270410922A0410922B0410922C04109257
:101950002D041092B1041092B0048093B2049093BD
:10196000B304A093B404B093B50480E692E09093DE
:10197000AF048093AE041092C6051092C5058CE7A3
:1019800092E09093C4058093C3051092D3058FEF26
:101990008093D2051092D1051092D40587E28093EE
:1019A000CE051092CF051092D0051092CD05109261
:1019B000CC0584E08093D50582E08093D60581E054
:1019C0008093D70580E18093D80580E28093D90584
:1019D00080E48093DA0580E88093DB051092560559
:1019E00010925A051092590510925B0582E792E019
:1019F0009093550580935405E0E7F5E0108214823A
:101A000013821582369685E0EC3AF807B9F780E242
:101A100092E09093B7058093B6058CE192E09093A5
:101A2000B9058093B80584E08093BA058093BB051F
:101A300084E292E09093B5058093B4058AE090E04B
:101A40009093BD058093BC0584EF91E09093BF0512
:101A50008093BE051092C2051092C1051092B00588
:101A60001092B1051092B2051092B3051092C00504
:101A700080914A05803308F042C091E0980F90931E
:101A80004A058093510590E0FC01EE0FFF1FE80F1F
:101A9000F91FE654FB4F88EB9BE092838183109201
:101AA0004C0510924B0510924E0510924D05109268
:101AB000500510924F0561E070E090E080E00E94D8
:101AC000F610009701F190934C0580934B0510920E
:101AD0004E0510924D0520914F0530915005232B56
:101AE00011F4FC0110821092500510924F056EE81F
:101AF00072E080914B0590914C050C94E5118FEFAD
:101B000080935105CCCF80914B0590914C05009767
:101B100011F00E946D1010924C0510924B0510921E
:101B2000500510924F0510924E0510924D050895E4
:101B3000CF93DF9300D000D01F921F92CDB7DEB7B6
:101B4000789484B5826084BD84B5816084BD85B598
:101B5000826085BD85B5816085BD80916E008160A4
:101B600080936E001092810080918100826080934A
:101B7000810080918100816080938100809180004C
:101B80008160809380008091B10084608093B10077
:101B90008091B00081608093B0008091910082605C
:101BA0008093910080919100816080939100809159
:101BB00090008160809390008091A100826080936A
:101BC000A1008091A10081608093A1008091A0007C
:101BD00081608093A0008091210182608093210127
:101BE0008091210181608093210180912001816099
:101BF0008093200180917A00846080937A008091A4
:101C00007A00826080937A0080917A00816080936C
:101C10007A0080917A00806880937A001092C100E7
:101C2000E0912104F091220482E08083E0911D0480
:101C3000F0911E041082E0911F04F09120048FECBB
:101C4000808310922904E0912504F091260486E017
:101C50008083E0912304F09124048081806180835B
:101C6000E0912304F0912404808188608083E091D6
:101C70002304F0912404808180688083E091230410
:101C8000F091240480818F7D808350E040E063E008
:101C900083EC95E00E94820561E083EC95E00E9470
:101CA000B80820E042E060E183EC95E00E94D108B2
:101CB00083EC95E00E94D70560E172E080E00E942D
:101CC000AB0568E072E081E00E94AB0560E072E085
:101CD00082E00E94AB0561E089E10E94F20361E0CD
:101CE00088E10E94F20361E087E10E94F20360E074
:101CF0008BE20E94F20360E08CE20E94F20360E05B
:101D000089E20E94F20360E08AE20E94F20361E04D
:101D10008AE00E94F20361E08BE00E94F20361E03E
:101D20008CE00E94F20361E08DE00E94F20362E029
:101D300083EC95E00E94A3058BE39FE10197F1F707
:101D400080913A0290913B02A0913C02B0913D02F9
:101D50008D839E83AF83B88780913E0290913F022E
:101D6000A0914002B091410289839A83AB83BC83E6
:101D70002091CA0581E0211180E0819590E03091A9
:101D8000CB058C0F9D1FFC01303109F05CC0243065
:101D900009F059C061816F5F606883EC95E00E9433
:101DA000A30560E083EC95E00E9498056FE872E07F
:101DB00083EC95E00E94850960E083EC95E00E9449
:101DC000980568E873E180E090E00E94530483EC9A
:101DD00095E00E94D70511E0EE24E394F12CCC2489
:101DE000CA94DC2C8BE20E949B03892B11F0109388
:101DF000C0038CE20E949B03892B11F01093BF0358
:101E00008091C003882339F164E670E080E090E0BF
:101E10000E94530410921B0210921A028091180221
:101E2000909119029093BE038093BD0389E20E94B2
:101E30009B03019779F58AE20E949B03892B29F481
:101E40000E942909F8CF6581A6CF8CE992E00E9413
:101E500094091092C0038091BF03882331F164E696
:101E600070E080E090E00E945304F0921B02E09248
:101E70001A02D092BE03C092BD038AE20E949B0365
:101E80000197B1F489E20E949B03892B41F40E94DF
:101E90002909F8CF8EEB92E00E949409DCCF8FEEF7
:101EA00092E00E9494091092BF030E9403039ACF0C
:101EB00081E193E00E949409F8CF80914B059091C5
:101EC0004C05009711F00C946D100895052E97FBAA
:101ED0001EF400940E947D0F57FD07D00E94980FBA
:101EE00007FC03D04EF40C947D0F5095409530952F
:101EF00021953F4F4F4F5F4F089590958095709576
:101F000061957F4F8F4F9F4F08950E94BA0FA59FF5
:101F1000900DB49F900DA49F800D911D11240895E4
:101F2000B7FF0C94850F0E94850F821B930B0895B9
:101F3000A1E21A2EAA1BBB1BFD010DC0AA1FBB1FCD
:101F4000EE1FFF1FA217B307E407F50720F0A21B3F
:101F5000B30BE40BF50B661F771F881F991F1A94AC
:101F600069F760957095809590959B01AC01BD01D6
:101F7000CF010895A29FB001B39FC001A39F700D30
:101F8000811D1124911DB29F700D811D1124911D81
:101F90000895EE0FFF1F881F8BBF0790F691E02D6D
:101FA00019940F931F93CF93DF938230910510F410
:101FB00082E090E0E091DE05F091DF0530E020E086
:101FC000B0E0A0E0309799F42115310509F44AC03A
:101FD000281B390B24303105D8F58A819B81611586
:101FE000710589F1FB0193838283FE0111C0408159
:101FF00051810281138148175907E0F048175907AA
:1020000099F4109761F012960C93129713961C9303
:102010003296CF01DF91CF911F910F9108950093D8
:10202000DE051093DF05F4CF2115310551F042177D
:10203000530738F0A901DB019A01BD01DF01F80166
:10204000C1CFEF01F9CF9093DF058093DE05CDCFAF
:10205000FE01E20FF31F81939193225031093983DE
:102060002883D7CF2091DC053091DD05232B41F467
:1020700020913602309137023093DD052093DC0544
:1020800020913402309135022115310541F42DB7EC
:102090003EB74091380250913902241B350BE09134
:1020A000DC05F091DD05E217F307A0F42E1B3F0BD2
:1020B0002817390778F0AC014E5F5F4F24173507BA
:1020C00048F04E0F5F1F5093DD054093DC05819370
:1020D00091939FCFF0E0E0E09CCFCF93DF93009708
:1020E000E9F0FC01329713821282A091DE05B091D3
:1020F000DF05ED0130E020E01097A1F4208131816F
:10210000820F931F2091DC053091DD0528173907D8
:1021100009F061C0F093DD05E093DC05DF91CF911C
:102120000895EA01CE17DF07E8F54A815B819E0139
:1021300041155105B1F7E901FB83EA8349915991B2
:10214000C40FD51FEC17FD0761F4808191810296C1
:10215000840F951FE90199838883828193819B83F2
:102160008A83F0E0E0E012968D919C91139700979E
:10217000B9F52D913C911197CD010296820F931FD5
:102180002091DC053091DD052817390739F63097A5
:1021900051F51092DF051092DE05B093DD05A09396
:1021A000DC05BCCFD383C28340815181840F951F4E
:1021B000C817D90761F44E5F5F4F88819981480F36
:1021C000591F518340838A819B8193838283211588
:1021D000310509F0B0CFF093DF05E093DE059ECF27
:1021E000FD01DC01C0CF13821282D7CF4F925F92E4
:1021F0006F927F928F929F92AF92BF92CF92DF9217
:10220000EF92FF920F931F93CF93DF938C01009770
:1022100099F4CB01DF91CF911F910F91FF90EF9037
:10222000DF90CF90BF90AF909F908F907F906F90F6
:102230005F904F900C94D10FFC01E60FF71F9C01AB
:1022400022503109E217F30708F4AEC0D901CD914D
:10225000DC911197C617D70720F1C530D10578F06A
:10226000CE0104978617970750F0C61BD70B22970D
:10227000C193D1936D937C93CF010E946D10C801DF
:10228000DF91CF911F910F91FF90EF90DF90CF9052
:10229000BF90AF909F908F907F906F905F904F9086
:1022A00008955B01AC1ABD0A4C018C0E9D1EA091D5
:1022B000DE05B091DF05512C412CF12CE12C10975B
:1022C00031F58091DC059091DD058815990509F0BF
:1022D0005CC04616570608F058C0809134029091B1
:1022E0003502009741F48DB79EB740913802509166
:1022F0003902841B950BE817F90708F055C0F093D5
:10230000DD05E093DC05F90171836083B8CF8D9121
:102310009C91119712966C90129713967C9013973C
:10232000A815B90559F56C0142E0C40ED11CCA14B8
:10233000DB0420F1AC014A195B09DA01129615970A
:1023400080F06282738251834083D9016D937C93C4
:10235000E114F10471F0D7011396FC93EE931297F8
:102360008ECF22968C0F9D1FF90191838083F301FC
:10237000EFCFF093DF05E093DE0581CF48165906D5
:1023800008F42C017D01D3019ACFCB010E94D10F1B
:102390007C01009749F0AE01B8010E94DC11C80130
:1023A0000E946D1087016BCF10E000E068CF81E0E4
:1023B00090E0F8940C94EC11FB01DC0102C0019058
:1023C0000D9241505040D8F70895FB01DC01019077
:1023D0000D920020E1F7089511E0CBE5D1E000E097
:1023E00006C0802FFE010E94C90F2196011DCC3529
:0C23F000D10780E00807A9F7F894FFCFA0
:1023FC001F15151F0E111F1F00110000110E0000DC
:10240C001F11111F1F1F1F000400010006070809E0
:10241C0002030405373839413435364231323343FF
:10242C002A3023440000E005800000401454004092
:10243C001050080004000200010000000000960289
:10244C0000022D02E3025E023C025002000000007A
:10245C001108E4071B09BA07DD07CA07BB07000010
:10246C000000250921091E09000000009805000242
:10247C001B096C06D1088205B80899080D0A0020C2
:10248C004249454E56454E49444F20004C6C6567B9
:10249C006F20656C207061717565746520616C20AE
:1024AC004C61626F7261746F72696F2032004E6F93
:1024BC00207365206861206361726761646F206EB0
:1024CC00696E67756E207061717565746520656ED7
:1024DC00204C61626F7261746F72696F2031004CB5
:1024EC006C65676F20656C20706171756574652013
:1024FC00616C204C61626F7261746F72696F203114
:10250C00004E6F207365206861206361726761649F
:10251C006F206E696E67756E20706171756574657C
:10252C0020656E20656C204C61626F7261746F72F5
:06253C00696F203200006F
:00000001FF
